S01C00006275696C642F64656275672F776973756E5F7263702E73333789
S21400000000100020510400004D0400004D040000C4
S2140000104D0400004D0400004D0400004D04000097
S2140000204D0400004D0400004D0400004D04000087
S2140000304D0400004D040000BB4C00004D040000C1
S2140000404D0400001DBC01004D0400004D040000DE
S21400005085B4010075BC010029BC010041BC01004B
S21400006021BC01004D0400004D0400004D040000BA
S214000070713601004D0400004D0400004D040000E0
S2140000804D0400004D0400004D0400004D04000027
S2140000904D0400004D0400004D0400004D04000017
S2140000A04D0400004D0400004D0400004D04000007
S2140000B079BC010025BC010049580000B5BC010010
S2140000C04D0400007DA601004D0400004D04000014
S2140000D04D0400004D0400004D0400004D040000D7
S2140000E04D0400004D0400004D0400004D040000C7
S2140000F04D0400004D0400004D0400004D040000B7
S2140001004D0400004D0400004D04000010B5054CE1
S214000110237833B9044B13B10448AFF300800123AE
S214000120237010BDA8300020000000005C570200BD
S21400013008B5034B1BB103490348AFF3008008BD65
S21400014000000000AC3000205C570200A3F5803AA7
S214000150704700BF174B002B08BF134B9D46FFF799
S214000160F5FF00218B460F461348144A121A15F065
S214000170FDFB0E4B002B00D098470D4B002B00D0FC
S21400018098470020002104000D000D48002802D0EA
S2140001900C48AFF3008015F07DFB2000290013F01B
S2140001A0A7F815F051FB00BF000008000000000093
S2140001B000000000001000203C25002060110120F7
S2140001C0000000000000000010B5036854186060CE
S2140001D053501BB10B445C60026010BD4460FBE7EB
S2140001E01150014413184868586002604B6070470D
S2140001F010B5002454505318416859600A60436093
S21400020010BD000030B5551854586B6804B160181E
S21400021043601C60014B53506B6030BDEFBEADDEDB
S214000220030E0B70030C4B70030AC8708B70081D0E
S2140002307047437802781B0403EB0263C278807829
S214000240134403EB00207047030A08704B70030C3E
S214000250000EC8708B70081D70478378417802784E
S214000260C0781B0403EB0123134403EB00607047C4
S21400027008B5064801F0FEFE054B186028B9054B88
S214000280054A0648A52115F0BBFA08BD4CD8010062
S214000290C4300020ECD6010031D8010008D7010098
S2140002A008B5042201230521002001F023FA0020CE
S2140002B008BDFFF7F5BF08B5002318460422052140
S2140002C001F018FA002008BD08B50548012100F025
S2140002D06FFA14F020FFBDE8084000F009B800BF30
S2140002E000350A000148012100F062BA00350A0014
S2140002F02DE9F0433B4D3C4FDFF80091DFF80081DD
S2140003000FCD89B001AC0FC495E8070084E807005C
S214000310364C3748012100F04BFA3846012100F0F0
S21400032047FA0125334B039301A920468DF8125056
S21400033001F034FC2B4604220621022001F0DAF9F3
S2140003402A4600230721022001F0D4F92B46042276
S2140003500821022001F0CEF9042211462B46002087
S21400036001F0C8F9244BA3670B23636710264FF4EC
S214000370487005F097FAC9F80C60142005F092FA58
S214000380C8F80C60232005F08DFAC9F80C60B92176
S214000390204601F050FC00231A46C8F80C600621DF
S2140003A0022001F0A7F900231A460721022001F0D7
S2140003B0A1F92B4600220821022001F09BF9002219
S2140003C010462B46042101F095F9204601F076FBF5
S2140003D00021A1673846616700F0EAF909B0BDE878
S2140003E0F08300BF5CD80100005204000004014006
S2140003F000350A0000127A000B0B000B00A0004428
S21400040000A0004603680B60016070471FB51446E5
S21400041052B16A4603F088FF20609DF8000000385D
S21400042018BF012004B010BD0120FBE705490A688B
S2140004301318054883428CBF4FF0FF320B601046FE
S214000440704700BF0010002000000420FEE70000F8
S21400045008B500F069F8064B0649074A8B4201D3F7
S214000460FFF778FE52F8040B43F8040BF6E700BFDC
S214000470001000203C25002064570200004870470A
S21400048000F04902104AD2F8943003F00703023B0A
S214000490032B13D8DFE803F00C14020E0B4B1B687B
S2140004A0D2F80001C0F304200130B3FBF0F070472F
S2140004B0074BF4E7074B1B685B08F1E7054BEEE7D5
S2140004C04FF40043ECE700BF00400E401010002041
S2140004D0081000200C10002008B5FFF7D3FF054BCE
S2140004E0D3F80831C3F308230133B0FBF3F0024B13
S2140004F0186008BD00400E4004100020014B18682C
S214000500704700BF08100020054B1860054BD3F855
S214000510943003F00703022B01D1FFF7DDBF7047CD
S2140005200810002000400E40044B054A9A60D3F89D
S214000530882042F47002C3F88820704700ED00E07F
S214000540000000004FF4004070474FF47A70704788
S214000550014B1868704700BF10100020024B196846
S214000560024B186817F036BA181000201410002036
S2140005707047000037B5920004460D46019201F020
S214000580DDF9431C0BD060B9019A2946204615F0C8
S214000590B5F90028044808BF002003B030BD034862
S2140005A0FBE70348F9E700BF10E000F021E000F0A9
S2140005B024E000F013B5044601A801F015FA9DF8F2
S2140005C00630238040F201136380074BD3F8E430F3
S2140005D01B0E0A33012203F01F0302FA03F3002066
S2140005E0636002B010BD00BF0081E00F01F0D2B81A
S2140005F008B501F0BFF8002008BD10B5044644EA6F
S214000600010313F00303084609D1934201D10020E9
S21400061010BD54F8231040F823100133F5E792007C
S214000620214615F07BF9F2E710B5044601F038F9DB
S214000630431C17D0C0B90D4BD3F8E4301B0E0A3359
S21400064003F01F020123934023F0030320462344B4
S214000650984201D1002010BD50F8042B0132F7D08B
S2140006600348F8E70348F6E70348F4E70081E00F9D
S2140006700EE000F021E000F024E000F008B500F005
S214000680EFFC014B186008BD90370020014B18683E
S21400069000F0EABC90370020704700000C4B9842F0
S2140006A010D90C4B984210D9022201230A490B6438
S2140006B00A49D1F8003123F0807343EA0263C1F897
S2140006C00031704700221346F0E70122FBE700BF27
S2140006D00048E8010090D0030000C84300400E40E8
S2140006E00F4B5B680F4B30B500221C46C9B21D7914
S2140006F08D4202D11D6885420DD20132052A03F1D2
S2140007000803F4D1032206494B6823F0407343EAFA
S21400071002634B6030BD04EBC2025279F3E700BFC0
S21400072000000E40C8D8010038B5074C41F67133BA
S214000730256C2364FFF7A2FE0021FFF7D1FF0DB161
S2140007400023236438BD00BF00000E40044BDB6B63
S2140007505B0604D4034AD2F8C830002BFBD170479E
S21400076000300E400000C64308B5FFF7EFFF024B0F
S2140007705868C0F3014008BD00300E40044BD3F863
S2140007804421D20703D4D3F840211042FBD170474E
S21400079000400E4038B5054C41F67133256C236495
S2140007A0FFF79EFF0DB10023236438BD00000E4006
S2140007B038B5C0F30323013B092B16D8DFE803F056
S2140007C02616151505191C151F23124C0023C0F3F9
S2140007D0043513B11846FFF7D1FF04F1424404F57F
S2140007E0801405EBC404A400216038BD0A4C002325
S2140007F0EDE70A4C0123EAE7094C1023E7E7094C2A
S2140008004FF48033E3E7084C0023E0E7074C00236F
S214000810DDE700BFB0400E40C0400E40E0400E4056
S214000820E8400E40F0400E4050410E4000400E4062
S214000830C0F30313013B092B2AD8DFE803F0050BAE
S2140008400F1929291F23374B274BD3F80001C0F374
S21400085004207047244BD3F81401F8E7224BD3F852
S2140008600001C0F30060431C012098400138704727
S2140008701D4BD3F80C01C0F3082070471A4BD3F871
S2140008800801F8E7194B984204D0194B984207D054
S21400089000207047144BD3F8203103F00F03E3E732
S2140008A0114BD3F82031C3F30113DDE7114B984207
S2140008B00CD003F5B01303F580539842E8D10A4BE9
S2140008C0D3F82801C0F30120031DCDE7064BD3F86B
S2140008D02831E8E7084B9842DAD1034BD3F83001C9
S2140008E000F00300704700BF00400E408006160070
S2140008F080162E0090171A00A009140008B5FFF7FE
S21400090097FF013008BD000000F00F0001380728EF
S21400091044D8DFE800F0040F1943232D4335244B59
S214000920D3F8943003F00703023B052B38D8214A4E
S214000930D05C70471E4BD3F8803003F00703013BB2
S214000940032B2FD81C4AF3E7194BD3F8843003F057
S2140009500703013B032B25D8184AE9E7144BD3F8C5
S214000960883003F00703013B032B1BD8144ADFE74C
S2140009700F4B1B6F13F0010F0CBF072009207047A9
S2140009800B4BD3F85C3103F03003202B0CD0302B0C
S2140009900CD0102B14BF0120072070470020704792
S2140009A005207047012070470420704708207047D4
S2140009B000400E409CD80100A2D80100A6D8010035
S2140009C0A2D8010008B50146FFF79EFF1A4B9942D0
S2140009D011D01A4B994212D0194B994204D1194B97
S2140009E0D3F8800000F007000138032821D8DFE89C
S2140009F000F00A0E1612134BD3F88400F2E7114BE0
S214000A00D3F88800EEE7BDE80840FFF79BBDBDE8D9
S214000A100840FFF79DBDBDE80840FFF796BDFFF70D
S214000A2031FD084BD3F80031C3F300630133D840DF
S214000A3008BD0020FCE700BF0300200005002400DE
S214000A4002001E0000400E4000F47813B3F5B01FFD
S214000A5010B5044674D025D8B3F5402F5ED010D814
S214000A60B3F5802F49D005D83BB1B3F5003F4FD042
S214000A70002010BDB3F5202FFAD1BDE81040FFF7D7
S214000A8001BDB3F5801F00F08480B3F5A01F4DD0E4
S214000A90B3F5602FECD14A48FFF736FF072878D029
S214000AA00928E9E7B3F5381F53D013D8B3F5001F6C
S214000AB058D00AD8B3F5D01F56D0B3F5F01FD7D10B
S214000AC04048BDE81040FFF77DBFB3F5101FCFD1FB
S214000AD03D48F6E7B3F5481F4DD0B3F5781F65D00F
S214000AE0B3F5401FC4D13948FFF76CFF384BD3F835
S214000AF02831C3F30123043320E0FFF7C3FC344B53
S214000B00D3F80C31C3F308230133B0FBF3F0B0E79E
S214000B10FFF7B8FC2E4BD3F80831F3E7FFF7B2FC2B
S214000B202B4BD3F81431C3F30423EDE72648FFF725
S214000B3049FF274BD3F8303103F00303D84098E73A
S214000B402048FFF73FFF224BD3F8203103F00F0376
S214000B50F4E71C48FFF736FF1D4BD3F82031C3F3EC
S214000B600113EBE71948ACE71848FFF72BFF184BC3
S214000B70D3F82831F3E71748FFF7C6FE072808D052
S214000B80082809D004287FF473AFBDE81040FFF7AB
S214000B90B5BC114B18686CE7FFF774FC0C4BD3F828
S214000BA00031C3F3042303FB000062E7FFF76AFC8F
S214000BB001462046FFF7A2FEB1FBF0F059E700BF62
S214000BC006000E0002001E000500240003002000A0
S214000BD000400E40B800320038100020014B18804C
S214000BE0704700BF3C100020013810B5032812D80B
S214000BF0DFE800F0022E1220214AC1F30801D2F8E5
S214000C006838002BFBD11F4A136A23F4FF7323F0C6
S214000C1001031943116210BD194A01F07F01D2F891
S214000C206038002BFBD1174A136923F07F03194362
S214000C301161F0E7124A01F07F01D2F86438002B08
S214000C40FBD1104A936923F07F0319439161E2E7D1
S214000C500C4AD2F89030536A23F0300343F0100366
S214000C605362146B084BC1F3C31003300F2803EA1A
S214000C70040328BF0F20194341EA00711163CAE735
S214000C800020C84300400E4000F8FF0F104A536A89
S214000C9013F0300F18D0202913D0302914D0002993
S214000CA00C4B08BF4FF44003D2F8901033EA010112
S214000CB0FAD15B0246BFD2F8A000C0F38020012024
S214000CC070474FF40003EFE74FF44003ECE700BF34
S214000CD000400E40FF33E10702280AD129B1064B37
S214000CE04FF48060C3F8A800596612B10220FFF7DF
S214000CF0CDBF0120704700BF00400E400428F8B565
S214000D0045D8314B314F13F800C0314B1B5C0029DE
S214000D1043D0304C022834F8106039D17C6A14F085
S214000D20300F35D12C4CE46B7C6AE40705D57D6A20
S214000D3025F0300545F010057D62244C2666274CCC
S214000D4023449B001D68002DFCD002B36444A4001D
S214000D502368002BFCD0022819D1C1B11B4D696A4B
S214000D6011F0010116D001222021FFF7B5FFD5F8BA
S214000D709C70012200210220FFF7C0FFC7F30A0182
S214000D800220FFF731FF2E662368002BFCD0F8BD4B
S214000D900021D2E7FFF77AFFE9E7114931F8101092
S214000DA03966012101FA03F3D7F890101942FBD1F6
S214000DB0002AECD00124054A04FA0CF4D2F890304C
S214000DC02342FBD1E3E700BFAAD8010000400E4053
S214000DD0AFD80100B4D8010000300E408004F210F5
S214000DE0BED80100112838B50C4615D000F00F000B
S214000DF00138072869D8DFE800F02B0464686283AE
S214000E00688E5E4D013C092C5FD8DFE804F0775F02
S214000E10665E5E6D5E5E5E5C042912D1FFF76EFB59
S214000E200546A8B10021284600F0FAF9023C0A2C33
S214000E304BD8DFE804F03F3C30364A4A4A4A4A0F6D
S214000E404200052904D14E4B1D684E4B9D42E9D801
S214000E500025EBE70320052401221146FFF74EFF8D
S214000E60FFF762FC0DB1FFF771FC474B5C67FFF7BD
S214000E7033FB0446FFF706FBFFF710FCFFF774FC96
S214000E8001462046FFF786FCFDB928460121BDE84D
S214000E90384000F0C5B93D48FFF700FC0220044684
S214000EA0DAE73A48FFF7FAFB01240320D4E70120EB
S214000EB00324D1E700200424CEE70724D0E7344DEE
S214000EC0A0E7344D9EE704232B6038BD012211466F
S214000ED00020FFF713FF0223F6E701221146104613
S214000EE0FFF70CFF0123EFE7FFF7CCFAFFF7D6FB7F
S214000EF0294B0122C3F808260323E5E70023E3E78E
S214000F00072904D00929E0D11F4B012201E01E4B1E
S214000F1000221A67D9E74C1E072CD6D801A353F82F
S214000F2024F000BF770F0000CB0E0000CB0E0000B1
S214000F30690F0000CB0E0000CB0E00005B0F000018
S214000F40450F000003221049D1F85C3123F030032E
S214000F5043EA0213C1F85C31B7E7012211460420C8
S214000F60FFF7CCFE0122EEE7012211460220FFF732
S214000F70C5FE0222E7E70022E5E700BF80400E40FC
S214000F800C100020002D310100400E400148E80101
S214000F9088400E4084400E400010C84310B50446FA
S214000FA01120FFF7B1FC002101220220FFF7A6FE68
S214000FB0184A217C536A23F00103022908BF43F034
S214000FC001035362144B2178C3F8A014637AA188F6
S214000FD043EAC123D362136BA07A217A03F07F63BE
S214000FE00343E08843EAC02343EAC11303310F29D1
S214000FF028BF0F2143EA01731363A37B617B1B01A8
S21400100043EA0133E17B0B43217B43EA014353630D
S21400101010BD00BF00400E400000C84338B50E4D5E
S21400102001461120FFF770FCAA6B0C4B0C7813409E
S2140010301C434B7844EAC3248B7844EA0364CB7899
S21400104044EA0324AB6BA34205D0002101220846E4
S214001050FFF754FEAC6338BD00400E4080E4FFF856
S214001060EFF3108072B6704700B962B67047EFF3C0
S2140010701180602383F31188704780F311887047CE
S214001080034B5868C0F30800003818BF01207047AB
S21400109000ED00E0EFF31083DB0706D4EFF31180DA
S2140010A05F2894BF00200120704701207047000091
S2140010B0034BD86B80F04000C0F38010704700BF31
S2140010C000300E4042EA0323B3F5007F39D016D82D
S2140010D0B3F5807F31D007D85BB3012B1ED000223A
S2140010E0134603600A60704740F201129342F6D13D
S2140010F0184BD3F824321A0EC3F30743F1E7B3F5BF
S214001100407F22D040F2013293420ED040F20122BC
S2140011109342E4D10F4BD3F8283202E00D4BD3F8BC
S2140011202432C3F30722DBB2DBE70A4BD3F82832BC
S214001130E1E7084BD3F81C32F3E7064BD3F81C3232
S214001140D9E7044BD3F82032EBE7024BD3F8203232
S214001150D1E700BF0081E00F08B5FFF7A9FF20B177
S214001160024AD2F8C830002BFBD108BD0000C643A7
S2140011700378134A002B437870B514BF0426002664
S214001180002B8378946914BF02250025002B037971
S21400119024F03F0443EA0403C47814BF0821002166
S2140011A0012C08BF43F0010333432B430B439361E9
S2140011B01368417923F4403343EA0143136070BD5A
S2140011C000300E4070B504460E46FFF771FF10B3B0
S2140011D0FFF7C2FF104B5B68C3F301439C421AD073
S2140011E00E4BD3F80031FFF74DF9022C054602D11D
S2140011F02146FFF7CFFAC4F1020210239340064AB5
S21400120013610EB1FFF7A8FF2CB921462846BDE8AA
S2140012107040FFF7BFBA70BD00300E4000400E4071
S21400122013B50246FFF744FFC8B152B90D4B019102
S214001230D3F80041FFF726F9C4F30422019902FB14
S2140012400002094B1B7843B1084B9A4205D802208E
S21400125002B0BDE81040FFF7B5BF0020F8E702B0C7
S21400126010BD00BF00400E401E380020002D31018A
S214001270224B4AF6E85210B5596B5A639A6FD2075A
S214001280FCD41B6C13F003031EBF1D4A0124C2F8D6
S214001290B44A834204D110B9194BC3F8B40A10BD3E
S2140012A0032B00D09BB9431E012B10D8134A4FF4D2
S2140012B00023D362936FDB07FCD4136C23F0030385
S2140012C043F0010313640D4A536A1C03FCD50B4B11
S2140012D09A6FD207FCD41A6C22F0030202431A64F7
S2140012E09A6F12F00102FBD10038054C18BF01209E
S2140012F00129C4F8B40A08BF5A63D0E700300E408C
S2140013000000C6432DE9F04F002389B0CDE9023333
S214001310CDE90433CDE90633A0F5E163B3F5966F66
S21400132004460D46914604D90025284609B0BDE876
S214001330F08FB0F5E16F674B8CBF0122002240F0C2
S214001340BC80D3F81832C3F30721DBB207910493AD
S2140013504FF4167A4FF4966BDFF87C81D8F84C7011
S2140013600192C7F301773B4605A902A8FFF7AAFE3C
S214001370D8F8EC60019AC6F30126334606A903A8FE
S214001380FFF7A0FE049B0799A4EB0B0EA1EB030C42
S2140013900EFB0CFCBCFBFAF213EB020C2CBF012379
S2140013A000236145C0D3002BBED1069A0398131ABA
S2140013B00EFB03F3B3FBFAF3C0182CBF0123002384
S2140013C08242B1D3002BAFD1059B02995A1A0EFB6D
S2140013D002FEBEFBFAFA11EB0A012CBF4FF0010E1B
S2140013E04FF0000E8B429FD3BEF1000F9CD1B9F197
S2140013F0000F10D0D8F85C2022F4FE4222F0020241
S214001400B4F5E16F42EA0C2218BF4FF0020E42EA32
S2140014100E02C8F85C20002D4DD02E4B022FD3F8BC
S21400142030223ED0032F3FD0012F14BFD2B2C2F3DA
S2140014300722120312F4702F7FF476AF264FFB6E4E
S21400144023F470431A43234BFA66022ED3F8302255
S2140014502CD0032E2DD0012E14BFD2B2C2F30722F9
S214001460120312F4702F7FF45FAF1B4ED6F8EC30E9
S21400147023F470431A43C6F8EC20736E814238BFDB
S214001480014623F4FF73E72923F0010328BFE72171
S214001490B4F5E16F18BF43F0010343EA41037366F6
S2140014A043E7C2F30742C4E7120EC2E7C2F307429D
S2140014B0D6E7120ED4E7012537E7D3F81832190E0F
S2140014C0C3F30743079104934FF4966A4FF4E16B16
S2140014D042E700BF0081E00F00300E40304B1A6F2D
S2140014E0D96C11F0010F02F0060244D0002A42D057
S2140014F0132851D9143813288CBF102308232849E1
S214001500013BCA6C180322F47F4240EA03231343CC
S214001510CB64244BCA6C1B88C2F3032228330132E7
S21400152002EB820003EB5303B3FBF0F3C86C013B02
S214001530072B28BF072320F0EE6040EA036343F43E
S2140015408013CB64184BB3F90030002B12DB03F189
S2140015502800C0F34E030344500800EB4202B3FBDE
S214001560F2F20B6D072A28BF072223F0700343EA26
S21400157002120A657047D96C01F00101114304D1CB
S214001580092809D90A380928B6E7DB6C13F00103E5
S214001590B5D01AB92728AFE70423B0E70023AEE793
S2140015A000300E401A3800201C380020064A074B30
S2140015B0D3F88039136F23F007031843044B1067E2
S2140015C01888FFF78BBF00BF00300E400000C643F0
S2140015D018380020374A38B502239363936B03F01C
S2140015E00F03022B044602D00025284638BDE388A8
S2140015F08088B4F90C504A2B4FD9B3F5FA7F4ED3F6
S21400160040F6C3118B4294BF4FF000514FF040514B
S214001610D36C23F0405323F00103002DA8BF43F002
S21400162001030B43D364D2F8EC3043F44073C2F8A2
S214001630EC30214B1880D36E43F08073D3661F4B7B
S214001640D3F8800900B10420FFF7B0FF1C4B2189B6
S21400165019801C4BB4F90C20A0881A80FFF73EFFB7
S214001660A37BFBB1012B21D0012260881146FFF736
S21400167049FE05460028B7D00E4AD36B43F4806374
S214001680D3636078FFF7F4FDA37AA3F120025342F8
S21400169053410A4AC2F89437A7E70021B8E74FF04B
S2140016A08051B5E7034B084A9A65DDE7014B074AC8
S2140016B0FAE700BF00300E40183800200000C6438E
S2140016C01A3800201C38002077402057372110B7E2
S2140016D070B505460E461446FFF7C2FC296881EA37
S2140016E0040202EA06044C402C60BDE87040FFF796
S2140016F0BBBC00002DE9F04130260D469846464317
S21400170017464AB1184C01238B403444B8F1000FF9
S2140017101CD004F1C0642360072D4FF00F0118D8C9
S214001720AB00124807FA03F299403044FFF7D0FFA7
S21400173057B90D4A012101FA05F53244B8F1000FF8
S2140017400FD002F1C0621560BDE8F08104F180643C
S214001750E1E7A5F108039B00054807FA03F2994064
S214001760E3E702F18062EEE70CA0004004A0004030
S21400177008A00040054B5A685B68054B41F671327D
S2140017801A649A6822F001029A60704700300E4090
S21400179000000E40034B9A6822F001029A60002275
S2140017A01A64704700000E40094A0A4BD969C907F7
S2140017B005D512B96FF002007047013AF6E7002A25
S2140017C0F8D001221861DA60D86940F380007047CB
S2140017D08096980000000E4070B5C1B10E4A0023F6
S2140017E0082550F8234094610C4CD5600133D66927
S2140017F0F60705D514B96FF0020009E0013CF6E7DC
S214001800002CF8D0D469A40703D49942E9D100206B
S21400181070BD6FF00100FBE700000E408096980058
S2140018202DE9F8431C4B884641F671311D6C19644E
S2140018301A49074648684968996841F00101ADB2FF
S214001840996096084FF00009B14501D3002005E0E5
S21400185007EB89042046FFF7A7FF48B10E4B9A68AE
S21400186022F001029A600DB100221A64BDE8F883E6
S214001870C4F30A04C4F50064A408A6EB0901A14257
S21400188028BF21464046FFF7A7FF0028E6D1894437
S21400189008EB8108D8E700BF00000E4000300E407D
S2140018A0234B41F671311A6C10B5196421494C6806
S2140018B04968996841F00101996001211861D96071
S2140018C0D9694C0792B209D5996821F0010199604F
S2140018D00AB100221A644FF0FF3026E00221D960D8
S2140018E01549D869C00700D569B9D86910F0020053
S2140018F00BD0996821F0010199600AB100221A64A0
S2140019006FF0010011E00139EBE741B9986820F06B
S2140019100100986002B119646FF0020005E0996852
S21400192021F0010199600AB1186410BD1046FCE769
S21400193000000E4000300E4080969800FFF770BF03
S2140019408B784A789B0143EA82030A781343CA7865
S21400195043EA02130A7943EAC2234A7943EA023386
S2140019608A79043043EA42430001014A1350704723
S21400197000200440014B1860704700BF00008442FE
S214001980427801790378002A827870B514BF04265D
S2140019900026002AC27814BF10250025002A4279A6
S2140019A04FEA023242EA012242EA0302837914BF76
S2140019B020240024002BC37942EA034343EA0603AB
S2140019C0027A43EA050314BF4FF400410021234383
S2140019D0002A14BF4FF4003200220B431343014A7F
S2140019E0136070BD002004400D4AD2F8E430D2F8EF
S2140019F0E0109B0003F03C03C1F381110B4383709E
S214001A00D2F8E03003F03F034370D2F8E830D2F863
S214001A10EC2003F0F003C2F3031213430370704785
S214001A2000FF0FE070B5054616461C4619B9144867
S214001A30FFF70AF80146402C1BD003D8DCB1202C57
S214001A401BD070BD602CFCD1042303FB06F25608A5
S214001A5006EB4113B3FBF2F30A4A203B02EAC30348
S214001A602A6822F060022A602A6814432C606B61A0
S214001A70E7E70623E9E71023E7E70823E5E700BFE3
S214001A8040410500F8FF7F0038B50546144619B9F1
S214001A900548FEF7D9FF014601396400B1FBF4F1B1
S214001AA00902696138BD00BF40410500CB435B00B9
S214001AB003F00A03C360C1607047000040F6AA63E3
S214001AC0C36041F20502002303604260104A83604F
S214001AD04361C3648264036643678367C3670D4BD1
S214001AE00D4A984209D0904207D003F50063984209
S214001AF003D003F58063984201D1002303650023D9
S214001B009042836502D0054A904200D1C365704773
S214001B10F9FF01000000014000040140000C0140F4
S214001B2038B5FFF7CBFF8B7C04460D461BB1036828
S214001B3043F080430360EB7C1BB12B7D43F08003B6
S214001B40A3652A8A6B7B1343EA89134363602B7B66
S214001B50D5E901122046FFF765FF6B7D1BB12368B0
S214001B6043F480332360AB7D1BB1236843F400430A
S214001B702360EB7D2A7E1B07120502F4E00203F0C9
S214001B80E04313432366636F23F030036367626F9B
S214001B906B7E134363672B78E36038BD38B5FFF779
S214001BA08DFF0D460A8A897B0368002942F00102F0
S214001BB014BF4FF48061002113430B432A7D03605A
S214001BC00368002A14BF4FF000520022134303603C
S214001BD0AB7C04461BB1EB7C43F0800383652B7B18
S214001BE043F480536360D5E901122046FFF74CFFAB
S214001BF06B7B0BB11023E3606B7D1BB1236843F452
S214001C0080332360AB7D1BB1236843F4004323601D
S214001C10EB7D2A7E1B07120503F0E04302F4E00288
S214001C20134323662B78E36038BD03691B06FCD597
S214001C30C069C0B2704703695A06FCD541630369A0
S214001C409B06FCD5C069C0B2704703695B06FCD52D
S214001C50416370472DE9F047374FDDE908840646B3
S214001C60154699468A4641B9082323704FF4D9632E
S214001C70A360324B6760E360FEE75AB1531E13421F
S214001C8008D00823237040F2CB63A3602B4B676019
S214001C90E360FEE7FFF7EBF9002D08BF04254D458E
S214001CA038BF4D46D6F808E06B1E13EA0E0FC5F196
S214001CB0000202EA0E0208BF0025154409F1FF33B0
S214001CC0AA4413EA0A0FC9F1000202EA0A0208BF90
S214001CD04FF0000902EB090372680132A2EB0E0115
S214001CE0A3EB0E0E7145844615491AD2B8F1000FC3
S214001CF002D09B1AC8F80030162540F22273C4E9B9
S214001D000231257067606046FFF7B7F940F2D76387
S214001D10A3600A4B25706760E36000252846BDE88F
S214001D20F087B360002323704FF4E563C4E9023103
S214001D306760FFF7A2F9F1E7F0D8010048D9010083
S214001D4030D9010030B50C4685B011461D461BB98A
S214001D50039200F019F803990648019500230093B2
S214001D6004220123002C18BF2046FFF773FF05B09E
S214001D7030BD00BF40100020024B00221A6002F067
S214001D8029BF00BF205C0020FEE70000014B186062
S214001D90704700BF205C00201FB5104B1B78012B3E
S214001DA007D1FFF76DF9B0B94FF0FF3005B05DF819
S214001DB004FB684600F00CFC9DF800100029F3D1E7
S214001DC001206A4601F07EF89DF80000003818BF32
S214001DD001204042EAE76FF00500E7E78860002050
S214001DE0084B187801280AD1074B1B78012B07D11E
S214001DF0064B1B78002B14BF0320022070470020E0
S214001E00704700BF6A5D002088600020896000205F
S214001E101FB5FFF735F948B9074B1B78012B02D0E1
S214001E20684600F0E1FA4FF0FF3001E06FF0050081
S214001E3005B05DF804FB00BF886000201FB5FFF703
S214001E401FF970B9094B1B7873B9684600F088FA19
S214001E509DF80000003818BF0120404205B05DF82C
S214001E6004FB6FF00500F9E70120F7E78960002022
S214001E7030B585B00546FFF703F9044688B9002D4E
S214001E8068460ADD00F06CFA01209DF80030002B51
S214001E9018BF4FF0FF3005B030BD00F03FFF2046C2
S214001EA0F3E76FF00500F6E730B585B00546FFF7B7
S214001EB0E7F818B10024204605B030BDD5B92C206F
S214001EC013F00CFD04460028F4D00123154980F8D1
S214001ED028306B460022204601F090FB9DF800302B
S214001EE0002BE8D094F82830012BE3D1204613F0DD
S214001EF0FDFCDFE7AC6874B92C2013F0EFFC044659
S214001F000028D7D0012384F828302968054B0029FB
S214001F1008BF1946DDE7EB682B2BCBD914F003037B
S214001F20F1D0C7E75DD90100F0B50F4685B006468B
S214001F3088B300292FDBFFF79AF8346AB5683C436C
S214001F4085B9FFF79AF86B462A463946304601F0BF
S214001F50CBFB9DF80030002B18BF6FF00204204624
S214001F6005B0F0BDB5F89430DA0505D503F00F03DB
S214001F70042B03D0082B09D06D6AE1E7D5F88C3026
S214001F8033EA0402F8D124EA0304F5E7D5F88C30E6
S214001F902340F1D0F7E76FF00304E0E71FB568B120
S214001FA06B460122046A01F09FFB9DF80030002B6F
S214001FB018BF4FF0FF34204604B010BD6FF0030486
S214001FC0F9E72DE9F0410F4688B0164698460546D3
S214001FD020B96FF0030008B0BDE8F0810029F8DBF7
S214001FE0B3F1FF3F28D1FFF74BF804460028F0D1A5
S214001FF08046F20754BF44F0080444F00404B307D4
S21400200004AB2E6A019358BF44F4807403AB00936C
S214002010424623463946284601F062F99DF81030BC
S214002020212B40EA060022D010D8002BD3D01D2B3F
S21400203018D04FF0FF30CEE72BB1FFF721F804465B
S2140020400028D6D0C5E74FF40044D2E7222B0BD0A9
S2140020502D2B0CD0312B18BF4FF0FF3008BF6FF080
S2140020600200B8E70028F9E76FF00100B3E76FF069
S2140020700200B0E730B585B00546FFF701F818B1A5
S2140020800024204605B030BDC5B9342013F026FC28
S21400209004460028F4D00123194980F830306A46F7
S2140020A0204601F045FD9DF80030FBB194F8303035
S2140020B0012BE5D1204613F019FCE1E7AC6874B9B2
S2140020C0342013F00BFC04460028D9D0012384F8F2
S2140020D0303029680A4B002908BF1946DFE7EB684D
S2140020E0332BCDD914F00303F1D0C9E735B16B68B3
S2140020F0DB0703D5012384F83130C2E70023FAE773
S214002100B6EC010030B589B005460C46FEF7B8FFC0
S214002110024618BB2DB3B4B1631C00D1044604AB11
S2140021200093214603AB284601F0C2FB9DF8103011
S214002130222B19D0232B09D0002B14BF6FF00200DE
S214002140002009B030BD4FF40042E8E795F8313082
S214002150002B14BF00206FF00200F2E76FF00500BE
S214002160EFE76FF00300ECE76FF00100E9E71FB55B
S2140021700446FEF785FF014670B984B120466A46DC
S21400218001F006FE9DF8000020B1232814BF6FF072
S2140021900200002004B010BD6FF00500FAE76FF0F3
S2140021A00300F7E730B585B00546FEF769FF88B946
S2140021B0A5B16A460121284601F032FD9DF800408F
S2140021C07CB995F83030012B02D1284613F08EFBEF
S2140021D0204601E06FF0050005B030BD6FF003004B
S2140021E0FAE76FF00200F7E72DE9F04F8FB081466F
S2140021F08A461646FEF744FF08B1002440E0B9F1CF
S214002200000FFAD0002E3FD14FF49C7013F066FBFF
S21400221004460028F1D0012680F830614FF4806033
S21400222013F05CFB05460028E7D0434F84F8316185
S2140022304FF480681F260DF1280B00223F495B46AD
S21400224004F1D80001F0DAF99DF82820002A52D1CE
S2140022500723CDE906233A4BCDF820B003EA9803CE
S214002260CDE90223CDE904225346CDE900654A466E
S2140022703946204602F062F99DF82830002B3AD104
S21400228020460FB0BDE8F08FB468E4B94FF49C70F8
S21400229013F024FB04460028AFD0012384F8303125
S2140022A0D6F81480B8F1000F2DD14FF4806013F0EB
S2140022B015FB054678B994F83031012B9DD12046A0
S2140022C013F014FB99E7F368B3F59C7F95D314F0ED
S2140022D00303E3D091E7012384F831314FF480689B
S2140022E03768154BB669002F08BF1F46FEB1731C32
S2140022F01FD0372E17DD94F83131012BDBD128465D
S21400230013F0F4FAD7E735694DB9404613F0E6FA0C
S21400231005460028CFD0012384F83131E0E715F0D8
S2140023200703F9D0C7E7C6F13706F6B283E71F26DC
S21400233081E740267FE700BF68D9010072D9010017
S214002340FEFFFF3F034B1B78012B06BF024B1868AE
S21400235000207047886000208061002070470000E1
S2140023602DE9F041044608B9FFF70EFDFEF788FE9A
S214002370194E1A4D074638B12023237040F22133F8
S214002380C4E902356660FEE7154B1B78012B08D0C2
S21400239002232370666040F22533C4E90235BDE8A7
S2140023A0F081DFF8408098F80030F92B05D91E231D
S2140023B02370666040F22A33EFE7FEF758FE98F87F
S2140023C00030013388F80030FEF757FE277066604D
S2140023D040F23533E1E700BF84D9010039DA010065
S2140023E0886000208960002070B5044608B9FFF7B1
S2140023F0CBFC264B1E78012E09D013232370244BCA
S214002400636040F2FE33A360224BE360FEE7224B9C
S2140024101B88012B09D8092323701D4B636040F2EB
S2140024200943A3601B4BE360FEE71C4D2B784BB1C2
S2140024301F232370164B636040F20C43A360154BBA
S214002440E360FEE7FEF726FE48B11F232370104B1D
S214002450636040F20F43A3600E4BE360FEE701F0BB
S21400246097FD0F4B0F4A18700F4B2E7018700C23E9
S21400247058430E4B1B5813600D4A136001F048FE7C
S21400248002F0D2FBBDE87040FFF77EBC6A5D00201C
S21400249084D901000EDA01009061002088600020D7
S2140024A07F5D0020846100207E5D0020885D002026
S2140024B08061002030B14368C1F8D4308368DB689F
S2140024C0C361704791F83030022B03D0072B05D03C
S2140024D0034B00E0034BC1F8D4307047024BFAE7D9
S2140024E018DE0100C0D90100C7D90100044BC1F8AD
S2140024F0D43018B1826802B1D368C361704700BF98
S21400250018DE01000023C0E900330381704703682A
S21400251010B533B901220281C1E909330160416077
S2140025201CE0028991F833400132028193F833208F
S214002530A2420CD85B6A002BF8D14B6243688B62D0
S2140025405962ECE7C1E909325162996206E09A6A7B
S214002550002AF7D1C1E909329962016010BDC36A49
S2140025605BB19A68526A4AB9C3E902221A8A013AEA
S2140025701A820023C0E90933C3627047D0E90921F3
S21400258011B991629A60F1E74A620AB9D960EDE73B
S2140025909162EBE738B5C56AAB685B6A4BB1FFF78B
S2140025A0DEFFC562014605F10800BDE83840FFF7CA
S2140025B0AEBF38BD054B40220021013AC3E90011E9
S2140025C0198103F10C03F8D1704700BF885D002025
S2140025D070B5044608B9FFF7D7FB864D6A68D2B1D6
S2140025E02B68854E4BB92346296B84489200FFF72B
S2140025F0A9FB306023780BB170BD3360804B326826
S2140026001A60804A6B6813607F49804A9B0013609B
S2140026100A6813440B602A89B2B12346296B7C48AA
S2140026201201FFF78FFB7B4B18602378002BE3D15A
S214002630794B7A4A18602B8913807349784A1B01B4
S21400264013600A6813440B606A69002A27D02B6956
S214002650744E002B36D12346296B73489200FFF741
S21400266071FB30602378002BC6D1704B2A7E1A701F
S2140026706F4BEA691A606F4B32681A606B69EA68DA
S21400268064215A43B2FBF1F26B490A606B4A5E4919
S21400269013606B4A9B0013600A6813440B60694E14
S2140026A06B6B336002F074FB02F0B8FE054658B15F
S2140026B001232370644B63604FF4DA73A360634BAB
S2140026C0E36099E73360D0E702F08EFF3668604B30
S2140026D0B0420246186009D2092323705A4B636041
S2140026E04FF4DD73A360594BE360FEE770D02B46D2
S2140026F00020012112F002FF7043564BB6F57A7F98
S214002700186008D9324600230020012112F0F6FE98
S2140027104FF47A754543504B504A1D6000231370A2
S2140027204F4A13704F4A13604F4A13604F4A137054
S2140027304F4A13704F4A2046137002F03FF90A239F
S214002740B0FBF3F04C4B1860217800297FF454AFAF
S2140027502C4B1B68002B3DD1484B00251D60484B79
S2140027601D60484B1D60484B1D60484B1D60484B24
S2140027701D7001F005FCFFF71DFF464B1D60464B24
S2140027801D80264B1B88002B2DD1444A0023136046
S214002790434A1380434A1360434A1380434A1360F4
S2140027A0434A2046138001F08FFE2378002B7FF4E7
S2140027B023AF204601F078FC2378002B7FF41CAF73
S2140027C000F036FCFFF7CAFD3A4B01221A7013E7F9
S2140027D0284692E70A4A1268002ABDD0013B42F812
S2140027E0041BFBD1B8E7204601F02CF82378002B19
S2140027F0CBD001E754100020285C0020D0D901007F
S2140028002C5C0020305C0020245C0020345C00201F
S214002810E3D90100385C00203C5C0020405C0020CE
S214002820445C0020505C0020F5D90100485C002084
S2140028304C5C0020545C0020585C00205C5C00204F
S214002840605C0020645C002084D9010045DA010049
S214002850905C00206C5C0020685C00208860002093
S2140028608960002080610020846100207E5D002059
S2140028707F5D0020906000208C6000209861002022
S2140028809C610020A061002094610020A4610020CB
S21400289092610020645D0020685D0020785D002065
S2140028A07C5D0020805D0020845D00209460002018
S2140028B0986000206A5D002090F833300B490C22A7
S2140028C0534330B5CA58CC1832B901252581C0E922
S2140028D00422C850606030BD25890135258100245A
S2140028E0026144615061C850F5E700BF885D002072
S2140028F090F833200B490C235A4330B58C588B186C
S21400290034B901251D81C0E904448850586030BDA3
S2140029101A8901321A81002202615A6842611061E6
S214002920F4E700BF885D002010B5044690F8330039
S21400293001F03EFB074B94F833201B789A42204662
S21400294003D1BDE81040FFF7D3BFBDE81040FFF746
S214002950B3BF00BF7E5D002038B590F83230044625
S2140029601546072B39D8DFE803F01F1F04041F1F86
S214002970202000238367A0F87C304164FFF7EFFD3A
S21400298090F83230032B05D1543002F081FD08B1A7
S214002990FFF7FAF92046FFF7C7FF002384F8323026
S2140029A084F8315084F8303038BD00238367A0F8AF
S2140029B07C304164FFF7D3FD90F83230072B05D109
S2140029C0543002F065FD08B1FFF7DEF9042384F801
S2140029D0323084F831500023E4E7BDE83840FFF792
S2140029E0D3B938B50C4691F8321007290546049835
S2140029F007D80239052906D8DFE801F006060505DE
S214002A002525FF293AD138BDA267A4F87C3060643A
S214002A1015B12046FFF7A3FD21462846FFF766FDC1
S214002A2094F83230032B06D104F1540002F030FD46
S214002A3008B1FFF7A9F92046FFF776FF00232386A3
S214002A4084F83230DFE7A267A4F87C30606415B102
S214002A502046FFF784FD21462846FFF747FD94F8F9
S214002A603230072B06D104F1540002F011FD08B1F4
S214002A70FFF78AF9002323860423E1E7BDE8384000
S214002A80FFF782B9D0E90032934210B50FD01C6927
S214002A900021A24215BF6161C3E90412C3E9041212
S214002AA0C2E9043116BF136102600460436010BDC2
S214002AB070B50446D4E9043590F83300104A0C216A
S214002AC09DB953B94143551853502B816B6001F0A3
S214002AD085FA0023C4E9043370BD484316183189CB
S214002AE0013931815D611350F3E701FB0022118942
S214002AF0013911812B610BB95560EAE75D61E8E7A2
S214002B00885D002013B5044670B1084B1B78012B76
S214002B100AD10023CDE90033054A416F0346054834
S214002B2002F0FAFC044B1C6002B010BD906000205E
S214002B30B92D0000745C0020705C0020F8B50446D7
S214002B40A8B1114B1B78012B11D1056F0F4E7DB923
S214002B500F4B1F6802F048FD32682B46511E0D468B
S214002B601946E7FB0051284612F0C8FC6067F8BD1E
S214002B7002F03AFD32680023511E0E461946E5FB68
S214002B8000613046F0E700BF90600020645C0020E3
S214002B908C6000202DE9F743564B1B78012B00D0A4
S214002BA0FEE7554B93F80080B8F1000F40F08880A0
S214002BB0FEF75DFA514F524C97F80090514D06467D
S214002BC001F0E6F94028034638707CD00C20DFF888
S214002BD044814343B9F1400F58F80330236003D1D2
S214002BE001F088FBAFF3008020682A68464B9042CD
S214002BF01B780DD133B1436F0BB9FFF79FFF2068E9
S214002C00FFF780FF304603B0BDE8F043FEF735BA65
S214002C101BB3DFF80491D9F800305B6FEBB13B488B
S214002C2001A902F09DFC30B9D9F80030019A374866
S214002C305A6702F02DFCD9F800305A6F6AB993F83B
S214002C40330000EB400008EB8000FFF71BFF3B78EB
S214002C500C22534358F8033023602268D2F8A83079
S214002C600133C2F8A8302A4A1368013313603B7850
S214002C70402B33D02B682268934215D0A3B101F0C5
S214002C80C1FF2B68D3F8B03098421FD301F0BAFFCB
S214002C902B68D3F8B030C01A2A68D2F8B430C2F81D
S214002CA0AC001844C2F8B400246801F0ABFFC4F8C6
S214002CB0B00001F0F8FF3046FEF7DFF9BFF36F8F84
S214002CC003B0BDE8F083C4F80080CCE701F09AFFBB
S214002CD02B68D3F8B020D2431044DDE701F002FBA6
S214002CE02C681CB101F08EFFC4F8B000AFF3008072
S214002CF0DFE700BF88600020896000207F5D00203D
S214002D00846100208061002090600020745C0020B8
S214002D1088610020885D0020705C00202DE9F0416D
S214002D20044608B9FFF730F8FEF7AAF91E4F1F4E03
S214002D3038B12023237040F24D33C4E90236676071
S214002D40FEE71B4B1B78012B08D00223237067601D
S214002D5040F25133C4E90236BDE8F081DFF8548012
S214002D6098F800302BB91F232370676040F2563363
S214002D70F0E7FEF77CF998F80050013DEDB288F8D0
S214002D8000503DB1FEF779F92D232370676040F2BD
S214002D905E33DFE7FEF771F9FFF7FCFE257067602C
S214002DA04FF45A73D6E700BF84D901002BDA01002E
S214002DB0886000208960002038B50E4B1B78012BF8
S214002DC00D4616D1FEF753F900236B670A4B1B68B6
S214002DD093F833300446094803EB430300EB8300C3
S214002DE0FFF750FE2046FEF748F9BDE83840FFF7EB
S214002DF0D1BE38BD90600020705C0020885D002049
S214002E00F8B50C46FEF733F994F83230013B074626
S214002E10062B3FD8DFE803F04B3E043E523E04004C
S214002E2094F83030042B08BFE36A4FF0000608BF62
S214002E305D6AA667A4F87C6018BF354601F0E2FE1E
S214002E4060642046FFF78BFB94F83230032B28D1C2
S214002E50FFF76AFD84F832604FF440732386CDB1E5
S214002E6095F8333095F834209A4213D094F83320EE
S214002E709A420FD1284600F0C5FE95F834308342BA
S214002E8028BF0346D9B295F833308B4202D0284685
S214002E9001F056FC3846FEF7F0F8BDE8F840FFF7BC
S214002EA079BE072B04BF042384F83230D4E700230E
S214002EB084F832302046FFF737FDEBE7042384F82A
S214002EC03230E7E72DE9F04105460E4614460AB9CA
S214002ED0FEF75AFF002323701E4B636040F28533D3
S214002EE0A3601D4BE360FEF7C2F8DFF8808007465C
S214002EF0E6B1C8F80060194B012D1A781FD0012AD8
S214002F000FD1174C17482168002574311D7002F048
S214002F1027FB08B123685D67124802F0B9FA002360
S214002F2023603846BDE8F041FEF7A7B8204601F01A
S214002F3045FD0A23B0FBF3F0C8F80000DBE7002AE3
S214002F40EFD1094C1D702068FFF7F8FD2068FFF7E9
S214002F50D9FDE6E784D9010016DA0100906000206A
S214002F60705C0020745C0020806100208C60002073
S214002F70F7B504460D4611B302F036FB114B1A683E
S214002F800026571E46F1FF31E5FB007133463846F2
S214002F9012F0B4FACDE9006601460B4A234604F166
S214002FA0540002F0B9FA08B1FEF7EEFE03232046FD
S214002FB084F8323003B0BDE8F040FFF779BD022355
S214002FC0F5E700BF645C0020012E000037B5144D05
S214002FD00B4611462A6882F83030002382F83130DA
S214002FE0104A127804463AB10F4A10481268019106
S214002FF0536702F04DFA01992868FFF7B9FF64B1EC
S214003000296804F10800CC62FFF781FA2968204697
S21400301003B0BDE83040FFF74DBA2B68DC62F5E739
S2140030208061002090600020705C0020745C0020AE
S214003030754B1B7882B0DBB28DF80530734B1B687E
S214003040DBB28DF80730724B1B78DBB28DF805309B
S214003050704B1B78DBB28DF805306F4B1B68DBB20C
S2140030608DF807306D4B1B6ADBB28DF807306C4B62
S2140030701B78DBB28DF805306A4B1B78DBB28DF817
S2140030800530694B1B88DBB28DF80630674B1B8812
S214003090DBB28DF80630664B1B78DBB28DF8053058
S2140030A0644B1B88DBB28DF80630634B1B88DBB2A3
S2140030B08DF80630614B1B88DBB28DF80630604B0E
S2140030C093F82830DBB28DF807305E4B1B78DBB206
S2140030D08DF805305C4B1B88DBB28DF806305B4BF9
S2140030E01B88DBB28DF80630594B1B88DBB28DF897
S2140030F00630584B1B88DBB28DF80630564B1B88C3
S214003100DBB28DF80630554B1B88DBB28DF80630E7
S214003110534B5B8DDBB28DF80730524B1B78DBB21E
S2140031208DF80530504B1B88DBB28DF806304F4BC0
S2140031301B78DBB28DF806304D4B1B6ADBB28DF880
S21400314007304C4B1B78DBB28DF805304A4B1B889A
S214003150DBB28DF80630494B1B88DBB28DF80630A3
S214003160474B1B68DBB28DF80730464B1B78DBB24B
S2140031708DF80630444B1B78DBB28DF80530434B98
S2140031801B78DBB28DF80530414B1B78DBB28DF82F
S2140031900530404B1B78DBB28DF805303E4B1B7874
S2140031A0DBB28DF805303D4B1B78DBB28DF8053071
S2140031B03B4B1B88DBB28DF806303A4B1B78DBB2F4
S2140031C08DF80530384B1B88DBB28DF80630374B50
S2140031D01B88DBB28DF80630354B1B78DBB28DF8DA
S2140031E00530344B1B88DBB28DF80630324B1B881B
S2140031F0DBB28DF806309DF805309DF806309DF858
S214003200073002B0704700BF9410002090100020D6
S2140032108D1000208C10002098100020945C002058
S2140032209C100020BC5C00209E100020A0100020F7
S214003230A2100020A8100020A4100020A610002035
S214003240C05C0020AA100020AC100020AE100020A9
S214003250B0100020B2100020B4100020B6100020DD
S214003260F05C0020B8100020BA100020C410002027
S214003270205D0020C5100020C6100020BC100020D5
S214003280C0100020CA100020C8100020C91000205E
S214003290CE100020CF100020485D0020D010002067
S2140032A0D2100020D4100020CC100020D610002011
S2140032B0495D00204A5D0020D810002010B4074C5D
S2140032C02468A4F894200022C4F88C10C4F8902037
S2140032D001215DF8044B1A46FFF778BE8061002096
S2140032E02DE9F04F2DED028B83B0DDE90E6408EE7C
S2140032F0102A05468A4698460CB9FEF745FD0FFA91
S21400330088F3002B0093C0F25081FDF7B9FE002829
S21400331000F04681202323709C4B636040F23513F7
S214003320A3609B4BE360FEE71F232370974B63600D
S21400333040F23913A360964BE360FEE70223237046
S214003340924B63604FF49F73A360914BE3604FF022
S214003350000B57E047F6FF6308EA0303581E0128F0
S2140033600DD9042B0BD0082B09D008232370874BCC
S21400337063604FF4A373A360854BE360FEE72868A1
S214003380844B984209D00C232370804B63604FF423
S214003390AC73A3607E4BE360FEE708F48073019392
S2140033A00EB100233360FDF762FE08F00F09B9F195
S2140033B0040F074607D0B9F1080F42D0FDF75DFEAF
S2140033C0FEF7E2FC7AE02A6A3AEA020302EA0A0B0D
S2140033D01ED1019B13B122EA0B022A626E4A1268C2
S2140033E00AB1C2F890B00EB16A6A32603846FDF78C
S2140033F044FE00222270654A62604FF4BB72A260EF
S214003400634AE260584603B0BDEC028BBDE8F08F1D
S214003410009B002B08DAFDF730FE1D2323705B4B64
S214003420636040F27D138FE75C4B1B78002B3BD02C
S214003430FDF723FE2D232370544B63604FF4C273B5
S21400344082E72A6A12EA0A0B16D0019B13B122EA17
S2140034500B022A62504A12680AB1C2F890B00EB146
S2140034606A6A32603846FDF708FE00222270474A34
S21400347062604FF4D172C2E7009B002B08DAFDF7BA
S214003480FCFD1D222270414A626040F2A912B6E796
S214003490424B1B7843B1FDF7F0FD2D2222703B4ACC
S2140034A062604FF4D872AAE7284618EE103A4246F1
S2140034B05146FFF703FF3846FDF7DFFD364FFFF7AF
S2140034C069FBFDF7D4FD3B6893F83120032A4BD8FF
S2140034D0DFE802F002263E320EB15B6C336000235A
S2140034E023702A4B636040F22D23A360284BE360D1
S2140034F03B68D3F890B0019B4BB1B9F1040F02D0F2
S214003500B9F1080F3AD12A6A22EA0B022A62FDF7BD
S214003510B4FD002222701D4A626040F26F226EE700
S2140035200EB15B6C3360FDF7A8FD21232370174BAB
S21400353063604FF40E7307E70EB100233360FDF7A8
S2140035409CFD22232370114B636040F24123FBE66F
S2140035500EB15B6C3360FDF790FD312323700B4B8F
S21400356063604FF41373EFE60090FDF786FDFEF7F9
S2140035700BFC23780098002BBAD0E8E60090FDF705
S2140035807CFDFEF701FC0098C1E700BF4CDA0100A5
S21400359093DA0100464C4147806100208960002094
S2140035A0FDF778FD00287FF4BFAE094B1B78012B92
S2140035B07FF4C4AE002D7FF4CDAE0A232370054BF6
S2140035C0636040F24313A360034BE360FEE700BF73
S2140035D0886000204CDA010093DA0100054B064AA9
S2140035E0C36100234361136883610BB910607047A1
S2140035F05861FBE718DE0100645D00202DE9F84FF6
S21400360005468B4692461C460BB9FEF7BDFBFDF7FA
S21400361037FDDFF87C801B4F064638B12023237029
S2140036205523C4E90237C4F80480FEE73DB90A23EF
S21400363023705823C4E90237C4F80480FEE7FDF778
S21400364016FD282231468146284612F08FF90E4B89
S214003650C5F820A0C5E9003B05F10800FEF752FFBB
S2140036602846FFF7BBFF094A1388484601331380F4
S214003670FDF703FD70232670C4E90237C4F8048002
S214003680BDE8F88F9EDA0100464C4147685D002091
S2140036904CDA010010B50023038690F83230C0F8EB
S2140036A0901004464264072B1AD8DFE803F0121283
S2140036B0040412121717032B05D1543001F0E8FE4C
S2140036C008B1FEF761FB2046FFF72EF9002384F8C9
S2140036D032302046BDE81040FEF741BF0423F6E72F
S2140036E0FEF752FBF5E700002DE9F84305460F46C6
S2140036F016461C460BB9FEF747FB4E4B1B78012BB4
S2140037000CD0022323704C4B636040F23233A3602C
S2140037104A4BE36000252846BDE8F8834DB90A23E6
S2140037202370454B636040F23733A360434BE3603E
S214003730FEE747F6FE731E4209D0082323703E4B71
S214003740636040F23A33A3603C4BE360FEE72A68CE
S2140037503B4B9A4209D00C232370374B63604FF4DF
S2140037605073A360354BE360FEE701F04BFA8146E9
S214003770FDF77DFCB6F5004F80460BD048F20103FE
S2140037809E421BD036B1012E18D0FDF776FCFEF710
S214003790FBFA02E0296A39432962AF68C5F824902B
S2140037A087B94046FDF769FC234B636040F26233FD
S2140037B02770A360214B2D6AE360ACE7296A21EAF3
S2140037C00701E9E738467F6AB0F8943003F00F0344
S2140037D0042B07D0082B0FD04046FDF74EFCFEF713
S2140037E0D3FA0EE0D0F88C102B6A31EA030308D126
S2140037F04A46FFF74FFF04E0296AD0F88C3019409C
S214003800F6D1002FDED14046FDF737FC330401D455
S214003810FFF7C0F9FDF72BFC2D6AFDF72EFC002301
S2140038202370054B636040F2A333A360034BE36051
S21400383071E700BF886000204CDA010088DA0100DA
S214003840464C4147154BF0B51C68154B1E880025A5
S214003850721E04F1100192B22B46AFB2BA4213D8D0
S214003860110104EB0212635053601381D3600D4ABA
S2140038701381D3809680146003700B4B43605D23E6
S21400388083600A4BC360F0BD41E9041321F8083C8D
S21400389041F8043C01351031DFE700BF3C5C0020F6
S2140038A0405C00206C5D0020ABDA0100E6DA010027
S2140038B02DE9F74F0C9C0646894617461D460CB95F
S2140038C0FEF762FAFDF7DCFB48B120232370814B3C
S2140038D0636040F23313A3607F4BE360FEE74EB9AC
S2140038E00A2323707B4B63604FF49B73A3607A4B71
S2140038F0E360FEE7C7F30E034BB108232370754B56
S214003900636040F23913A360734BE360FEE73268EE
S214003910724B9A4209D00C2323706E4B636040F2C0
S2140039203D13A3606C4BE360FEE73FB2002F0CDB59
S214003930FDF7B0FB48B11F232370664B63604FF45E
S214003940A073A360644BE360FEE7654B93F800B09A
S214003950BBF1010F1CD1FDF78AFB96F82830DFF883
S21400396088A18046F3B9DAF80030736286F828B08A
S2140039700DB1F26A2A609A6B326240469E63FDF78A
S2140039807CFB00232370534B63604FF4AA7305E05F
S214003990022323704F4B636040F24513A3604E4BE7
S2140039A0E36013E0726ADAF800108A4221D1FF2B36
S2140039B0DFF82091484F0CD1FDF75FFB1E232370E4
S2140039C0C4F8049040F25D13C4E9023703B0BDE8C2
S2140039D0F08F013386F828300DB1F36A2B6040462D
S2140039E0FDF74BFB23232370C4F8049040F26913C1
S2140039F0EAE7002F0BDAFDF740FB0DB100232B6042
S214003A001D232370334B63604FF4BB73C6E7354BFF
S214003A101B785BB1FDF731FB0DB100232B602D2326
S214003A2023702C4B63604FF4C173B7E791F83310E3
S214003A3092F833308B4202D9104600F081FE4A4697
S214003A4004213046FFF7C2FA4046FDF716FBFFF7A3
S214003A50A1F8FDF70CFBDAF8003093F83120032AC2
S214003A6032D8DFE802F00213271D0DB15B6C2B6025
S214003A7000232370174B63604FF4D073A360164B7C
S214003A80E36003B0BDE8F04FFDF7F7BA0DB15B6C2D
S214003A902B60212323700F4B63604FF4D573EDE743
S214003AA00DB100232B60222323700A4B63604FF472
S214003AB0DA73E3E70DB15B6C2B6031232370054BA3
S214003AC063604FF4DF73D9E70190FEF75DF9019864
S214003AD0D7E700BFF5DA010045DB01004D55545825
S214003AE0886000208960002080610020064B03600B
S214003AF0064B43600023C0E9083380F82830C362D1
S214003B000830FEF7FFBC00BF4E4F4E4532DB0100CB
S214003B10054B064AC36100234361136883610BB9F2
S214003B20106070475861FBE718DE0100785D0020E2
S214003B302DE9F04705468A4614460AB9FEF724F9E9
S214003B40FDF79EFADFF878801A4F064638B1202334
S214003B5023705223C4E90237C4F80480FEE73DB957
S214003B600A2323705523C4E90237C4F80480FEE70D
S214003B70FDF77DFA302231468146284611F0F6FEE2
S214003B800D4B05F10800C5E9003AFEF7BBFC2846D8
S214003B90FFF7BEFF094A1388484601331380FDF736
S214003BA06CFA6C232670C4E90237C4F80480BDE8BA
S214003BB0F08700BF5CDB01004D5554587C5D00204B
S214003BC0F5DA0100D0E9052332B907490B6003B1E5
S214003BD05A6100238361704793610BB94361704754
S214003BE05A6100238361F9E7785D0020836B00F15A
S214003BF038028B42186A01D11060704703F1200228
S214003C000346F6E7836B3F2003B970479A6822B1F4
S214003C1092F83320904228BF10461B6AF4E7000053
S214003C202DE9F84305460F4614460AB9FEF7ACF8E8
S214003C30FDF726FA064640B1202323704F4B6360FB
S214003C40A523A3604E4BE360FEE745B90A23237025
S214003C504A4B6360A823A360494BE360FEE72A68EB
S214003C60484B9A4208D00C232370444B6360AB2326
S214003C70A360434BE360FEE7434B1B78012B0BD05E
S214003C80022323703D4B6360AF23A3603C4BE3608D
S214003C9007463846BDE8F883FDF7E9F9804667B180
S214003CA0012F31D0FDF7E9F908232370334B636009
S214003CB0F323A360324BE360FEE7AB68DFF8BC900B
S214003CC02F4ECBB92846FFF77DFF304A686A138827
S214003CD0013B138010B12946FFF788FF2846FFF7FF
S214003CE005FF4046FDF7C9F900232370C4F8049089
S214003CF0C323C4E90236CCE7FDF7BFF92E232370B1
S214003D00C4F80490C623F4E700F07CFF8146A86858
S214003D10B7B2013668BB2846FFF754FF1B4A6E6AE7
S214003D201388013B13809EB129463046FFF75EFF9D
S214003D3096F8341096F833308B4209D03046FFF7A9
S214003D4061FF814228BF0146C9B2304600F0F8FC48
S214003D502846FFF7CBFE4046FDF78FF9FEF71AFF21
S214003D6000232370054B6360EE23A360044BE360DF
S214003D708FE702224946FEF7EFFDC8E7F5DA0100B5
S214003D8051DB01004D555458886000207C5D0020B2
S214003D902DE9F04F054685B08A4614460AB9FDF768
S214003DA0F3FFFDF76DF95C4F5C4E38B120232370AE
S214003DB040F25723C4E902366760FEE73DB90A239E
S214003DC0237040F25A23C4E902366760FEE7CAF35E
S214003DD00E033BB10823237040F25D23C4E902368C
S214003DE06760FEE72A684E4B9A4207D00C23237082
S214003DF040F26123C4E902366760FEE7494B1B7850
S214003E00012B09D002232370676040F26523C4E9C2
S214003E10023605B0BDE8F08FDFF81091FDF727F900
S214003E206A6AD9F800309A42804607D0FDF725F92D
S214003E301B23237067604FF41B73E8E700F0E2FE75
S214003E4095F828300290013BDBB2E86285F828300E
S214003E5043B14046FDF711F923232370676040F213
S214003E607D23D4E7D9F800002946FFF7BFFED5F832
S214003E7008B0BBF1000F0CD1C5F824B085F828B007
S214003E804046FDF7FAF884F800B0676040F28A23EF
S214003E90BDE7D9F8001091F8332091F834B00392BA
S214003EA05A451BD00846FFF7ADFE584528BF584672
S214003EB0039A5FFA80FB5A4510D20846FEF7F8FDD3
S214003EC0D9F80020584682F833B000F071F8D9F8D7
S214003ED00000FEF70DFD144A82F800B0A96869627A
S214003EE0012385F828308B6B2B62029B8D63009331
S214003EF000231A462846FEF774FD4046FDF7BDF837
S214003F001AF4004F01D1FEF745FE002323706760C8
S214003F1040F2AD237BE700BFF5DA010039DB010094
S214003F204D555458886000207E5D0020806100203A
S214003F302DE9F341846B0546012714B902B0BDE8AC
S214003F40F081D4F8208000F05DFE2146E06206464F
S214003F502846FFF74BFEA16821B984F82810616255
S214003F604446EAE784F828708B6B23620023656278
S214003F701A468C6320460096FEF733FDF0E70000F5
S214003F80024B0022C3E90022704700BF4C5D0020B0
S214003F9008B5064B186828B9586800F039FE203076
S214003FA0C0B208BD00F034FEFAE700BF4C5D00204A
S214003FB01F28094A07D84FF0004323FA00F0136879
S214003FC00343136070470123C0F13F0003FA00F07B
S214003FD053681843506070474C5D00201F280A4BFA
S214003FE008D84FF0004222FA00F01A6822EA0002CF
S214003FF01A6070470122C0F13F0002FA00F05A68CA
S21400400022EA00025A6070474C5D0020F8B506466A
S21400401008B9FDF7B9FEFDF72AF81C4B00251D80F0
S2140040201B4B1D601B4B1D81FDF727F8FDF71FF886
S214004030194B1C68FDF721F874B9FDF718F8174BF3
S2140040401D68FDF71AF8E5B9154B7360A423B36035
S2140040503570144BF360F8BDFDF709F8C4E92D552B
S214004060C4F8C050C4F8A850A4F8A250A4F8A450AD
S214004070074600F0C7FDC4F8B000D4F8D040384674
S214004080D8E7FCF7F4FFAC85AD69DAE79E60002060
S2140040907C6100206C5D00208C610020805D00202B
S2140040A06ADB0100B9DB010000B5104A10490023A5
S2140040B01370104A8BB013700322CDE90632CDE997
S2140040C004330D4A0890126803920C4A0C48126892
S2140040D002920C4A126801920B4A127800920B4A1E
S2140040E000F02CFA0BB05DF804FB00BFA0600020C7
S2140040F0A6DB01009A6000205C5C0020585C002073
S214004100A4600020545C0020485C00202141000090
S21400411008B500F077FD014B186008BD605D002013
S2140041202DE9F04F85B06846FFF770FF684600F04F
S21400413045FC9DF8003005460BB1FDF725FE5C4BAF
S21400414018684FF00008A842C24642F2107728BF0F
S2140041500A20B5FBF0F500F055FD564E814600F0FE
S21400416051FD3368984267D300F04CFD3468041B59
S214004170FCF77DFF504BD3F800B0C3F800A0FCF767
S2140041807CFF4E4B9C425DD94D4B9C425ED94D4BBD
S2140041909C425FD34C4B9C4295BF4FF47A70384696
S2140041A00A2601260BFB06F3B4FBF0F4B3FBF4F38C
S2140041B09BB2BB42454A28BF3B461380444AFB1A83
S2140041C09BB21380434A1188994203D2B8F1000F7C
S2140041D000D01380DFF808B1FCF749FFDBF8008059
S2140041E0FCF74BFFB8F1000F37D1FCF740FFDBF8C8
S2140041F00080FCF742FFB8F1000F3BD1364B1A782F
S214004200012A04D1684683F80080FFF7FFFE00F01D
S214004210DDFDFFF77DFF00F0F5FC304B1A68A0EBE4
S2140042200900824238BF18606A460021284600F01E
S214004230D7FB4FF001088EE700F0E4FC3368DB4361
S2140042401C1895E7012042F21076ABE70A204FF4DF
S2140042507A76A7E764200646A4E7FCF708FFD8F8B6
S214004260B430C8E92DA3FCF708FFFCF700FFD8F828
S214004270D080B5E7D8F8B830B8F8A4207343B3FBBD
S214004280F4F39BB2BB4228BF3B469A4238BFA8F81D
S214004290A430A8F8A23008F1C40208F1C8014046CC
S2140042A06B4600F073F8FCF7E2FED8F8D080A0E783
S2140042B04C5C0020605D00205C5D00207F1A0600DC
S2140042C0FF083D00005A6202FF83D717545D0020A6
S2140042D09C6000209E6000209A6000207C61002088
S2140042E08C61002008B500F08DFC014B186008BDFD
S2140042F0585D002010B50A4C00F084FC23689842F4
S21400430008D300F07FFC2368C01A064A13681844D6
S214004310106010BD00F076FC2368DB431844F4E719
S214004320585D00205C5D00202DE9F04106460D46F4
S21400433014460AB9FDF728FD022DDFF84C80104F11
S21400434008D90823237040F2FD33C4E90237C4F8C5
S2140043500480FEE7FCF78BFE0EB90A4B1E6820357C
S21400436056F82550FCF789FE0023237040F20543DB
S214004370C4E90237C4F804802846BDE8F08100BFCF
S21400438013DC010080610020C5DB01002DE9F0414F
S21400439005460F4616461C460BB9FDF7F5FCFCF71E
S2140043A06FFE48B1202323702F4B636040F2BA6340
S2140043B0A3602E4BE360FEE74FB90A2323702A4B17
S2140043C0636040F2BD63A360284BE360FEE74EB92E
S2140043D00A232370244B636040F2BF63A360234B21
S2140043E0E360FEE7FCF743FE0DB9214B1D68D5F8E8
S2140043F00080B8F1000F10D1FCF73FFE0823C7F885
S2140044000080C6F800802370174B636040F2CA63D2
S214004410A360164BE360BDE8F081B5F8408018F065
S21400442001080CD1FCF729FE0723C7F80080C6F860
S214004430008023700C4B636040F2D263E8E7FCF721
S2140044401CFEA969002351F8232052B13B60EA6B99
S214004450D31A336000232370034B636040F2ED638E
S214004460D6E70133EFE700BFC5DB010037DC01000C
S21400447080610020064A0023C0F8CC301368C0F8DC
S214004480D0300BB910607047C3F8CC00FAE700BF15
S2140044908C610020D0E9332342B90A490B600BB186
S2140044A0C3F8CC200023C0F8D0307047C2F8D03014
S2140044B013B9C0F8CC307047C3F8CC200023C0F83E
S2140044C0D030F6E78C610020074A00231360074AC5
S2140044D01380074A13600370064B436040F61F03C1
S2140044E08360054BC36070478C610020906100209C
S2140044F088610020C5DB010007DC010010B5D8226A
S2140045000446002111F032FA0A4BE36000F07AFB11
S21400451000234FF08042C4E93333C4F8B43022633A
S214004520A3634022044BC4F8B00084F83420C4F8D7
S214004530D43010BD01DC010018DE01002DE9F04F7B
S21400454089B005460393DDE913630493DDE9178319
S2140045501A9C9DF848B0159FBDF864A00591914639
S21400456006930CB9FDF710FCFCF78AFD6D496E4A00
S214004570034630B120232370F023C4E90232616081
S214004580FEE735B90A232370F323C4E902326160DB
S214004590FEE7B9F1000F06D10A232370F623C4E91B
S2140045A002326160FEE736B90A232370F923C4E9B4
S2140045B002326160FEE75D480068B84206D908230B
S2140045C02370FC23C4E902326160FEE70498874248
S2140045D006D808232370FF23C4E902326160FEE791
S2140045E0BBF13F0F07D9082323704FF48173C4E94A
S2140045F002326160FEE728460793FFF77FFF4949CE
S214004600079B494A61601AF0030F40F20B112370B2
S214004610A160E26069D1049B039923F0070306EBCF
S2140046208303CDE9007A32464846049300F0EEFB59
S2140046308642049B0ED9322222703A4A62604FF4B8
S2140046409472A260384AE26007900493FDF79CFBE0
S2140046500798049B039A2A62059A354CC5F81C9065
S214004660EA6085F833B085F834B02860AB60C5F8EA
S2140046707080B8F1000F43D12E4BD3F8009000F0B5
S214004680B3FF2268511E0C4641464346E9FB0041F3
S214004690204610F033FF069B6B600023C5E92033ED
S2140046A0C5F888306867AE612846EF63A5F840A075
S2140046B000F094FBFCF7DBFC044695F83300FFF7AC
S2140046C077FC2846FEF714F92846FFF7D3FE1A4A69
S2140046D0138801331380194B1B78012B204619D001
S2140046E009B0BDE8F04FFCF7C8BC1AF0020F92D034
S2140046F0184602E046F820300130B842FAD18AE780
S21400470000F072FF22680023511E0C461946E8FB93
S2140047100041BDE7FCF7B1FC09B0BDE8F04FFEF77D
S21400472039BA00BFC5DB01002ADC010080D90100D0
S214004730645C00208C60002090610020886000206F
S21400474070B504460D4694F83230072B08D8013B66
S214004750062B0BD8DFE803F01F22221F1F222200A1
S214004760FF2B1AD0BDE87040FDF70EBB2046FEF7C3
S2140047709FF9284684F83350FFF71AFC264B1B682F
S214004780A342204603D1BDE87040FEF795B8BDE8C9
S2140047907040FEF7ADB884F8335070BD94F83030F2
S2140047A094F8336084F83350013B072BDAD801A223
S2140047B052F823F0D54700009B47000065470000ED
S2140047C0DF470000D5470000D54700009B470000A4
S2140047D0D54700002046BDE87040FDF7DBBE20460A
S2140047E0FDF7D8FEE36A5C6AB54294F8333002D22D
S2140047F0AB42A8D8D1E7B342A5D12046FFF702FACC
S21400480094F83430984228BF184694F83330C5B22E
S214004810AB4298D1C1E700BF806100202DE9F0418E
S21400482004460D4609B9FDF7AFFAFCF729FC48B176
S21400483020232B70554B6B604FF4DA73AB60544BF0
S214004840EB60FEE7534B1B78012B0AD002232B703C
S2140048504E4B6B604FF4DC73AB604D4BEB60BDE8CA
S214004860F0812CB9FCF703FC4B4B1C68FCF705FCED
S214004870FCF7FDFB94F83230072B804608D8013B46
S214004880062B0DD8DFE803F04733330F47333300EA
S214004890FF2B72D0FCF7F1FBBDE8F041FDF774BAD0
S2140048A02046FEF705F9A36B13B12046FFF740FB41
S2140048B0204600F09BFA2046FFF7ECFD374A1388A7
S2140048C0013B1380FFF71AFEFF2384F83230404680
S2140048D0FCF7D3FB00232B702C4B6B6040F231238C
S2140048E0AB602B4BEB60BDE8F041FEF753B994F894
S2140048F03030082B3ED8DFE803F00805083D1705E2
S214004900050805002046FDF72AFE94F8323003F02D
S214004910FB03032BC7D104F1540000F0B9FD0028B7
S214004920C1D0FDF731FABEE7E36A5E6A204696F824
S2140049303370FDF714FE96F8333096F834209A421A
S2140049400CD094F833209A4208D13046FFF75AF933
S21400495096F83410814228BF0146CFB2002384F86F
S214004960303096F83330BB42CFD039463046FFF76A
S214004970E7FECAE7FDF708FAC7E7FCF77EFB1F234A
S2140049802B70024B6B6040F2072365E7C5DB010026
S21400499020DC0100886000208061002090610020FB
S2140049A01FB5054B186800F029FA69460020FFF786
S2140049B035FF05B05DF804FB80610020002303701E
S2140049C0044B436041238360034BC360034B18686A
S2140049D0704700BF44DC01008ADC0100645C0020F4
S2140049E02DE9FF470546884614460AB9FDF7CCF977
S2140049F0FCF746FB6C4F6D4E30B1202323707123BD
S214004A00C4E902366760FEE7FCF744FB30B11F23BB
S214004A1023707423C4E902366760FEE7644B1B7894
S214004A20012B08D00223237067607823C4E902367E
S214004A3004B0BDE8F0875F4B93F800A0BAF1000F12
S214004A4004D02D23237067607D23EFE7DFF8809185
S214004A50D9F8003023B91323237067608223E5E773
S214004A60B8F1000F2BD0B8F1020F28D0B8F1080F1C
S214004A7000F08F80082323708723C4E9023667601E
S214004A80FEE700F0A5FD4C4BD9F800201968534608
S214004A90A0FB010110F032FD484B1B6893F84C2038
S214004AA0CAB11A6D15441D652D1A25EAE575444AE6
S214004AB0116821B11A6D91429CBF521A1A65002DD9
S214004AC047D03F4B1B6863B1AB420AD81E23237006
S214004AD06760AF23AAE728440122186583F84C20B4
S214004AE0E5E7354BD9F800C01A68DFF8D0904FF0EC
S214004AF00008501E41464346E5FB0C0110F0FEFC44
S214004B000390FCF7B4FACDE90088D9F800302D4AB6
S214004B100399054603F1540000F0FEFC4FF001082F
S214004B2038B12846FCF7A9FA84F800806760BF23EE
S214004B307CE7D9F8000080F83280FDF7B9FF2846F8
S214004B40FCF79BFAFEF726F8002323706760D8234D
S214004B506CE7FCF78CFA1C4B1C491A784FF00C0CCF
S214004B6002EB42030CFB02F201EB020C01EB8303A7
S214004B708958DCF804209142054606D1FCF77DFAF8
S214004B80002323706760CE2350E71846FDF77AFFB0
S214004B90D5E7002D7FF475AF8C23C4E9023684F880
S214004BA000806760FEE700BF44DC010080DC010097
S214004BB08860002089600020645C002080610020FE
S214004BC06C5C0020012E00007E5D0020885D0020C9
S214004BD0905C002008B5FBF77FFC4FF0E022D2F88F
S214004BE0FC3D43F08073C2F8FC3D054B00225A6042
S214004BF01A6842F001021A60BDE80840FDF7C6B820
S214004C00001000E0014B5868704700BF001000E03D
S214004C10B0FA80F0704790FAA0F0B0FA80F07047D3
S214004C2090FAA0F0704700BF72B64EF62250CEF251
S214004C30000040F2FF01C0F200010170002080F386
S214004C40098846F2A810C2F20000016881F30888BD
S214004C5000F016F945F67E50C2F2000045F67F5188
S214004C60C2F200010A78027046F28010C2F200001A
S214004C7046F28411C2F200010A680260106880F3EE
S214004C800988EFF3148040F0020020F0040080F35F
S214004C901488BFF36F8FBDE8F04F0FBCBDE800501F
S214004CA006BC62B6084737484FF08051016070472F
S214004CB034484FF0805101607047602080F31188BF
S214004CC046F28012C2F200021168002901BF2E4A85
S214004CD0136823F0010313600ED0EFF309801EF073
S214004CE0100F08BF20ED108A20E9F04F46F280151D
S214004CF0C2F2000529680860744600F0C1F846F262
S214004D008011C2F2000146F28410C2F2000003686D
S214004D100B6045F67E52C2F2000245F67F51C2F2A3
S214004D2000010878107044F0040E002B0AD01868B2
S214004D30B0E8F04F1EF0100F08BFB0EC108A80F3FA
S214004D4009881BE046F2A811C2F200010868A0F12B
S214004D501C0080F3088840F20001C0F20011C16117
S214004D6044F68D51C0F20001816144F6A111C0F2F3
S214004D70000141614FF6F97ECFF6FF7E002080F3FA
S214004D801188704704ED00E034EF00E000BFFDE757
S214004D900B4B1A680B4B02F180421B68013A03EB7F
S214004DA08203094A23F0070313604FF0E023D3F889
S214004DB0343F03F04043B3F1404F00D0FEE7704766
S214004DC0305C00202C5C0020A8610020024B1B6891
S214004DD003B11847704700BF94610020024B1B6860
S214004DE003B11847704700BF98610020024B1B684C
S214004DF003B11847704700BF9C610020024B1B6838
S214004E0003B11847704700BFA061002010B5029C90
S214004E1002EB840222F007024FF0807442E902049B
S214004E20164842F80C0C4FF012344FF0033042E9AB
S214004E3005044FF0023042E907306FF0020C4FF0E5
S214004E40113342E90A3C42F8201C4FF009334FF078
S214004E50103142E90C314FF008304FF0073342E989
S214004E600E304FF006344FF00533104642E910344A
S214004E704FF0043340F8443D10BD00BFA149000088
S214004E8010B50A4C206848B1094B1B7833B1436F04
S214004E900BB9FDF753FE2068FDF734FE054B1B6883
S214004EA013B1BDE81040184710BD00BF8461002054
S214004EB090600020A461002038B5044613F079FC09
S214004EC00FCC044D0FC594E80F0085E80F000020B6
S214004ED038BD00BFAC61002047F6FF739A42F0B5BC
S214004EE069D0022969D8364B03EBC105CF00A878F4
S214004EF013F83110012838BF01200129044613D1C8
S214004F00EB781B1A0020984202D3E018C0B2F0BD1E
S214004F10191AA3EB51016E6836F911609642CCBFA0
S214004F2001F1FF330846EEE768680028EFD0B0F9D5
S214004F300010914204DBB0F902109142B8BF11464E
S214004F4082883B44FF2A08BFB0F906205F7807BF77
S214004F50B0F9086001250025C82207F1FF3318BF05
S214004F602826521A92FBF6F22A44934228BF13468A
S214004F7000EBC3054FF47A7EAE68EA8811FB026246
S214004F801E46013322EAE2729F4202F5FA72AC46EE
S214004F90B2FBFEF205D9BCF80CC0944505F1080535
S214004FA0EAD200EBC6008088904228BF1046A04296
S214004FB038BF2046AAE7FF20A9E70020A7E700BFE2
S214004FC0AC61002008B50448FFF776FFBDE808404E
S214004FD0012013F0F2BB00BFA0DC010000487047C0
S214004FE0DA10002000487047E01000207FB5094B1B
S214004FF009490222CDE901234FF08373CDE903135B
S2140050004FF0FF300D2301A9059313F03BFC07B0CA
S2140050105DF804FB006A180006010C007FB5094B1A
S2140050206A4603F11006154618685968144603C404
S2140050300833B3422246F7D12846FCF7CBFA0020C5
S21400504004B070BD58DD010013B502230024684685
S21400505000948DF804408DF80530FCF789F820465A
S21400506002B010BD70B5164B86B001AA03F110064B
S214005070154618685968144603C40833B3422246D6
S214005080F7D11B8823800F4BD3F8B42012030ED41D
S214005090D3F8B830C3F308030B48ADF80A30FBF773
S2140050A033FA2846FBF77AFF002006B070BD074BA0
S2140050B01B884FF6FF72934208BF4FF4AA73EBE7C4
S2140050C068DD01000081E00F00F049020001E00FFA
S2140050D007B5084B18680190202301A88DF8043006
S2140050E0FBF79CFF6420FBF779FD002003B05DF81A
S2140050F004FB00BF7ADD010010B50C480C4C6FF0C5
S2140051000402A02112F0800FD3B21BBF03F00F03DE
S214005110043BA3181B1802F101020CBF83F800130E
S2140051201976332AEED1002010BD00BF00ED00E056
S21400513000E100E073B5FBF793FF0D4D0D4B2E78A5
S2140051401C68FBF791FFFDF7FDF838B1FF2E05D080
S214005150297801AA0020FBF759F9019C2CB9FBF726
S2140051607FFF054B1C68FBF77FFF204602B070BD33
S214005170E6100020CC610020D061002010B5044667
S214005180FBF76EFF024B1C60FBF76EFF002010BDA6
S214005190D061002007B530B9CDE90012FFF7CAFF8D
S2140051A0DDE9001230B1436823B1006803B05DF852
S2140051B004EB1847232003B05DF804FB30B51C460B
S2140051C085B058B9CDE90012FFF7B4FFDDE900124B
S2140051D004B903AC20B9232005B030BD03B903AC35
S2140051E08568002DF7D023460068A847F4E700201E
S2140051F07047FEE74FF400534B60002070470120D5
S2140052007047012070474FF0FF307047002070470E
S21400521007B5002001AB0190FFF7D0FF01980028EA
S21400522008BF4FF0FF3003B05DF804FB10B5002058
S2140052301446FFF7AFFF204610BD10B500201C46F1
S2140052400FF08EFE002820600CBF1B20002010BD33
S21400525008B500200FF0C2FE002008BD13B50FF001
S21400526053FF012400231A461946009418460FF0EF
S214005270CFFE00231A461946184600940FF0F8FE93
S2140052800248FFF77BFF002002B010BDE8100020A8
S214005290034B1868002380680222194610F0A0BF4E
S2140052A09024002030B50F4C41612368ABB92060D4
S2140052B0836011E0891A9A6841611D462AB1134637
S2140052C05A698A42F6D955B11A46A86013468360D1
S2140052D013B15A69511A596130BD0025F0E72060B4
S2140052E0F5E700BFEC61002010B500F051FA0A4C5B
S2140052F00A4B19682368C31A01B10BB9206010BDA8
S2140053004A699A422EBFD21A9B1A00224A6128BFC7
S21400531000238968F0E700BFD8610020EC61002018
S21400532038B5134D2B685B6993B1124A1468022096
S2140053301C4400F05BFA204600F030FA0E492A685A
S21400534000230B70D088800709D501230B7038BD69
S214005350022000F04BFA022000F06EFAEEE79268A8
S214005360002AF4D050690344012BEBD9EFE700BFC5
S214005370EC610020D8610020E061002070B5164680
S2140053809DF814200271049A0260C0E903360022D8
S214005390BDF818308260C38004460D4600F0F8F968
S2140053A03044A0613DB9E368656113B121682046C9
S2140053B0984796B13546FBF753FE0646FFF794FF2F
S2140053C029462046FFF76EFF054B1B68A34201D116
S2140053D0FFF7A6FF3046FBF747FE002070BD00BF74
S2140053E0EC6100200C490B6800227BB183420AD195
S2140053F083687AB1936083681BB15A6941690A442D
S2140054005A61002070471A469B68EEE70028EFD0E6
S214005410022070470B60EEE7EC61002070B5154E79
S214005420FBF725FE34780546FCB9134B1C60134B7E
S2140054301C60134B1C8000F067F9012000F0D6F9C1
S21400544000F01AFA0F4B0246186020B92846FBF700
S21400545014FE232070BD23460B4840F2E73110F0BF
S2140054604DF80A4B1860012333702846FBF705FEFB
S2140054700020EFE7D4610020EC610020D861002016
S214005480E2610020E861002018FCFFFFDC610020DC
S2140054902DE9F0410546F8B1FBF7E2FD0F4F064651
S2140054A0FFF722FF2846D7F80080FFF79BFF044649
S2140054B028B13046FBF7D8FD2046BDE8F081A84568
S2140054C03B6803D123B1FFF72BFFF2E7002BF0D1A7
S2140054D0022000F099F9ECE72224EDE7EC610020C9
S2140054E038B50C46054698B191B100230B70FBF712
S2140054F0BEFD084B1B6801210BB122781AB1FBF7E1
S214005500BCFD002038BDAB4214BF9B682170F3E79A
S2140055102220F7E7EC610020F0B587B01F46002395
S2140055200D4616468DF817300446A0B10DF117014A
S214005530FFF7D6FF9DF817207AB9BDF834300293EE
S2140055409DF830302946CDE9007320463346FFF7F4
S21400555015FF07B0F0BD2220FBE70320F9E70000A7
S214005560F8B50C460546C8B1C1B1FBF780FD064646
S214005570FFF7BAFE6B692360134B1B68AB420FD074
S21400558023B93046FBF779FD03201CE059692268F1
S2140055909B680A442260F1E700230FE0222012E015
S2140055A00A4D276800F0F4F82B68C01A8742F3D932
S2140055B000F0EEF82B68226813441B1A304623606E
S2140055C0FBF75BFD0020F8BDEC610020D8610020F1
S2140055D038B5FBF74CFD054600F0DAF804462846D9
S2140055E0FBF74BFD204638BD014B1868704700BFDF
S2140055F0E8610020C2072DE9F34704460BD53F4A71
S214005600138801339BB21380FFF76EFE3C4B1B687A
S2140056100BB1FFF785FEA3076DD5FBF728FD054602
S214005620FFF762FE0026DFF8D8803746B146D8F886
S21400563000400CB163698BB1324B0022012F1A7007
S21400564002D1022E08BF1F70002C44D0FFF768FE60
S214005650284602B0BDE8F047FBF70FBD23461A798F
S2140056602179914288BF1C469B6813B15A69002A6B
S214005670F5D02846FBF701FD256985B300F088F8CC
S214005680A269861AF317B54279EB030328DA236971
S2140056901344A3610123226982B17BB9A91B01913E
S2140056A0FBF7E5FC019982462046FFF7FBFDA36960
S2140056B022691344A3615046FBF7DFFCE368E688E3
S2140056C0013713B1216820469847FBF7D0FC054602
S2140056D0FFF70AFEABE7022000F096F8B8E72E4682
S2140056E0FBF7C5FC82462046FFF77CFE5046FBF7DC
S2140056F0C4FC0023CFE702B0BDE8F087E2610020DB
S214005700EC610020E461002010B51D4B86B01868DF
S214005710596803AA03C2197AD3F8090011700190D8
S214005720B3F80D201748DB7BADF8082001218DF873
S2140057300A300024FBF73CF803A88DF80C408DF8DF
S2140057401040FCF71DF901A901208DF80440FCF774
S214005750F7F80D4A536A23F4FF6323F007035362F6
S21400576040F2FF73136201209460FCF703F9074BC5
S2140057704FF08042C3F880211A6006B010BD00BF0B
S2140057807EDD0100A00914000020044000E100E0D6
S214005790014B9868704700BF00200440114A936888
S2140057A0516D9269520704D4CA1A032A01D8994245
S2140057B00DD1C21A022A98BFD81C0A4BB0F1FF3F7F
S2140057C038BF013858655A6A42F004025A62064ADF
S2140057D0137833B103490B6D43F002030B650023C6
S2140057E01370704700200440F41000208207054A1A
S2140057F000F00103516A48BF43F004030B435362B1
S214005800704700BF00200440820700F0010309D55E
S214005810074A0121117007490A6D22F0030243F07E
S21400582004030A6503494A6A22EA03034B62704787
S214005830F410002000200440830742BF014B0422DE
S214005840DA6170470020044010B5FBF710FC094AE7
S21400585093690446590703F0010003F0070348BFA5
S21400586040F002001362FFF7C5FE2046BDE8104078
S214005870FBF703BC002004400148FBF7E5B800BF77
S214005880A009140008B50FF069FC0FF0BDFC0FF07E
S214005890BCFC0FF0C7FCBDE808400FF0CABC0FF018
S2140058A0B1BC000010B50446FAF716FE0B4BA0F587
S2140058B07A729A4210D84FF47A735C43B0FBF3F0D6
