S01C00006275696C642F64656275672F776973756E5F7263702E73333789
S214000000001000202D080000E9DD0100C7EF010008
S214000010E9DD0100E9DD0100E9DD0100E9DD0100BF
S214000020E9DD0100E9DD0100E9DD0100E9DD0100AF
S214000030E9DD0100E9DD01008B4E0000E9DD01008D
S214000040E9DD010029BF0100E9DD0100E9DD01006D
S21400005079B70100DD5C0200D95C020049BF0100EF
S214000060D15C0200F10B0000E9DD0100E9DD0100D2
S21400007089B20000E9DD0100E9DD0100E9DD0100EB
S214000080E9DD0100E9DD0100E9DD0100E9DD01004F
S214000090E9DD0100E9DD0100E9DD0100E9DD01003F
S2140000A0E9DD0100E9DD0100E9DD0100E9DD01002F
S2140000B07DBF0100D55C0200F16F0000B9BF0100F2
S2140000C0E9DD0100A1A80100E9DD0100E9DD01008C
S2140000D0E9DD0100E9DD0100E9DD0100E9DD0100FF
S2140000E0E9DD0100E9DD0100E9DD0100E9DD0100EF
S2140000F0E9DD0100E9DD0100E9DD0100E9DD0100DF
S214000100E9DD0100E9DD0100E9DD01000000000095
S214000110013800D0FCE77047000000000000000037
S21400012001F0FF01102A2BDB10F0070F08D010F8A3
S214000130013B013A8B422DD010F0070F42B3F6D1A7
S214000140F0B441EA012141EA014122F007047FF0C0
S21400015000070023F0E80256083C85EA010586EA17
S214000160010685FA47F5A3FA87F586FA47F6A5FA53
S21400017087F68EB9EED1F0BC01F0FF0102F007025F
S21400018032B110F8013B013A83EA010313B1F8D10A
S2140001900020704701387047002D06BF35460338EB
S2140001A0073815F0010F07D1013015F4807F02BF24
S2140001B0013015F4C03F0130F0BC0138704700BF75
S2140001C0F0B5A9B02C2200211DA824F069FA804DB4
S2140001D04FF002331F9340F20B13ADF89C300FCD57
S2140001E014AC0FC40FCD0FC42B682360794B079354
S2140001F079497A487A4D0023CDE908330A9317F0F7
S21400020003FE2860002800F0DA8025F077FB754EA4
S2140002104FF001113070286825F0D4FA0446002803
S21400022040F0AE803778704E002F40F09080002768
S2140002306E4811F021FC3060002800F0A980C189CA
S2140002402868002217F054FE28680122032125F0B2
S21400025042F93368586811F0EDFC0446002840F077
S2140002608F80634B93F9000011F042FC614B6249AA
S214000270D3F8F020D3F8F430CDE9042304AA0723FA
S21400028012F8010B5854013BFAD2182200210EA88E
S214000290CDF82E30CDF83230ADF8363024F000FAF6
S2140002A0002141F234231C2220A8CDE90311ADF829
S2140002B02C3024F0F5F928681DA918F065FA0446D4
S2140002C000285DD14D49286825F0C1F9044600286C
S2140002D056D14B49286825F0A4F9044600284FD18A
S2140002E04849286817F090FE0446002848D136A3EF
S2140002F0D3E90023CDE90023286825F0AAF90446AF
S21400030000283DD102464049286840F6FC7325F097
S21400031062FA3E4A3E49286825F05FFA04460028FD
S2140003202ED1012017F096FD002848D0394AA02388
S214000330D380394A07A8136002F0CAFC374B18600E
S21400034000282FD1364B374A40F2074127E036487F
S21400035011F092FB306000283FF469AFC18928682D
S214000360224617F0C5FD28680122032125F0B3F8C0
S2140003703368586811F05EFC044600283FF458AF16
S2140003802A4A2346222102201EF043FF29B0F0BD50
S214000390002F7FF46BAF264B224A40F2BB31254834
S2140003A014F0FEFF244814AA214602F061FD234BF8
S2140003B0186020B9224B1B4A40F20C41EFE700249C
S2140003C0DEE700BFAFF30080088D01C103400000E8
S2140003D018A70200C9A102009519010008220020F2
S2140003E0F8150120475F0120A4150120A322020072
S2140003F05E2600200081E00F3B5F012014A902006A
S21400040016A90200FC150120382601207C240020B5
S214000410181601201C220020D41501202C260120AD
S214000420F6A10200C0A702008D22020021A202004F
S214000430DEA10200619D0200712201003426012027
S21400044011A20200000000002DE9F3414C4A0446C8
S214000450222110201EF0DDFE4A4A234604F1100534
S21400046018685968144603C40833AB422246F7D1CD
S2140004701868454F206000220023CDE90023386825
S21400048000224FF4007325F0E4F80446002870D1EB
S2140004903E483F4D11F0F0FA0646286058B93D4AEE
S2140004A0022022211EF0B5FE3B4B02221A702120AC
S2140004B002B0BDE8F081394B1860394BD3F80080A4
S2140004C0B8F1000F07D0D8F80C10234624208B4232
S2140004D008D1002426E0334B334A344840F28C617E
S2140004E014F05EFFD8F8084000FB0344E269527837
S2140004F0120912F00E0F3AD0052A38D8E18938686A
S2140005002C60002217F0F4FC38680122032124F046
S214000510E2FF2B68586811F08DFB254B93F900001D
S21400052011F0E6FA14A3D3E900233868CDE90023D6
S21400053025F08FF8D8F80830A34213D0D989386848
S2140005402B60002217F0D4FC38680122032124F027
S214000550C2FF2B68586811F06DFB154B93F900002D
S21400056011F0C6FA2E6011F01BFA0020A0E7013346
S214000570ADE701209CE700BF088D01C103420000E3
S2140005802AA60200D8150120F81501203D1B0100FF
S214000590A415012046A60200455F0120841501200F
S2140005A0A015012082A602003CA70200619D020061
S2140005B05E26002010B5054C237833B9044B13B1E2
S2140005C00448AFF300800123237010BDD032002012
S2140005D000000000D060030008B5034B1BB10349C0
S2140005E00348AFF3008008BD00000000D4320020AE
S2140005F0D0600300A3F5803A704700BF174B002B6E
S21400060008BF134B9D46FFF7F5FF00218B460F46AC
S2140006101348144A121A24F043F80E4B002B00D04D
S21400062098470D4B002B00D098470020002104006F
S2140006300D000D48002802D00C48AFF3008014F0DF
S21400064001FF200029001EF019FD14F0D5FE00BFA2
S214000650000008000000000000000000001000205D
S2140006606C260020907F01200000000000000000A3
S21400067030B5551854586B6804B1601843601C6058
S214000680014B53506B6030BDEFBEADDE08B505487C
S214000690012100F007FC23F08FFFBDE8084000F0C2
S2140006A027B800BF00350A000148012100F0FABB58
S2140006B000350A0007B508201DF09DFB02238DF8C3
S2140006C000306846034B01931DF04EFB03B05DF807
S2140006D004FB00BF00D43010014B1022DA607047D4
S2140006E000A00046014B1022DA60704700A00044CC
S2140006F070B5384D384E0FCD88B001AC0FC495E8B4
S214000700070084E80700354C3548012100F0CAFB95
S2140007103046012100F0C6FB0125324B039301A9A8
S21400072020468DF8125002F07DF92B460422062151
S214000730022001F0C9FC2A4600230721022001F00E
S214000740C3FC2B4604220821022001F0BDFC042233
S21400075011462B46002001F0B7FC234BA3670B2362
S21400076063674FF4487006F067FC1420FFF7BAFF83
S21400077006F062FC2320FFF7AFFF06F05DFCB92110
S2140007802046FFF7AFFF1DF060FCFFF7A5FF002334
S2140007901A460621022001F097FC00231A4607217C
S2140007A0022001F091FC2B4600220821022001F0D5
S2140007B08BFC002210462B46042101F085FC2046C7
S2140007C002F090F80021A1673046616700F06AFBEE
S2140007D008B070BDC460020000520400000401406E
S2140007E000350A0000127A000B0B000B38B50446E1
S2140007F00D4601B118B90448372107F049FC2368B3
S2140008002B60256038BD00BFE060020005490A681D
S2140008101318054883428CBF4FF0FF320B6010461A
S214000820704700BF001000200000042008B500F04C
S21400083083F8124B12498B4212D3124B12490020F6
S2140008408B4218D3FFF7DAFE186850F82240586833
S21400085040F82240013298688242F5D30C33EAE72A
S2140008600022F8E71C6844F8220001325C68A242C5
S214000870F8D30833E4E70022F8E700BFD8600300A7
S214000880E4600300E4600300E4600300004870478F
S21400089000F04902104AD2F8943003F00703023BF6
S2140008A0032B13D8DFE803F00C14020E0B4B1B6867
S2140008B0D2F80001C0F304200130B3FBF0F070471B
S2140008C0074BF4E7074B1B685B08F1E7054BEEE7C1
S2140008D04FF40043ECE700BF00400E40101000202D
S2140008E0081000200C10002008B5FFF7D3FF054BBA
S2140008F0D3F80831C3F308230133B0FBF3F0024BFF
S214000900186008BD00400E4004100020014B186817
S214000910704700BF08100020054B1860054BD3F841
S214000920943003F00703022B01D1FFF7DDBF7047B9
S2140009300810002000400E40044B054A9A60D3F889
S214000940882042F47002C3F88820704700ED00E06B
S21400095000000000014B1868704700BF1010002010
S21400096008B52248012100F09DFA01230422022145
S214000970052001F0A9FB002001F090FB1C4B012292
S214000980C3F810281146042000F0D4FD194800F0E2
S21400099011FC194BD3F8F02042F00102C3F8F02006
S2140009A0D3F8FC2042F08072C3F8FC20A3F55D4328
S2140009B0124A1A6000F5D520114B00F2FC40B0FB3D
S2140009C0F3F0104B013802221861C3F8F0204FF400
S2140009D08072C3F804234FF060430B4AC3F8B02F6D
S2140009E00A4AC3F8802E002008BD00BF00350A0062
S2140009F00080144206000E0000ED00E0FF030040F9
S214000A00F8590D00000004E055CEACC50900010001
S214000A104FF0604330B5D3F8802ED20715D50124A9
S214000A200B4D8440D5F8FC2042F08072C5F8FC20BF
S214000A30D3F8002E2243C3F8002E53F82020002AB5
S214000A40F0D003F82010002030BD1120FCE700BFD6
S214000A5000ED00E038B5124B1B780546DBB1E0B17F
S214000A601DF001FA0F4A00231146147B54B92B607F
S214000A701A0101EB031301258C501D731DF0F9F9C3
S214000A80204638BD0133082B02F11002EDD11DF0CF
S214000A90F0F90548F5E70548F3E70548F1E700BF34
S214000AA0703A0120EC320020048000F0028000F052
S214000AB0018000F013B5164B1868019000238DF8DE
S214000AC004301DF0D0F9134B1C7824B11DF0D1F979
S214000AD0114802B010BD01221A701DF0CAF90F4B62
S214000AE01C731C7783F82C4083F83C4083F84C40FA
S214000AF083F85C4083F86C4083F87C4004230DEB5D
S214000B0003008DF8073001F049FB2046E1E700BFFF
S214000B100F610200703A0120038000F0EC320020E2
S214000B20F8B50D4D2D7885B1072810DC0B4D05EB7B
S214000B3000140601277B67B1AB51069B6360002556
S214000B40A56001F06DFB2846F8BD0548FCE70548A2
S214000B50FAE70548F8E700BF703A0120EC320020BB
S214000B60028000F0018000F0078000F00A4A127848
S214000B7008B552B107280AD8084A02EB00131B7BB7
S214000B803BB101F0D3FB002008BD0548FCE7054853
S214000B90FAE70548F8E700BF703A0120EC3200207B
S214000BA0028000F0018000F0078000F00B4A127807
S214000BB010B50C4662B107280CD859B1084A02EBAA
S214000BC000131B7B43B101F0D1FB2060002010BD59
S214000BD00448FCE70448FAE70448F8E7703A0120BE
S214000BE0EC320020028000F0018000F0078000F068
S214000BF02DE9F843DFF86480D8F86070D8F86C30D8
S214000C001F4000D5FEE7144CDFF85490012600255F
S214000C10374217D02368C8F868609BB1A16862683D
S214000C200131A16028469847637B012B0AD148B959
S214000C3009EB45131A7B60F341021A731A7F60F3BF
S214000C4041021A770135082D4FEA460604F11004D2
S214000C50DED1BDE8F88300BFEC32002000200E4055
S214000C606C330020024B1968024B186816F02CBD36
S214000C70181000201410002037B5920004460D46C8
S214000C8001921DF0E0F9431C0BD060B9019A294689
S214000C90204623F0CDFC0028044808BF002003B0FF
S214000CA030BD0348FBE70348F9E700BF10E000F05B
S214000CB021E000F024E000F013B5044601A801F09E
S214000CC031FD9DF80630238040F201136380074B08
S214000CD0D3F8E4301B0E0A33012203F01F0302FA96
S214000CE003F30020636002B010BD00BF0081E00F78
S214000CF010B5044601F046FC431C17D0C0B90D4B96
S214000D00D3F8E4301B0E0A3303F01F02012393408E
S214000D1023F0030320462344984201D1002010BD4F
S214000D2050F8042B0132F7D00348F8E70348F6E7FB
S214000D300348F4E70081E00F0EE000F021E000F049
S214000D4024E000F008B51DF087F8014B186008BDD8
S214000D50AC3A0020014B18681DF082B8AC3A00206F
S214000D600C4B984210D90C4B984210D90222012302
S214000D700A490B640A49D1F8003123F0807343EA2C
S214000D800263C1F80031704700221346F0E70122E3
S214000D90FBE700BF0048E8010090D0030000C8430E
S214000DA000400E4038B5114B5B68114B00221C46C4
S214000DB0C9B21D798D4202D11D68854212D2013218
S214000DC0052A03F10803F4D10A4841F2B76107F097
S214000DD05FF9032205494B6823F0407343EA026338
S214000DE04B6038BD04EBC2025279F3E700000E40B8
S214000DF0C0610200386102001F2810B5044604D9FD
S214000E0003484FF4B67107F043F90120A04010BD27
S214000E106461020070B5084C41F67136256C266494
S214000E20FFF734FD0021FFF7BDFFADB2B5421CBF92
S214000E300023236470BD00BF00000E40044BDB6B34
S214000E405B0604D4034AD2F8C830002BFBD17047A7
S214000E5000300E400000C64308B5FFF7EFFF024B18
S214000E605868C0F3014008BD00300E40044BD3F86C
S214000E704421D20703D4D3F840211042FBD1704757
S214000E8000400E4070B5064C41F67136256C26645F
S214000E90FFF788FFADB2B5421CBF0023236470BDC8
S214000EA000000E4038B5C0F30323013B092B24D8BD
S214000EB0DFE803F02A2D2323051619231C20154CE2
S214000EC00023C0F3043513B11846FFF7CFFF04F133
S214000ED0424404F5801405EBC404A400216038BD28
S214000EE00D4C0123EDE70D4C1023EAE70C4C4FF4B4
S214000EF08033E6E70B4C0023E3E7BDE838400A48BA
S214000F0041F6534107F0C4B8084C0023D9E7084C13
S214000F100023D6E7B0400E40E0400E40E8400E40CA
S214000F20F0400E4050410E403861020000400E4036
S214000F30C0400E4008B5C0F30313013B092B60D830
S214000F40DFE803F0050B0F195F5F1F233C532E4BA2
S214000F50D3F80001C0F3042008BD2B4BD3F81401CE
S214000F60F8E7294BD3F80001C0F300600130FFF723
S214000F7043FF0138F0E7244BD3F80C01C0F30820F8
S214000F80EAE7214BD3F80801F8E7204B984209D04E
S214000F901F4B98420CD041F6F7511E4807F078F8E0
S214000FA00020D9E7184BD3F8200100F00F00DEE749
S214000FB0154BD3F82001C0F30110D8E7164B984222
S214000FC008D003F5B01303F58053984206D041F6D7
S214000FD01B61E2E70C4BD3F82801ECE70A4BD3F889
S214000FE02801C0F301200430C1E70C4B984205D11C
S214000FF0054BD3F8300100F00300ADE741F62A6157
S214001000CBE741F64F61C8E700400E408006160069
S21400101080162E003861020090171A00A0091400EE
S21400102000F00F00013808B5072844D8DFE800F0C4
S214001030040F1943232D4335264BD3F8943003F081
S2140010400703023B052B3DD8234AD05C08BD214B45
S214001050D3F8803003F00703013B032B34D81F4A34
S214001060F3E71C4BD3F8843003F00703013B032B54
S2140010702AD81B4AE9E7174BD3F8883003F0070352
S214001080013B032B20D8174ADFE7124B1B6F13F0E8
S214001090010F0CBF07200920D8E70E4BD3F85C31B0
S2140010A003F03003202B11D0302B11D0102B14BF9F
S2140010B001200720CAE70C4842F2A41106F0E8FF18
S2140010C00020C3E70520C1E70120BFE70420BDE7F5
S2140010D00820BBE700400E40946102009A610200BF
S2140010E09E6102009A6102003861020038B52C4BFE
S2140010F0984205460AD02B4B984207D02A4B984276
S21400110004D02A4841F2B67106F0C2FF2846FFF71F
S21400111087FF234B9D42044611D0224B9D4212D09E
S214001120214B9D4213D1224BD3F8804004F0070494
S214001130042C2DD8DFE804F02A11151D19001C4BCD
S214001140D3F88440F2E71A4BD3F88840EEE7174806
S21400115041F2E57106F09CFFEAE7BDE838401CF076
S21400116044BEBDE83840FFF7F5BBBDE838401CF08C
S2140011703FBEFFF78FFB0E4B0446D3F80001C0F3CB
S21400118000600130FFF738FEB4FBF0F4204638BDAF
S214001190064841F6370106F07BFF0024F6E700BF5D
S2140011A0030020000500240002001E003861020033
S2140011B000400E4038B500F47813B3F5B01F05466E
S2140011C07FD02ED8B3F5402F69D011D8B3F5802F35
S2140011D054D006D843B1B3F5003F5AD041F68351F8
S2140011E01AE0B3F5202FF9D1BDE83840FFF752BB1F
S2140011F0B3F5801F00F0A280B3F5A01F57D0B3F55B
S214001200602FEBD15B48FFF70BFF072800F09680B6
S2140012100928E9D041F27951574806F039FF0020F5
S21400122036E0B3F5381F5AD013D8B3F5001F5FD099
S2140012300AD8B3F5D01F5DD0B3F5F01FCED14F4816
S214001240BDE83840FFF752BFB3F5101FC6D14C4873
S214001250F6E7B3F5481F57D0B3F5781F00F0828045
S214001260B3F5401FBAD14748FFF740FF464B044648
S214001270D3F82801C0F3012004302BE0FFF70AFB67
S214001280414BD3F80C31C3F308230133B0FBF3F022
S21400129038BDFFF7FFFA3C4BD3F80831F3E7FFF70A
S2140012A0F9FA394BD3F81431C3F30423EDE7344885
S2140012B0FFF71CFF344BD3F8303103F00303D8405C
S2140012C0E6E72E48FFF712FF2F4B0446D3F820011F
S2140012D000F00F00FFF790FDB4FBF0F0D8E72748CA
S2140012E0FFF704FF284BD3F82031C3F30113E6E7DA
S2140012F02448A5E72348FFF7F9FE234B0446D3F816
S2140013002801C0F30110E5E72048FFF789FE013801
S214001310072824D801A353F820F000BF1F120000AE
S2140013205F1300005F130000431300005F1300000C
S2140013305F1300003D1300004B130000144B1868A9
S214001340A6E7BDE83840FFF7E1BAFFF7A3FA0E4B71
S214001350D3F80031C3F3042303FB000098E741F2FF
S214001360B05159E7FFF796FA044628461CF06FFD81
S214001370B2E700BF06000E003861020002001E0041
S214001380050024000300200000400E40B800320094
S21400139038100020014B1880704700BF44240020FE
S2140013A0013838B50C46032864D8DFE800F002445C
S2140013B01A2FB1F5007F04D3324842F6113106F0F9
S2140013C067FE314AC4F30804D2F86838002BFBD114
S2140013D02E4A136A23F4FF7323F001032343136298
S2140013E038BD7F2904D9274842F61E3106F050FE44
S2140013F0254A04F07F01D2F86038002BFBD1234B3E
S2140014001C6924F07F040C431C61E9E77F2904D99A
S2140014101C4842F6393106F03BFE1B4A04F07F01B9
S214001420D2F86438002BFBD1184B9C6924F07F045B
S2140014300C439C61D4E7154DD5F890305B0704D576
S214001440104842F6493106F023FE6B6A23F030035B
S21400145043F010036B62C4F3C311CB1C2A6B0C4918
S2140014600F2B01EA020128BF0F23214341EA037133
S2140014702963B5E7BDE83840024842F6633106F016
S21400148007BE00BF386102000020C84300400E407F
S21400149000F8FF0F022810B50C4604D0144842F698
S2140014A07B3106F0F5FD134B5B6A13F0300F1BD053
S2140014B0202C16D0302C17D0B4B10D4842F69631F9
S2140014C006F0E6FD0C4B0B4AD2F8901033EA010109
S2140014D0FAD15B024ABFD2F8A0000120C0F38020F8
S2140014E010BD4FF40003EEE74FF44003EBE700BFF8
S2140014F03861020000400E40FF33E107022808B5BD
S2140015000CD129B1094B4FF48060C3F8A800596686
S2140015104AB1BDE808400220FFF7BCBF044842F6C7
S214001520CC3106F0B5FD012008BD00BF00400E40DE
S2140015303861020004282DE9F04704460F4691461C
S2140015401FD83D4B3D4A13F800A03D4B13F80080D2
S214001550F1B93C4B33F810301366012303FA08F850
S214001560D2F8903013EA080FFAD1B9F1000F5AD02A
S2140015700125324A05FA0AF5D2F890302B42FBD103
S21400158051E0BDE8F047304842F6602106F080BDE5
S2140015902E4B022833F8106047D1536A13F0300FF1
S2140015A043D12B4BDB6B5A0504D4274842F66F21F8
S2140015B006F06EFD214A536ADB0705D5536A23F011
S2140015C0300343F010035362224D1C4BA8441E66A2
S2140015D04FEA8808D8F80030002BFBD0B9F1000F8E
S2140015E021D05544AD002B68002BFCD0022C1AD11C
S2140015F0CFB1124F796A11F0010118D001222021D3
S2140016002046FFF77BFFD7F89C40012200210220EE
S214001610FFF790FFC4F30A010220FFF7C1FE3E6603
S2140016202B68002BFCD0BDE8F0870027CCE72046CF
S214001630FFF730FFE7E700BFA261020000400E4060
S214001640A7610200B661020038610200AC610200C8
S21400165000300E408004F21038B5FFF757F900212D
S214001660044600F003FA1248FFF77AFB01221146FF
S2140016700220FFF75FFFFFF7CDFB0CB1FFF7DEFBA5
S2140016800C4B02225A67FFF705F9FFF769FBFFF7D5
S2140016902BF90546FFF7E0FB01462846FFF7F2FB6D
S2140016A02CB920460121BDE8384000F0DFB938BD2E
S2140016B00148E80100400E4010B504461120FFF72F
S2140016C0AFFC042804D1274842F6FB0106F0E0FCF4
S2140016D0012200210220FFF72DFF63781BB9A378B3
S2140016E00BB9E37823B11F4842F6371106F0D0FC59
S2140016F0237C012B04D11B4842F63E1106F0C8FCA1
S214001700194A217C536A23F00103022908BF43F0DB
S21400171001035362154B2178C3F8A014637AA1889D
S21400172043EAC123D362136BA07A217A03F07F6366
S2140017300343E08843EAC02343EAC11303310F2979
S21400174028BF0F2143EA01731363A37B617B1B0150
S21400175043EA0133E17B0B43217B43EA01435363B6
S21400176010BD00BF3861020000400E400000C843B4
S21400177070B505461120FFF753FC022804D10F4828
S21400178042F6B91106F084FC0D4E0E4BB26B2C7867
S21400179013401C436B7844EAC324AB7844EA0364E2
S2140017A0EB7844EA0324B36BA34205D00021012260
S2140017B00846FFF7BFFEB46370BD00BF3861020085
S2140017C000400E4080E4FFF8034B5868C0F3080062
S2140017D0003818BF0120704700ED00E0436823F092
S2140017E01F030E2910D8DFE801F008080808080BC8
S2140017F00B0B080808080B0B0B00194341607047D9
S214001800194341F01001F9E7024840F26D1106F065
S2140018103FBC00BFE861020070B5064615460C46A0
S21400182021B909484FF4C37106F032FC214606F18F
S21400183020001CF038FB102D05D104F11001BDE886
S21400184070401CF030BB70BDE8610200034BD86BE3
S21400185080F04000C0F38010704700BF00300E409C
S21400186038B542EA0323B3F5007F05460C463ED062
S21400187019D8B3F5807F36D00AD883B3012B21D090
S2140018801F4840F6312106F003FC002213461FE0F5
S21400189040F201129342F3D11A4BD3F824321A0EB7
S2140018A0C3F3074314E0B3F5407F24D040F201327F
S2140018B0934210D040F201229342E1D1114BD3F86B
S2140018C0283202E00F4BD3F82432C3F30722DBB2F0
S2140018D02B60226038BD0B4BD3F82832DFE7094B6C
S2140018E0D3F81C32F1E7074BD3F81C32D7E7054B89
S2140018F0D3F82032E9E7034BD3F82032CFE700BF16
S214001900176202000081E00F08B5FFF79FFF20B1C5
S214001910024AD2F8C830002BFBD108BD0000C643EF
S2140019201A4B022810B5D3F830320C4612D00328D2
S21400193013D0012814BFDBB2C3F307231B0323F421
S2140019407042ECB95AB14FF41C61114806F0A0FB86
S214001950002010BDC3F30743F0E71B0EEEE70D496A
S214001960CA6E22F470421343CB660120F1E70949A0
S214001970D1F8EC2022F470421343C1F8EC30F4E7BF
S214001980002AF4D040F6CC11DFE700BF0081E00F5C
S2140019901762020000300E400378134A002B43788B
S2140019A070B514BF04260026002B8378946914BFF4
S2140019B002250025002B037924F03F0443EA0403A4
S2140019C0C47814BF08210021012C08BF43F001038E
S2140019D033432B430B4393611368417923F440331D
S2140019E043EA0143136070BD00300E40F8B504466C
S2140019F00F46FFF72BFF78B3FFF786FF174B5B68A2
S214001A00C3F301439C4227D0154BD3F80061FEF781
S214001A1041FF022C05460FD1124BC6F3042606FBE7
S214001A2000069E4204D9104840F2577106F030FB7B
S214001A3002212846FFF726FAC4F10202102393403B
S214001A40064A13610FB1FFF75FFF2CB921462846FF
S214001A50BDE8F840FFF716BAF8BD00BF00300E40EC
S214001A6000400E40002D31011762020013B50246F9
S214001A70FFF7ECFEC8B152B90D4B0191D3F8004107
S214001A80FEF708FFC4F30422019902FB0002094B8B
S214001A901B7843B1084B9A4205D8022002B0BDE835
S214001AA01040FFF7A3BF0020F8E702B010BD00BF4C
S214001AB000400E40713A0120002D3101224B4AF6BB
S214001AC0E85210B5596B5A639A6FD207FCD41B6C58
S214001AD013F003031EBF1D4A0124C2F8B44A834212
S214001AE004D110B9194BC3F8B40A10BD032B00D0AB
S214001AF09BB9431E012B10D8134A4FF40023D36220
S214001B00936FDB07FCD4136C23F0030343F001034D
S214001B1013640D4A536A1C03FCD50B4B9A6FD2070D
S214001B20FCD41A6C22F0030202431A649A6F12F075
S214001B300102FBD10038054C18BF01200129C4F86A
S214001B40B40A08BF5A63D0E700300E400000C64310
S214001B502DE9F04FA0F5E16389B00024B3F5966F48
S214001B60CDE90244CDE90444CDE9064406468A465A
S214001B70934605D940F6BA31554806F089FAA3E0EF
S214001B80B0F5E16F534B8CBF0122002249D1D3F848
S214001B901832C3F30721DBB2079104934FF416758E
S214001BA04FF4966748E0BBF1000F0ED0D9F85C20E2
S214001BB022F4FE4222F00202B6F5E16F42EA01226A
S214001BC018BF02200243C9F85C20BAF1000F26D0E5
S214001BD020460021FFF7A4FE044610B940F6174140
S214001BE0CAE701214046FFF79BFE044610B940F6BF
S214001BF01F41C1E7384A536EBD4238BF3D4623F405
S214001C00FF73E72D23F0010328BFE725B6F5E16F44
S214001C1018BF43F0010343EA4503536654E001242A
S214001C2052E0D3F81832190EC3F307430791049312
S214001C304FF496654FF4E167DFF89C90D9F84C4076
S214001C400192C4F30174234605A902A8FFF708FE13
S214001C50D9F8EC30019AC3F30128434606A903A835
S214001C60FFF7FEFD049BF01B079FF91A4143B1FBEB
S214001C70F5F299182CBF012300238F421ED3EBB92F
S214001C80069A039FD31B4343B3FBF5F3FF182CBF01
S214001C9001230023BA4211D383B9059B029AA3EB12
S214001CA0020C00FB0CF0B0FBF5F555192CBF01201B
S214001CB00020AB4202D300283FF475AF044840F63C
S214001CC0084106F0E5F90024204609B0BDE8F08F8B
S214001CD0176202000081E00F00300E40334A08B55C
S214001CE0136FD16C11F0010F03F0060344D0002BE4
S214001CF042D0132857D9143813288CBF1023082332
S214001D002A49013BCA6C180322F47F4240EA0323A7
S214001D101343CB64264BCA6C1B88C2F303222833BA
S214001D20013202EB820003EB5303B3FBF0F3C86C03
S214001D30013B072B28BF072320F0EE6040EA036331
S214001D4043F48013CB641B4BB3F90030002B12DB3B
S214001D5003F12800C0F34E030344500800EB420290
S214001D60B3FBF2F20B6D072A28BF072223F070039D
S214001D7043EA02120A6508BDD16C01F0010119435D
S214001D8004D109280FD90A380928B6E7D26CD20739
S214001D9002D50BB92728B0E7074840F65D4106F0A4
S214001DA077F90023ACE70423AAE700BF00300E4013
S214001DB0423A0120443A0120176202000C4BD3F845
S214001DC0803910B5044633B9012804D9094840F6CD
S214001DD07B4106F05DF9084A136F23F0070323439F
S214001DE01367064BBDE810401888FFF777BF00BFA3
S214001DF00000C6431762020000300E40403A012041
S214001E0038B55A4B02229A639B6B03F00F0393423A
S214001E10044607D0564840F6552106F039F9002505
S214001E20284638BD0389C82B04D9514840F65F219F
S214001E3006F02EF9A28823899A4204D94C484FF41A
S214001E40266106F025F9B4F90C30C82B04DD4848A5
S214001E5040F6612106F01CF96378012B55D1A38862
S214001E60C82B04D940F66521414806F011F9E288EE
S214001E7042F210739A4204D93D4840F6722106F0A9
S214001E8007F9E3884A2B48D9B3F5FA7F47D340F6DB
S214001E90C312934294BF4FF000524FF04052334962
S214001EA0B4F90C00CB6C23F0405323F00103002858
S214001EB0A8BF43F001031343CB64D1F8EC30A288EB
S214001EC043F44073C1F8EC302A4B1A80CB6E43F0D3
S214001ED08073CB66284BD3F8800900B10420FFF747
S214001EE06DFF264B21891980254BB4F90C20A0885C
S214001EF01A80FFF7F3FEA37BA3B1012B22D01C4868
S214001F0040F6711106F0C4F80FE0022BAFD1A3889B
S214001F100A2BACD940F66A21A6E70022BFE74FF0AD
S214001F208052BCE7114B174A9A6501226088114619
S214001F30FFF70EFE054640B90D4840F6A92106F00B
S214001F40A7F86DE7094B104AEEE7084AD36B43F44F
S214001F508063D3636078FFF7B1FDA37AA3F1200214
S214001F6053425341044AC2F8943759E700300E40B2
S214001F7017620200403A01200000C643423A0120A0
S214001F80443A012077402057372110B738B50D4620
S214001F90044640B3012829D002282AD003282BD093
S214001FA004280ED005282AD0831F012B09D908281B
S214001FB028D0092828D00A2803D10723EB40DB07BE
S214001FC004D4134840F22D4106F062F830200C236A
S214001FD010FB043404F18C44012104F5204401FA7A
S214001FE005F5256038BD40F2FF33E7E74FF6C073CE
S214001FF0E4E740F6FF73E1E74FF47F43DEE74FF692
S214002000FF73DBE70F23D9E74FF44043D6E700BF63
S2140020104362020038B50D46044640B3012829D075
S21400202002282AD003282BD004280ED005282AD030
S214002030831F012B09D9082828D0092828D00A2868
S21400204003D10723EB40DB0704D4134840F2FE31EC
S21400205006F01EF830200C2310FB043404F18844EC
S214002060012104F5204401FA05F5256038BD40F24B
S214002070FF33E7E74FF6C073E4E740F6FF73E1E7A8
S2140020804FF47F43DEE74FF6FF73DBE70F23D9E716
S2140020904FF44043D6E700BF436202001F2810B546
S2140020A0044603D90648522105F0F2FF054AD2F845
S2140020B0443423F003032343C2F8443410BD00BF66
S2140020C07062020000A00040F8B50D4616461F4696
S2140020D00446C8B301283AD002283BD003283CD097
S2140020E004280ED005283BD0831F012B09D90828C9
S2140020F039D0092839D00A2803D10721E940CB076F
S21400210004D423484FF4B07105F0C2FF26B1294627
S21400211020466FB3FFF73AFF04EB4403072D4FEA60
S21400212003134FF00F0126D8A80006FA00F28140EC
S214002130184818441BF076FF4EBB2946204617B3B6
S214002140BDE8F840FFF722BF40F2FF31D6E74FF672
S214002150C071D3E740F6FF71D0E74FF47F41CDE77B
S2140021604FF6FF71CAE70F21C8E74FF44041C5E7B5
S214002170FFF750FFD0E7A5F10800800006FA00F24E
S21400218081400548D5E7BDE8F840FFF743BFF8BDF6
S2140021907062020004A0004008A0004010B504468B
S2140021A018B91C48912105F073FF23781B0613F01D
S2140021B0784F03D01748922105F06AFFE378072B83
S2140021C003D91448A32105F063FF01214FF4AA4068
S2140021D0FEF768FEB4F8013022785BBA9BB243EA99
S2140021E002630D4A136000231362D36253634FF0F9
S2140021F00043D3664FF0FF339366084A4FF40071EE
S214002200C2F88011E3785B01DBB282F80933116013
S21400221010BD00BF9D62020000200E4000E100E0FD
S2140022202DE9F041C3B20126072805460C46904624
S21400223006FA03F603DD3A48EC2105F029FF1CB93F
S2140022403748ED2105F024FF236823F47C1323F0A0
S2140022500F031BB13248F22105F01AFFA37A1B04C4
S21400226013F47C0F04D02E4840F2091105F010FF3D
S214002270E37A1B0513F07E6F04D0294840F20B1159
S21400228005F006FF237B5B0513F0FE5F04D02448B1
S21400229040F20D1105F0FCFE224F637BBE66302037
S2140022A000FB05702268C0F88020C0F88830E37A0A
S2140022B0A27A1B0543EA0243227B43EA425328F0F4
S2140022C00302C0F88430C0F898201BF0CCFDFB6EEB
S2140022D03343FB66237A13B17B6B33437B63637AAA
S2140022E013B1FB6A3343FB620E4B1A68237923B1A2
S2140022F0DB431B0263F47F431A4063790BB142EA67
S2140023000322A3790BB122EA0302E3791A43054BB1
S2140023101A60054A9662DE63BDE8F0411BF0A9BD6F
S2140023209D62020000200E4000200E4410B5C3B28D
S2140023300124072804FA03F404DD094840F2971143
S21400234005F0A6FE1BF08FFD064AD36E23EA0403B3
S214002350D366054B1C62BDE810401BF08ABD00BF6B
S2140023609D62020000200E4000200E44F8B50728AB
S214002370C3B24FF00105044605FA03F504DD0E4826
S2140023804FF4EE7105F084FE1BF06DFD0B4B302212
S2140023901E6E9F6A02FB0433D3F88C401BF069FD67
S2140023A03D4206D1C4F30A1008B9354200D10130C7
S2140023B0F8BD0020FCE700BF9D62020000200E4032
S2140023C010B50D4C63685B0304D50C4840F203312E
S2140023D005F05EFE636813F4403F04D007484FF4F0
S2140023E0417105F055FE064B41F671321A649A6843
S2140023F022F001029A6010BD00300E40F662020024
S21400240000000E40034B9A6822F001029A600022F8
S2140024101A64704700000E40094A0A4BD969C9077A
S21400242005D512B96FF002007047013AF6E7002AA8
S214002430F8D001221861DA60D86940F3800070474E
S2140024408096980000000E4070B505460C4611B305
S214002450134B1A68134B9A4204D8134840F2F731CC
S21400246005F016FE114A0023082055F82310916146
S2140024700F49D0600133D669F60705D511B96FF05C
S214002480020009E00139F6E70029F8D0D16989078A
S21400249003D49C42E9D1002070BD6FF00100FBE739
S2140024A0041000203F420F00F662020000000E40BB
S2140024B0809698002DE9F8432F4B1F6C144610F0B9
S2140024C0030F41F6713280460E46BFB21A6404D03E
S2140024D02A4840F2444105F0DBFDA20704D0274815
S2140024E040F2474105F0D4FD254D6B685B0304D5EB
S2140024F0224840F24B4105F0CBFD6B6813F4403F99
S21400250004D01E4840F24C4105F0C2FD1A4A9368BA
S214002510A40843F0010393600FD1184840F25441D9
S21400252005F0B6FD2046144B9A6822F001029A6028
S2140025300FB100221A64BDE8F8834FF0000908EBDB
S21400254089052846FFF768FF0028ECD1C5F30A0581
S214002550C5F50065AD08A4EB09018D4228BF0D4600
S21400256029463046FFF770FF0028DCD1A9444C45C9
S21400257006EB8506E3D8D6E700000E40F6620200BA
S21400258000300E40304B70B541F671321C6C1A6448
S214002590C0F30A030546A4B223B12C4840F2BA4160
S2140025A005F076FD2A4E73685B0304D5274840F293
S2140025B0BD4105F06DFD736813F4403F04D0234819
S2140025C040F2BE4105F064FD1F4B9A6842F00102DE
S2140025D09A6001221D61DA60DA69500709D59A68A7
S2140025E022F001029A600CB100221A644FF0FF300C
S2140025F026E00222DA60174AD969C90700D56AB907
S214002600D86910F002000BD09A6822F001029A6096
S2140026100CB100221A646FF0010011E0013AEBE7FA
S21400262042B9996821F00101996004B11A646FF00B
S214002630020005E09A6822F001029A600CB1186464
S21400264070BD2046FCE700BF00000E40F6620200A8
S21400265000300E4080969800022838B504460D4695
S21400266003D911484C2105F013FD6B791F2B03D9B4
S2140026700D484F2105F00CFDAB786A789B0143EAC4
S21400268082032A781343EA7843EA02132A7943EA54
S214002690C2236A7943EA0233AA79043443EA4243FE
S2140026A02401024A135138BD226302000020044070
S2140026B0014B1860704700BF0000844242780179E1
S2140026C00378002A827870B514BF04260026002AF4
S2140026D0C27814BF10250025002A42794FEA02323C
S2140026E042EA012242EA0302837914BF202400242E
S2140026F0002BC37942EA034343EA0603027A43EA1D
S214002700050314BF4FF4004100212343002A14BFE1
S2140027104FF4003200220B431343014A136070BD8E
S2140027200020044010B5044618B91048572105F09B
S214002730AFFC0F4AD2F8E430D2F8E0109B0003F06A
S2140027403C03C1F381110B43A370D2F8E03003F0D1
S2140027503F036370D2F8E830D2F8EC2003F0F003C1
S214002760C2F303121343237010BD00BF4F63020071
S21400277000FF0FE02DE9F04180460E461F46154645
S21400278022B931484FF4A17105F082FC1EB92F48DA
S214002790FEF710FD0646402F2AD009D8A7B1202FF5
S2140027A01CD0BDE8F041284840F2891105F070BC05
S2140027B0602FF6D1B5EB960F04D9234840F283116B
S2140027C005F066FC04241DE0B5EB161F04D91E4870
S2140027D04FF4BA7105F05CFC102413E0B5EBD60F8D
S2140027E004D9194840F2791105F052FC082409E092
S2140027F00624B6FBF4F3AB4204D213484FF4BF7181
S21400280005F046FC6C43610801EB4616B6FBF4F493
S2140028100F4E203CB6EBC40F4FEAC40504D20A485C
S2140028204FF4D07105F034FCD8F8003023F0600384
S214002830C8F80030D8F8003035401F43C8F800709C
S214002840C8F81450BDE8F0817E63020040410500E0
S214002850F8FF7F0070B506460C46154622B90D48AF
S21400286040F28E2105F014FC1CB90B48FEF7A2FCC2
S21400287004460A4B6D00013CB4FBF5F413EA04234E
S2140028804FEA042504D0034840F2B32105F000FCCB
S214002890756170BD7E63020040410500070080FF41
S2140028A038B50E4B984204460D4610D003F58063AB
S2140028B098420CD003F58063984208D003F58063F5
S2140028C0984204D006484FF4337105F0E1FBEB4321
S2140028D05B0003F00A03E360E56038BD00000140DA
S2140028E07E63020038B51E4B1E4D984204460ED03D
S2140028F0A8420CD003F50063984208D003F5806325
S214002900984204D0184840F2424105F0C1FB40F618
S214002910AA63E36041F20502002323606260134A63
S214002920A3606361E364A26423666367A367E367E7
S2140029300B4B9C4209D0AC4207D003F500639C4287
S21400294003D003F580639C4201D100232365002356
S214002950AC42A36502D0064A944200D1E36538BD76
S21400296000000140000401407E630200F9FF010000
S214002970000C014038B5294B984204460D4610D04D
S21400298003F5806398420CD003F58063984208D024
S21400299003F58063984204D0214840F2FD2105F0FB
S2140029A077FB2046FFF79EFFAB7C1BB1236843F006
S2140029B080432360EB7C1BB12B7D43F08003A36533
S2140029C02A8A6B7B1343EA89134363602B7BD5E922
S2140029D001122046FFF7CEFE6B7D1BB1236843F441
S2140029E080332360AB7D1BB1236843F40043236030
S2140029F0EB7D2A7E1B07120502F4E00203F0E0439B
S214002A0013432366636F23F030036367626F6B7E46
S214002A10134363672B78E36038BD00BF00000140B6
S214002A207E63020038B52D4B984204460D4610D002
S214002A3003F5806398420CD003F58063984208D073
S214002A4003F58063984204D0254840F2693105F0CA
S214002A501FFB2046FFF746FFA97B2A8A236800292A
S214002A6042F0010214BF4FF48061002113430B4370
S214002A702A7D23602368002A14BF4FF000520022EC
S214002A8013432360AB7C1BB1EB7C43F08003A36550
S214002A902B7B43F480536360D5E901122046FFF791
S214002AA0D9FE6B7B0BB11023E3606B7D1BB12368F3
S214002AB043F480332360AB7D1BB1236843F40043AB
S214002AC02360EB7D2A7E1B07120503F0E04302F429
S214002AD0E002134323662B78E36038BD0000014014
S214002AE07E6302002DE9F047374FDDE9088406468D
S214002AF0154699468A4641B9082323704FF4D96390
S214002B00A360324B6760E360FEE75AB1531E134280
S214002B1008D00823237040F2CB63A3602B4B67607A
S214002B20E360FEE71BF09FF9002D08BF04254D4526
S214002B3038BF4D46D6F808E06B1E13EA0E0FC5F1F7
S214002B40000202EA0E0208BF0025154409F1FF3311
S214002B50AA4413EA0A0FC9F1000202EA0A0208BFF1
S214002B604FF0000902EB090372680132A2EB0E0176
S214002B70A3EB0E0E7145844615491AD2B8F1000F24
S214002B8002D09B1AC8F80030162540F22273C4E91A
S214002B9002312570676060461BF06BF940F2D76320
S214002BA0A3600A4B25706760E36000252846BDE8F1
S214002BB0F087B360002323704FF4E563C4E9023165
S214002BC067601BF056F9F1E7AC630200046402008C
S214002BD0EC63020030B50C4685B011461D461BB9A5
S214002BE003921BF03DFA03990648019500230093D3
S214002BF004220123002C18BF2046FFF773FF05B000
S214002C0030BD00BF3C1000201FB50C4B1B78012BBD
S214002C100AD1FEF7D9FD002814BF6FF005004FF06B
S214002C20FF3005B05DF804FB684600F053FB9DF8E6
S214002C300000003818BF01204042F2E77B5E01200A
S214002C40084B187801280AD1074B1B78012B07D1AF
S214002C50064B1B78002B14BF032002207047002071
S214002C60704700BF785E01207B5E01207C5E0120FD
S214002C701FB5FEF7A9FD48B9074B1B78012B02D0FC
S214002C80684600F08DFA4FF0FF3001E06FF0050067
S214002C9005B05DF804FB00BF7B5E01201FB5FEF7A4
S214002CA093FD70B9094B1B7873B9684600F0E6F9D6
S214002CB09DF80000003818BF0120404205B05DF8BE
S214002CC004FB6FF00500F9E70120F7E77C5E0120C2
S214002CD030B585B00546FEF777FD18B100242046CE
S214002CE005B030BDEDB92C2012F0D0FB044600280C
S214002CF0F4D00123174980F8243000256B46A562DE
S214002D002A46204600F096FF9DF80030002BE6D0BD
S214002D1094F82430012BE1D1204612F0BFFB2C465C
S214002D20DDE7AC6874B92C2012F0B0FB044600282E
S214002D30D4D0012384F824302968064B002908BF24
S214002D401946DAE7EB682B2BC8D914F00303F1D049
S214002D50C4E700BF1964020030B585B00546FEF72B
S214002D6033FD18B10024204605B030BDC5B930206B
S214002D7012F08CFB04460028F4D00123194980F891
S214002D802C306A46204601F09DF99DF80030FBB1D4
S214002D9094F82C30012BE5D1204612F07FFBE1E7BA
S214002DA0AC6874B9302012F071FB04460028D9D004
S214002DB0012384F82C3029680A4B002908BF1946DD
S214002DC0DFE7EB682F2BCDD914F00303F1D0C9E76A
S214002DD035B16B68DB0703D5012384F82D30C2E7D5
S214002DE00023FAE7929902007FB504460E46154680
S214002DF0FEF7EAFC18B10024204604B070BD002C93
S214002E00F9D0D5B92C2012F041FB04460028F2D0A8
S214002E100123164980F824306B463246204601F0DE
S214002E20EFFC9DF80030002BE6D094F82430012B00
S214002E30E1D1204612F032FBDDE7AC6874B92C20F5
S214002E4012F024FB04460028D5D0012384F8243051
S214002E502968064B002908BF1946DDE7EB682B2BCF
S214002E60C9D914F00303F1D0C5E700BF24640200FB
S214002E702DE9F04F8FB081468A461646FEF7A4FC31
S214002E8008B1002440E0B9F1000FFAD0002E3FD17F
S214002E904FF4847012F0FAFA04460028F1D00126A6
S214002EA080F800614FF4806012F0F0FA05460028C2
S214002EB0E7D0434F84F801614FF480681F260DF178
S214002EC0280B00223F495B4604F1B00000F0B2FE3A
S214002ED09DF82820002A52D10723CDE906233A4B35
S214002EE0CDF820B003EA9803CDE90223CDE9042209
S214002EF05346CDE900654A463946204601F05AFD5C
S214002F009DF82830002B3AD120460FB0BDE8F08F50
S214002F10B468E4B94FF4847012F0B8FA0446002896
S214002F20AFD0012384F80031D6F81480B8F1000F32
S214002F302DD14FF4806012F0A9FA054678B994F8BE
S214002F400031012B9DD1204612F0A8FA99E7F368CC
S214002F50B3F5847F95D314F00303E3D091E7012300
S214002F6084F801314FF480683768154BB669002F36
S214002F7008BF1F46FEB1731C1FD0372E17DD94F80E
S214002F800131012BDBD1284612F088FAD7E73569E4
S214002F904DB9404612F07AFA05460028CFD00123F4
S214002FA084F80131E0E715F00703F9D0C7E7C6F16A
S214002FB03706F6B283E71F2681E740267FE700BF85
S214002FC02E64020038640200FEFFFF3F034B1B78AE
S214002FD0012B06BF024B1868002070477B5E01205D
S214002FE0583F00202DE9F0411D4B1B78012B00D0E7
S214002FF0FEE71C4B1F788FBB1AF035FF1A4D1B4E91
S21400300095F80080044601F047FA402803462870E9
S21400301013D00C20164A4343B8F1400FD358336000
S21400302001D1AFF30080134B32681B689A4205D17A
S2140030302046BDE8F0411AF01CBF37600E4A136800
S214003040013313602B78402B01D1AFF3008001F0E1
S21400305012FF20461AF00DFFBFF36F8FBDE8F08118
S2140030607B5E01207C5E01207A5E01205C3F0020B2
S214003070543C0020583F0020603F00202DE9F041DE
S214003080044608B91AF0ECFFFEF79EFB194E1A4DDF
S214003090074638B12023237040F22133C4E90235B5
S2140030A06660FEE7154B1B78012B08D002232370C1
S2140030B0666040F22533C4E90235BDE8F081DFF8EA
S2140030C0408098F80030F92B05D91E2323706660DF
S2140030D040F22A33EFE71AF0C6FE98F800300133C4
S2140030E088F800301AF0C5FE2770666040F2353367
S2140030F0E1E700BF48640200CF6402007B5E012067
S2140031007C5E01202DE9F041044608B91AF0A8FFBC
S214003110FEF75AFB1E4F1F4E38B12023237040F295
S2140031204D33C4E902366760FEE71B4B1B78012B64
S21400313008D002232370676040F25133C4E9023698
S214003140BDE8F081DFF8548098F800302BB91F23D3
S2140031502370676040F25633F0E71AF084FE98F862
S2140031600050013DEDB288F800503DB11AF081FEE6
S2140031702D232370676040F25E33DFE71AF079FE96
S214003180FFF730FF257067604FF45A73D6E700BF2D
S21400319048640200C16402007B5E01207C5E012060
S2140031A070B5044608B91AF05BFF254B1E78012E51
S2140031B009D013232370234B636040F2FE33A360D1
S2140031C0214BE360FEE7214B1B884BB90923237094
S2140031D01C4B636040F20943A3601B4BE360FEE7B1
S2140031E01B4D2B784BB11F232370164B636040F2A8
S2140031F00C43A360144BE360FEE71AF03DFE48B1B3
S2140032001F2323700F4B636040F20F43A3600E4BE7
S214003210E360FEE701F040F90E4B0F4A18700F4BC3
S2140032202E7018700C2358430D4B1B5813600D4A14
S214003230136001F0E1FDBDE870401AF011BF00BF59
S214003240785E012048640200B9640200523A012008
S2140032507B5E01207A5E01205C3F0020795E0120C3
S214003260543C0020583F002030B14368C1F8AC30D1
S2140032708368DB68C361704791F83030022B03D057
S214003280072B05D0034B00E0034BC1F8AC3070476A
S214003290024BFAE7B1850200846402008B640200E8
S2140032A0044BC1F8AC3018B1826802B1D368C36170
S2140032B0704700BFB1850200054B40220021013A4D
S2140032C0C3E90011198103F10C03F8D1704700BF60
S2140032D0543C002070B5044608B91AF0C1FE654D8E
S2140032E06A68D2B12B68644E4BB92346296B634893
S2140032F09200FFF76FFC306023780BB170BD33602F
S2140033005F4B32681A605F4A6B6813605E495F4ABB
S2140033109B0013600A6813440B602A89BAB10C2616
S2140033202346296B5A487243FFF754FC594B1860E2
S2140033302378002BE2D1584B584A18602B8913800B
S2140033405149574A734313600A6813440B60554E3D
S2140033506B6B336001F002FE03F072FC054648B169
S21400336001232370504B63604FF4DA73A3604F4B16
S214003370E360C3E703F0E2FC36684D4BB04202461A
S214003380186009D209232370474B63604FF4DD733E
S214003390A360464BE360FEE75AD02B46002001218F
S2140033A011F07CFE7043434BB6F57A7F186008D95F
S2140033B0324600230020012111F070FE4FF47A758A
S2140033C045433D4B1D603D4B002119703C4B197029
S2140033D03C4B19603C4B19603C4B19703C4B1970C8
S2140033E0284B1A68002A35D13A4B00251D603A4B07
S2140033F01D603A4B1D603A4B1D603A4B1D603A4BC0
S2140034001D7001F041F8FFF757FF384B1D60384B31
S2140034101D80224B1B882BBB364A00231360364A7E
S2140034201380364A1360364A1380364A1360364A8B
S2140034302046138001F08EFA2378002B7FF45EAFCF
S21400344000F02CF91AF093FF304B01221A7055E762
S2140034502846A8E70A4B18680028C5D0920021F035
S2140034601FF9C1E7204600F0D9FC2378002BD3D003
S21400347044E700BF50100020643B00209464020024
S214003480683B00206C3B0020603B0020703B002027
S214003490A7640200743B0020783B0020463A0120D7
S2140034A07C3B0020803B002048640200DB64020076
S2140034B08C3B0020883B0020843B00207B5E012064
S2140034C07C5E0120583F00205C3F0020795E012092
S2140034D07A5E01206C3F0020703F0020743F002081
S2140034E0683F0020783F00207D5E01203C3C0020A5
S2140034F04A3A01204C3C00204C3A0120503C002027
S2140035004E3A0120543F0020503A0120785E0120B8
S21400351090F833300B490C22534330B5CA58CC18B8
S21400352032B901252581C0E90422C850606030BD4B
S2140035302589013525810024026144615061C85007
S214003540F5E700BF543C002090F833200B490C23CD
S2140035505A4330B58C588B1834B901251D81C0E903
S21400356004448850586030BD1A8901321A810022FE
S21400357002615A6842611061F4E700BF543C0020C3
S21400358010B5044690F8330000F096FF074B94F809
S21400359033201B789A42204603D1BDE81040FFF73F
S2140035A0D3BFBDE81040FFF7B3BF00BF795E012070
S2140035B070B50446D4E9043590F83300104A0C215F
S2140035C09DB953B94143551853502B816B6000F099
S2140035D089FF0023C4E9043370BD484316183189B7
S2140035E0013931815D611350F3E701FB0022118937
S2140035F0013911812B610BB95560EAE75D61E8E797
S214003600543C0020F7B504460D4611B303F096FB74
S214003610114B1A680026571E46F1FF31E5FB007174
S2140036203346384611F03AFDCDE9006601460B4AAE
S214003630234604F150001BF047FC08B11AF010FDB9
S2140036400323204684F8323003B0BDE8F040FFF78D
S214003650AFBF0223F5E700BF803B002043E5010033
S21400366038B50D4D04462868002380F8301080F8E1
S21400367031301146FFF7C6FF5CB1296804F1080037
S214003680CC621AF07AFE29682046BDE83840FFF77B
S214003690EBBD2B68DC62F6E7583F0020754B1B78C5
S2140036A082B0DBB28DF80530734B1B68DBB28DF849
S2140036B00730724B1B78DBB28DF80530704B1B78E9
S2140036C0DBB28DF805306F4B1B68DBB28DF8073028
S2140036D06D4B1B6ADBB28DF807306C4B1B78DBB288
S2140036E08DF805306A4B1B78DBB28DF80530694BD8
S2140036F01B88DBB28DF80630674B1B88DBB28DF873
S2140037000630664B1B78DBB28DF80530644B1B88A1
S214003710DBB28DF80630634B1B88DBB28DF80630C3
S214003720614B1B88DBB28DF80630604B93F828306F
S214003730DBB28DF807305E4B1B78DBB28DF80530B8
S2140037405C4B1B88DBB28DF806305B4B1B88DBB20C
S2140037508DF80630594B1B88DBB28DF80630584B77
S2140037601B88DBB28DF80630564B1B88DBB28DF813
S2140037700630554B1B88DBB28DF80630534B5B8DFD
S214003780DBB28DF80730524B1B78DBB28DF8053074
S214003790504B1B88DBB28DF806304F4B1B78DBB2E4
S2140037A08DF806304D4B1B6ADBB28DF807304C4B5C
S2140037B01B78DBB28DF805304A4B1B88DBB28DF8E0
S2140037C00630494B1B88DBB28DF80630474B1B682A
S2140037D0DBB28DF80730464B1B78DBB28DF806302F
S2140037E0444B1B78DBB28DF80530434B1B78DBB2BD
S2140037F08DF80530414B1B78DBB28DF80530404B19
S2140038001B78DBB28DF805303E4B1B78DBB28DF8AB
S21400381005303D4B1B78DBB28DF805303B4B1B88E3
S214003820DBB28DF806303A4B1B78DBB28DF80530EC
S214003830384B1B88DBB28DF80630374B1B88DBB263
S2140038408DF80630354B1B78DBB28DF80530344BDF
S2140038501B88DBB28DF80630324B1B88DBB28DF846
S21400386006309DF805309DF806309DF8073002B00A
S214003870704700BF8A24002088100020892400207A
S214003880882400208C100020903B00208B240020F1
S214003890725E012046240020482400208C2400204C
S2140038A04E2400204A2400204C240020B43B002054
S2140038B08D24002050240020522400205424002070
S2140038C056240020582400205A240020E03B0020E4
S2140038D08E2400205C240020735E0120103C002013
S2140038E08F240020602400205E24002090100020FA
S2140038F091240020745E0120902400209224002051
S21400390093240020765E0120755E0120642400204A
S214003910942400206224002066240020775E012084
S214003920483A01206824002010B4074C2468A4F804
S2140039308C200022C4F88410C4F8882001215DF889
S214003940044B1A46FFF78CBE583F00202DE9F74F70
S2140039500D9C05468B4617469A460CB91AF080FB16
S2140039600FFA8AF3002B0093C0F23581FDF72CFF87
S214003970002800F02B8120232370A04B636040F2C8
S2140039803513A3609E4BE360FEE71F2323709B4B1B
S214003990636040F23913A360994BE360FEE70223AD
S2140039A02370964B63604FF49F73A360944BE36061
S2140039B04FF0000856E047F6FF630AEA0303581E76
S2140039C001280DD9042B0BD0082B09D0082323700F
S2140039D08A4B63604FF4A373A360894BE360FEE7F2
S2140039E02868884B984209D00C232370834B636069
S2140039F04FF4AC73A360824BE360FEE70AF4807377
S214003A0001930C9B13B10C9A002313601AF02BFA47
S214003A100AF00F09B9F1040F064607D0B9F1080FEE
S214003A203DD01AF026FA1AF01BFB71E02A6A3BEA30
S214003A30020302EA0B0819D1019B13B122EA08021D
S214003A402A62714A12680AB1C2F8888030461AF0B3
S214003A5010FA00222270694A62604FF4BB72A260BC
S214003A60674AE260404603B0BDE8F08F009B002B3B
S214003A7008DA1AF0FEF91D232370604B636040F2EB
S214003A807D1392E7614B1B78002B38D01AF0F1F9C2
S214003A902D232370594B63604FF4C27385E72A6A5F
S214003AA012EA0B0813D0019B13B122EA08022A621D
S214003AB0554A12680AB1C2F8888030461AF0D9F919
S214003AC0002222704D4A62604FF4D172C7E7009B15
S214003AD0002B08DA1AF0CDF91D222270474A6260E0
S214003AE040F2A912BBE7494B1B7843B11AF0C1F963
S214003AF02D222270414A62604FF4D872AFE7284602
S214003B003B4652465946FFF70FFF30461AF0B1F9CA
S214003B103D4EFFF767FA1AF0A6F9336893F831209E
S214003B200023032A41D8DFE802F00222372B237055
S214003B30324B636040F22D23A360314BE360336861
S214003B40D3F88880019B4BB1B9F1040F02D0B9F1CC
S214003B50080F34D12A6A22EA08022A621AF089F982
S214003B6000222270254A626040F26F2277E71AF040
S214003B7080F921232370214B63604FF40E7314E702
S214003B800C9A02B113601AF074F9222323701B4BAF
S214003B90636040F2412308E71AF06BF93123237083
S214003BA0164B63604FF41373FFE600901AF061F94A
S214003BB01AF056FA23780098002BC0D0F8E600904A
S214003BC01AF057F91AF04CFA0098C7E71AF054F9A9
S214003BD000287FF4DAAE0E4B1B78012B7FF4DFAEA5
S214003BE0002D7FF4E8AE0A232370044B636040F296
S214003BF04313A360024BE360FEE700BFE2640200EB
S214003C0029650200464C4147583F00207C5E012053
S214003C107B5E0120054B064AC3610023436113689F
S214003C2083610BB9106070475861FBE7B1850200ED
S214003C303C3C00202DE9F84F05468B4692461C4634
S214003C400BB91AF00DFAFDF7BFFDDFF87C801B4FAD
S214003C50064638B1202323705523C4E90237C4F83A
S214003C600480FEE73DB90A2323705823C4E90237CF
S214003C70C4F80480FEE71AF0F6F82422314681469E
S214003C80284620F00DFD0E4BC5F820A0C5E9003BE8
S214003C9005F108001AF06CFB2846FFF7BBFF094A3F
S214003CA013884846013313801AF0E3F87023267011
S214003CB0C4E90237C4F80480BDE8F88F3465020012
S214003CC0464C41474A3A0120E26402002DE9F041A1
S214003CD005460F4616461C460BB91AF0C1F94B4B63
S214003CE01B78012B0CD002232370494B636040F2F3
S214003CF03233A360474BE36000252846BDE8F081D9
S214003D004DB90A232370424B636040F23733A360F9
S214003D10404BE360FEE747F6FE731E4209D00823D9
S214003D2023703B4B636040F23A33A360394BE36049
S214003D30FEE72A68384B9A4209D00C232370344B8E
S214003D4063604FF45073A360324BE360FEE71AF0F3
S214003D508AF8B6F5004F80460BD048F201039E4223
S214003D6019D036B1012E16D01AF083F81AF078F969
S214003D7002E0296A39432962AF6887B940461AF0DB
S214003D8078F8234B636040F262332770A360214BC0
S214003D902D6AE360B1E7296A21EA0701EBE73846B6
S214003DA07F6AB0F88C3003F00F03042B07D0082B83
S214003DB00FD040461AF05DF81AF052F90EE0D0F82F
S214003DC084102B6A31EA030308D100221AF018FC8B
S214003DD004E0296AD0F884301940F6D1002FDED1ED
S214003DE040461AF046F8330401D4FFF7FBF81AF001
S214003DF03AF82D6A1AF03DF800232370044B6360EE
S214003E0040F2A333A360034BE36076E77B5E0120BA
S214003E10E26402001E650200464C4147134BF0B5B3
S214003E201C68134B1E880025721E04F10C0192B20A
S214003E302B46AFB2BA4212D80C214A43A118A3505F
S214003E400C4A4B600B81D3801381968014600370FC
S214003E50094B43605D238360084BC360F0BD41E9B6
S214003E60031321F8043C01350C31E2E7783B0020CF
S214003E70463A0120403C0020416502007C65020075
S214003E802DE9F74F0C9C0546894616460CB91AF0E4
S214003E90E7F8FDF799FC48B120232370734B636065
S214003EA040F23313A360724BE360FEE74DB90A237A
S214003EB023706E4B63604FF49B73A3606C4BE360A0
S214003EC0FEE7C6F30E034BB108232370674B63600F
S214003ED040F23913A360664BE360FEE72A68654B41
S214003EE09A4209D00C232370604B636040F23D1366
S214003EF0A3605F4BE360FEE736B2002E0CDB19F0E2
S214003F00BBFF48B11F232370584B63604FF4A07368
S214003F10A360574BE360FEE7574B93F800B0BBF146
S214003F20010F17D119F09FFF95F82870DFF8508120
S214003F308246CFB9D8F8003085F828B09A6B6B6205
S214003F402A629D6319F095FF484B636027704FF413
S214003F50AA7305E002232370444B636040F24513C6
S214003F60A360434BE36013E06B6AD8F800209342EB
S214003F701DD1FF2FDFF8F4803D4E0CD119F079FFEC
S214003F801E232370C4F8048040F25D13C4E9023691
S214003F9003B0BDE8F08F013785F8287019F069FF87
S214003FA023232370C4F8048040F26913EEE7002E42
S214003FB008DA19F05EFF1D2323702C4B63604FF464
S214003FC0BB73CDE72D49097841B119F052FF2D2377
S214003FD02370264B63604FF4C173C1E792F8331029
S214003FE093F833208A4202D9184600F0BBFD4A46B1
S214003FF004212846FFF734FB504619F03AFFFEF737
S214004000F1FF19F030FFD8F8003093F83130032B69
S21400401026D8DFE803F002101E1700232370134B88
S21400402063604FF4D073A360114BE36003B0BDE848
S214004030F04F19F01EBF212323700C4B63604FF422
S214004040D573F0E722232370084B63604FF4DA73CE
S214004050E9E731232370054B63604FF4DF73E2E733
S214004060019019F0FDFF0198E0E700BF8B650200A4
S214004070DB6502004D5554587B5E01207C5E0120B6
S214004080583F0020054B0360054B43600023C0E902
S214004090083380F8283008301AF06AB94E4F4E457B
S2140040A0C8650200054B064AC361002343611368D6
S2140040B083610BB9106070475861FBE7B185020059
S2140040C04C3C00202DE9F04705468A4614460AB9BE
S2140040D019F0C6FFFDF778FBDFF878801A4F064622
S2140040E038B1202323705223C4E90237C4F8048071
S2140040F0FEE73DB90A2323705523C4E90237C4F806
S2140041000480FEE719F0AFFE2C2231468146284691
S21400411020F0C6FA0D4B05F10800C5E9003A1AF082
S21400412027F92846FFF7BEFF094A13884846013399
S214004130138019F09EFE6C232670C4E90237C4F87B
S2140041400480BDE8F08700BFF26502004D55545864
S2140041504C3A01208B650200D0E9052332B90749A5
S2140041600B6003B15A6100238361704793610BB9FA
S214004170436170475A6100238361F9E74C3C002095
S2140041802DE9F84305460F4614460AB919F068FFAC
S214004190FDF71AFB064640B1202323704E4B6360A2
S2140041A0A523A3604D4BE360FEE745B90A232370C1
S2140041B0494B6360A823A360484BE360FEE72A6888
S2140041C0474B9A4208D00C232370434B6360AB23C3
S2140041D0A360424BE360FEE7424B1B78012B0BD0FB
S2140041E0022323703C4B6360AF23A3603B4BE3602A
S2140041F007463846BDE8F88319F035FE804667B1B5
S214004200012F35D019F035FE08232370324B63603A
S214004210F323A360314BE360FEE7AB68DFF8B890AA
S2140042202E4ECBB92846FFF797FF2F4A686A1388A9
S214004230013B138010B129461AF00AFA2846FFF708
S21400424021FF404619F015FE00232370C4F80490A1
S214004250C323C4E90236CCE719F00BFE2E232370E5
S214004260C4F80490C623F4E7022200211AF0D8F816
S214004270A868B7B201360028F6D12846FFF76CFFCB
S214004280194A6E6A1388013B13809EB12946304650
S2140042901AF0DEF996F8341096F833308B4209D0CF
S2140042A030461AF0E1F9814228BF0146C9B23046CD
S2140042B000F058FC2846FFF7E5FE404619F0D9FD09
S2140042C0FEF790FE00232370034B6360EE23A3608B
S2140042D0024BE3608DE700BF8B650200E7650200D6
S2140042E04D5554587B5E01204C3A01202DE9F04F85
S2140042F0054685B0894614460AB919F0B1FEFDF7A1
S21400430063FA5B4F5B4E38B12023237040F257238D
S214004310C4E902366760FEE73DB90A23237040F21F
S2140043205A23C4E902366760FEE7C9F30E033BB1C1
S2140043300823237040F25D23C4E902366760FEE777
S2140043402A684D4B9A4207D00C23237040F2612313
S214004350C4E902366760FEE7484B1B78012B09D09C
S21400436002232370676040F26523C4E9023605B075
S214004370BDE8F08FDFF80CB119F075FDDBF8003002
S2140043806A6A9A42824607D019F073FD1B2323708F
S21400439067604FF41B73E8E795F82830013BDBB203
S2140043A085F828303BB119F064FD2323237067603D
S2140043B040F27D23D9E7294610461AF049F9D5F888
S2140043C00880B8F1000F0CD1C5F8248085F8288045
S2140043D0504619F04EFD84F80080676040F28A234C
S2140043E0C3E7DBF8003093F8332093F834100392D9
S2140043F08A421DD0184602931AF036F9884228BF22
S2140044000846039A029B5FFA80F8424510D2184687
S214004410FFF7CEF8DBF80030404683F8338000F034
S2140044204BF8DBF80000FFF78FF8154B83F8008099
S214004430A9686962012385F828308B6B2B624FF0E0
S21400444000088D63434642462846CDF800801AF0A1
S2140044502AF8504619F00DFD19F4004F01D1FEF769
S214004460C1FD84F80080676040F2AD237DE700BFA1
S2140044708B650200CF6502004D5554587B5E0120C7
S214004480795E0120583F0020024B0022C3E900223B
S214004490704700BF343C002008B5064B186828B9A2
S2140044A0586800F09DFC2030C0B208BD00F098FCB3
S2140044B0FAE700BF343C00201F28094A07D84FF00F
S2140044C0004323FA00F01368034313607047012388
S2140044D0C0F13F0003FA00F053681843506070477D
S2140044E0343C00201F280A4B08D84FF0004222FA1E
S2140044F000F01A6822EA00021A6070470122C0F132
S2140045003F0002FA00F05A6822EA00025A6070473A
S214004510343C00202DE9F7430A9C0546884616469B
S2140045200CB919F09DFD0FFA86F9B9F1000F0ADAF9
S214004530BDB90A2323705E4B63604FF49373A36088
S2140045405C4BE360FEE7FDF73FF90028F0D0202340
S2140045502370574B63604FF49173A360554BE36031
S214004560FEE7C6F30E064EB108232370504B636079
S21400457040F22913A3604F4BE360FEE72A684E4BD8
S2140045809A4209D00C232370494B636040F22D13E6
S214004590A360484BE360FEE7B9F1000F0CDB19F0AF
S2140045A06BFC48B11F232370414B63604FF4987334
S2140045B0A360404BE360FEE7404B1B78012B12D113
S2140045C019F051FC2E6A0746DEB1013E2E6219F044
S2140045D050FC00232370364B636040F24313A36005
S2140045E0344BE36009E002232370314B636040F2F2
S2140045F03513A3602F4BE3600026304603B0BDE8BA
S214004600F083B9F1000F08DA19F033FC1D2323708C
S214004610274B636040F25113E1E7294B1B7843B107
S21400462019F027FC2D232370214B636040F25D13A5
S214004630D5E7424606212846FFF712F8384619F015
S21400464018FCFEF7CFFC19F00EFC1E4B1B6893F807
S2140046503130032B25D8DFE803F0020F1D160023A8
S2140046602370134B63604FF4BA73A360114BE3607F
S2140046702E6A19F0FEFBC0E7212323700C4B636003
S2140046804FF4BF73F1E722232370094B63604FF4A6
S214004690C473EAE731232370054B63604FF4C97394
S2140046A0E3E7019019F0E5FB19F0DAFC0198DFE783
S2140046B0006602004566020053454D417B5E0120C0
S2140046C07C5E0120583F00202DE9F34706468946C8
S2140046D014460AB919F0C4FC4EB90A2323703C4BA1
S2140046E0636040F22623A3603A4BE360FEE747F69A
S2140046F0FF5519EA050509D008232370344B63607B
S21400470040F22923A360334BE360FEE73268324B66
S2140047109A4209D00C2323702D4B636040F22F235E
S214004720A3602C4BE360FEE72C4B1B78012B09D0D3
S21400473002232370264B636040F23323A360254B8D
S214004740E36034E019F08FFBB7688046EFB109F4F8
S214004750007A002339461A467F6A0095304619F0DB
S214004760A2FEBAF1000F01D0002FF2D1404619F098
S21400477080FB19F4004F01D1FEF734FC144B636044
S2140047800025257040F26523D8E7356ADFF84090AB
S214004790DFF840806B1C0ED119F06BFB1E232370D4
S2140047A04FF41173C4E90238C4F804903D46284615
S2140047B002B0BDE8F0870135356219F05AFB40F2C9
S2140047C04F23C4E902382770C4F80490EFE700BF0F
S2140047D0006602003B66020053454D417B5E0120A9
S2140047E0054B064AC36100234361136883610BB916
S2140047F0106070475861FBE7B1850200543F002007
S2140048002DE9F84F05468A4693461C460BB919F023
S21400481027FCFCF7D9FFDFF880801C4F064638B12E
S214004820202323705823C4E90237C4F80480FEE727
S2140048303DB90A2323705B23C4E90237C4F8048019
S214004840FEE719F010FB24223146814628461FF069
S21400485027FF0F4B2B6005F10800C5F820B0C5F800
S21400486004A019F085FD2846FFF7BAFF094A138809
S21400487048460133138019F0FCFA73232670C4E906
S2140048800237C4F80480BDE8F88F00BF4F66020008
S21400489053454D41503A0120006602002DE9F04193
S2140048A006460D4614460AB919F0DAFB022DDFF863
S2140048B04C80104F08D90823237040F2FD33C4E91A
S2140048C00237C4F80480FEE719F0CDFA0EB90A4B99
S2140048D01E681E3556F8255019F0CBFA00232370B3
S2140048E040F20543C4E90237C4F804802846BDE810
S2140048F0F08100BFA9660200583F00205B660200F8
S214004900064A0023C0F8A4301368C0F8A8300BB9D4
S21400491010607047C3F8A400FAE700BF643F0020A9
S214004920D0E9292342B90A490B600BB1C3F8A42089
S2140049300023C0F8A8307047C2F8A83013B9C0F8F2
S214004940A4307047C3F8A4200023C0F8A830F6E7C8
S214004950643F0020074A00231360074A1380074A73
S21400496013600370064B436040F61F038360054BDD
S214004970C3607047643F0020523A0120603F002029
S2140049805B6602009D66020010B5B0220446002158
S2140049901FF086FE054BE360402384F8333084F82E
S2140049A03430034BC4F8AC3010BD00BF976602002D
S2140049B0B18502002DE9F04F87B09A46DDE9116314
S2140049C0189C0293169B9DF840B0139FBDF85C9010
S2140049D003910546904604930CB919F041FBFCF789
S2140049E0F3FE5B4A5B4B014630B16260F022C4E9DD
S2140049F0022320212170FEE735B96260F322C4E964
S214004A0002230A212170FEE7B8F1000F06D162608A
S214004A10F622C4E902230A212170FEE736B9626055
S214004A20F922C4E902230A212170FEE74A480068F9
S214004A30B84206D96260FC22C4E90223082121702C
S214004A40FEE70298874206D86260FF22C4E9022386
S214004A5008212170FEE7BBF13F0F07D962604FF4D3
S214004A608172C4E9022308212170FEE728460591D9
S214004A70FFF78AFF364A0599364B626019F0030F36
S214004A8040F20B122170A260E36051D1029B23F02A
S214004A90070306EB8303CDE90079324651464046CC
S214004AA0029300F091FA8642029B0ED932222270BF
S214004AB0274A62604FF49472A260264AE26005902C
S214004AC0029319F0CDFA0598029BAB60049B039AFB
S214004AD06B600023C5E91E33EA60C5F880302860A5
S214004AE0C5E9078A284685F833B085F834B0AE6144
S214004AF0EF63A5F8409000F04FFA19F0B4F90446B9
S214004B0095F83300FFF7D8FC2846FEF71DFD28462B
S214004B10FFF7F6FE114A138801331380104B1B78FB
S214004B20012B20460CD007B0BDE8F04F19F0A1B914
S214004B3019F0020FAAD0BA0030461FF0B1FDA5E763
S214004B4019F097F907B0BDE8F04FFEF74BBA00BF73
S214004B505B660200C066020044640200523A01200E
S214004B607B5E012070B504460D4694F83230072B64
S214004B7008D8013B062B0BD8DFE803F01F22221FC4
S214004B801F222200FF2B1AD0BDE8704019F068BA29
S214004B902046FEF70DFD284684F83350FFF78CFCC0
S214004BA0264B1B68A342204603D1BDE87040FEF7A3
S214004BB0AFBCBDE87040FEF7C7BC84F8335070BD8C
S214004BC094F8303094F8336084F83350013B072B68
S214004BD0DAD801A252F823F0F94B0000BF4B0000D0
S214004BE0894B0000034C0000F94B0000F94B000015
S214004BF0BF4B0000F94B00002046BDE8704019F09E
S214004C00FFBB204619F0FCFBE36A5C6AB54294F8E9
S214004C10333002D2AB42A8D8D1E7B342A5D1204662
S214004C2019F022FD94F83430984228BF184694F8BC
S214004C303330C5B2AB4298D1C1E700BF583F002021
S214004C402DE9F04104460D4609B919F009FAFCF7BA
S214004C50BBFD48B120232B70554B6B604FF4DA73C5
S214004C60AB60544BEB60FEE7534B1B78012B0AD02E
S214004C7002232B704E4B6B604FF4DC73AB604D4BD6
S214004C80EB60BDE8F0812CB919F0EDF84B4B1C68D1
S214004C9019F0EFF819F0E7F894F83230072B804651
S214004CA008D8013B062B0DD8DFE803F04733330F57
S214004CB047333300FF2B72D019F0DBF8BDE8F04124
S214004CC019F0CEB92046FEF773FCA36B13B120464D
S214004CD019F0D7FC204600F067F92046FFF720FEC3
S214004CE0374A1388013B1380FFF74EFEFF2384F8F4
S214004CF03230404619F0BDF800232B702C4B6B6009
S214004D0040F23123AB602B4BEB60BDE8F041FEF781
S214004D1069B994F83030082B3ED8DFE803F0080570
S214004D20083D170505080500204619F04EFB94F8C7
S214004D30323003F0FB03032BC7D104F1500001F01F
S214004D40B9FF0028C1D019F08BF9BEE7E36A5E6AA6
S214004D50204696F8337019F038FB96F8333096F8FC
S214004D6034209A420CD094F833209A4208D1304628
S214004D7019F07AFC96F83410814228BF0146CFB26B
S214004D80002384F8303096F83330BB42CFD0394613
S214004D903046FFF7E7FECAE719F062F9C7E719F0F1
S214004DA068F81F232B70024B6B6040F2072365E701
S214004DB05B660200B66602007B5E0120583F00205C
S214004DC0523A01201FB5054B186800F0F5F8694601
S214004DD00020FFF735FF05B05DF804FB583F0020C4
S214004DE0B0FA80F0704790FAA0F0B0FA80F0704702
S214004DF090FAA0F0704700BF72B64EF62250CEF280
S214004E00000040F2FF01C0F200010170002080F3B4
S214004E10098843F67C70C2F20000016881F30888B6
S214004E2000F00CF945F67960C2F2010045F67A61A9
S214004E30C2F201010A78027043F65870C2F200000E
S214004E4043F65C71C2F200010A680260106880F3E3
S214004E500988EFF3148040F0020020F0040080F38D
S214004E601488BFF36F8FBDE8F04F0FBCBDE800504D
S214004E7006BC62B6084737484FF08051016070475D
S214004E8034484FF0805101607047602080F31188ED
S214004E9043F65872C2F200021168002901BF2E4A7A
S214004EA0136823F0010313600ED0EFF309801EF0A1
S214004EB0100F08BF20ED108A20E9F04F43F6587512
S214004EC0C2F2000529680860744600F0B7F843F699
S214004ED05871C2F2000143F65C70C2F2000003682B
S214004EE00B6045F67962C2F2010245F67A61C2F2BB
S214004EF001010878107044F0040E002B0AD01868E0
S214004F00B0E8F04F1EF0100F08BFB0EC108A80F328
S214004F1009881BE043F67C71C2F200010868A0F124
S214004F201C0080F3088840F20001C0F20011C16145
S214004F304EF2CB61C0F20101816144F6C551C0F268
S214004F40000141614FF6F97ECFF6FF7E002080F328
S214004F501188704704ED00E034EF00E00B4B1A6850
S214004F600B4B02F180421B68013A03EB8203094AAD
S214004F7023F0070313604FF0E023D3F8343F03F029
S214004F804043B3F1404F00D0FEE770476C3B002033
S214004F90683B00207C3F0020024B1B6803B118478B
S214004FA0704700BF6C3F0020024B1B6803B11847D8
S214004FB0704700BF703F0020024B1B6803B11847C4
S214004FC0704700BF743F002010B5029C02EB8402BD
S214004FD022F007024FF0807442E90204164842F8B5
S214004FE00C0C4FF012344FF0033042E905044FF03A
S214004FF0023042E907306FF0020C4FF0113342E9FD
S2140050000A3C42F8201C4FF009334FF0103142E9B9
S2140050100C314FF008304FF0073342E90E304FF0B6
S21400502006344FF00533104642E910344FF004338F
S21400503040F8443D10BD00BFC54D0000024B1B6844
S21400504003B11847704700BF783F002038B50446C4
S21400505020F01FFB0FCC044D0FC594E80F0085E829
S2140050600F00002038BD00BF803F002047F6FF73CA
S2140050709A42F0B56BD002296BD8374D05EBC106C6
S21400508015F83130B078012838BF0120012B4FEADF
S214005090C107044613D1F3781B1A0020984202D3A6
S2140050A0E018C0B2F0BD191AA3EB5101756835F9C6
S2140050B011509542CCBF01F1FF330846EEE7706809
S2140050C00028EFD0B0F90030934204DBB0F902308C
S2140050D09342B8BF13468288FF2A04BFB0F9061071
S2140050E0B0F908C03D440FBF01260026C8214FF086
S2140050F0280C6D78CA1A92FBFCF2324412B2954222
S21400510001DD002A01DA6A1E12B24FF47A7700EB4C
S214005110C2060132F188B66812B213FB016121EAB9
S214005120E171954201F5FA71B1FBF7F104DD00EB90
S214005130C206B6888E42EAD200EBC20232F8040CEF
S214005140884228BF0846A04238BF2046A9E7FF206D
S214005150A8E70020A6E700BF803F002008B5044867
S214005160FFF774FFBDE80840012020F0BCBA00BF7E
S214005170D0660200004870476A2400200048704746
S214005180702400207FB5094B09490222CDE901238E
S2140051904FF08373CDE903134FF0FF300D2301A9C1
S2140051A0059320F032FB07B05DF804FB00D4300016
S2140051B006010C002DE9F74F12F00F0682468846CE
S2140051C091461D4674D10368802B02D0B3F5807FCC
S2140051D071D100F0D9FC002343600360044618F048
S2140051E03BFE5146834651F8043B802B20460CBFBD
S2140051F00822102218F0BEFEB8F1010F0CBF04F111
S214005200800004F18800294618F057FE584618F02A
S21400521027FE04F1800A4E4516D30F2E0DD9B8F19D
S214005220010F39D10D9B103E1E4406F1100356F8AF
S214005230042B45F8042B9E42F9D1204600F0FAFCD8
S214005240002003B0BDE8F08F0C9B99190D9B0191CF
S214005250B8F1010F03EB060712D118F0FDFD019916
S214005260834604F1A00018F028FE0521A160394607
S214005270504618F03FFE584618F0F2FD1036CAE7C2
S21400528018F0EAFD01998346504618F016FE0B4BBF
S214005290236501236365EAE718F0DEFD2946064626
S2140052A004F1880018F026FE304618F0D9FDC4E751
S2140052B06FF02100C5E76FF02000C2E74406514DAD
S2140052C000230C4A0360032910B5026304464363B7
S2140052D00ED10521FCF782FA636823F4407343F489
S2140052E000736360636823F4406343F400636360A1
S2140052F010BD00BF200010002DE9F04F1E460446EA
S214005300924689461F460FCE8BB001AD0FC596E874
S2140053100F0085E80F000025DDF85080099518F08D
S2140053209BFD5146064604F5827018F000FE49467D
S21400533004F5847018F0FBFD394604F5867018F005
S214005340F6FD304618F08CFD604E614BDFF8C4A1C8
S2140053502365DFF8C4B118F07FFDC4F850B0D4F868
S214005360149018F07DFD19F0807F19D0594B2365F5
S21400537018F072FDC4F850B0656918F071FDEB01C5
S21400538040F18C8018F068FD4146054604F58870AB
S21400539018F0D5FD284618F063FD0BB0BDE8F08F79
S2140053A019F4807F1CD14C4B2365013D9023A360EC
S2140053B0636913F4807F494B23650ED018F04CFDCB
S2140053C03946834604F5807018F0B1FD584618F04B
S2140053D047FD434B2365434B63658823A360B8E7CB
S2140053E0002D13DA404B2365404B636518F034FDFF
S2140053F001A9834604F5807018F0A1FD636958463C
S214005400C3F30343099318F02BFD6D42384B236515
S2140054106369DFF808C113F4407F4FF08803A36088
S2140054204FF001006269266560656369C4F850C084
S2140054300ABF01214FF0FF3105F1FF358142C2F36B
S2140054400722C3F307230CD1D20706D5D80704D505
S214005450284B2365284B6365A8E7284B2365284B14
S214005460F9E70131A2D1D10713D4DA0711D5254BBC
S214005470C4F850A06365A06501A904F5807018F013
S21400548056FD099B03F00F03C4F848318323A3603D
S2140054908CE71D4B23651D4B6365EDE718F0DCFCC0
S2140054A004F5807639460546304618F040FD284615
S2140054B018F0D6FC164B236518F0CEFC4146044681
S2140054C0304618F03CFD204665E700BFC93E81988F
S2140054D03084880198390100C93E8101D23E82019C
S2140054E0C024D0340982010090A2848899830100E8
S2140054F0D9080100C8340981E20C8201C80881E29B
S2140055000C82010081E2148283D91081E2148201A8
S214005510E010010083D9341135393801DB3E010033
S2140055202DE9F04F8BB080460C4615460021202210
S21400553002A81E461FF0B4F84FF00A094FF0000A02
S21400554098F80030022B40D0032B07D0012B44D014
S2140055506FF0710318460BB0BDE8F08F202202A949
S2140055603046A8470346002BF4D100F00DFB98F810
S21400557000108346FFF7A4FE18F06EFC02A907464B
S2140055800BF5827018F0D3FC384618F069FC3B4BDC
S214005590CBF85030584619F04CF918F05DFC0BF576
S2140055A08077019002A9384618F0C9FC019B18467E
S2140055B018F056FC029B012B17D8584600F03AFB11
S2140055C0B9F10109BCD12E4BC4E71C2202A9304612
S2140055D0A8470346CDF824A0C5E7182202A93046FE
S2140055E0A847CDF820A00346F4E718F035FC04F1F0
S2140055F00C06054621460BF5847019F01EF9314657
S2140056000BF5867019F019F904F118010BF588707E
S214005610019119F012F9284618F022FC194BCBF824
S2140056205030584619F005F90199384619F03BF9FB
S2140056300346E8B9144BCBF85030144BCBF8543033
S214005640584619F0F6F82146384619F02CF9034664
S21400565070B90F4BCBF850304FF48E73CBF85430F4
S214005660584619F0E6F83146384619F01CF9034654
S2140056705846019300F0DEFA019B6BE730C80C0138
S21400568000B3FFFF81E11C018CE11C81D11C0100ED
S214005690E11C81D92DE9F843064610460F46904690
S2140056A01D461EF007FA28B129463846BDE8F843DD
S2140056B01EF0D6B92B6A002B40F0AD8000F064FADD
S2140056C031780446FFF7FCFD18F0C6FB04F580763B
S2140056D008F118018146304619F0AFF8484618F030
S2140056E0BFFB574B236540F281136365204619F0D4
S2140056F0A0F818F0B1FB29468146304619F09DF80F
S214005700484618F0ADFB4F4B2365012320466365E2
S21400571019F08FF84C4B236519F08BF818F09CFBAA
S21400572005F10C018146304619F087F8484618F016
S21400573097FB464B2365204619F07BF818F08CFB48
S21400574008F10C094946054604F5827019F075F80B
S214005750284618F085FB3E4B2365204619F069F86D
S21400576018F07AFB41460546304619F066F828469A
S21400577018F076FB374B2365374B6365204619F0E8
S21400578058F807F11801304619F08DF8054600283C
S2140057903BD1324B2365204619F04BF8304B23653E
S2140057A019F047F82F4B236519F043F82E4B236565
S2140057B04FF48A73636519F03CF82C4B236519F097
S2140057C038F83946304619F06EF80546E8B9284BE1
S2140057D02365284B6365204619F02BF818F03CFB30
S2140057E049460546304619F028F8284618F038FB92
S2140057F0214B2365214B6365204619F01AF807F103
S2140058000C01304619F04FF80546204600F012FA13
S2140058102846BDE8F88328461EF04CF908B14146F4
S21400582043E72B6A002B3FF449AF012105F118002E
S2140058301CF0B3FF00283FF441AF114DE8E700BF6E
S2140058408184E11C83D91C83E11C810182D11C0167
S214005850C81482019983D91481E11C018CE11C01D2
S214005860811C8401D91C830191D11CE0D814140139
S21400587081CB1481D11C820181E11C84E2140100D9
S21400588080B0FFFF2DE9F04788B0904605460F46EA
S21400589000F07AF92978DFF854910446FFF710FDF6
S2140058A018F0DAFA04F5807608F118010546304655
S2140058B018F0C3FF284618F0D3FA40F28313C4F852
