S01C00006275696C642F64656275672F776973756E5F7263702E73333789
S21400000000100020DD040000D9040000D904000020
S214000010D9040000D9040000D9040000D904000067
S214000020D9040000D9040000D9040000D904000057
S214000030D9040000D90400003B580000D904000091
S214000040D904000001360200D9040000D9040000DB
S2140000504D2E0200593602000D36020025360200EB
S21400006005360200D9040000D9040000D9040000B7
S21400007075A30000D9040000D9040000D9040000CC
S214000080D9040000D9040000D9040000D9040000F7
S214000090D9040000D9040000D9040000D9040000E7
S2140000A0D9040000D9040000D9040000D9040000D7
S2140000B05D360200093602001D6400009936020013
S2140000C0D9040000491F0200D9040000D90400002A
S2140000D0D9040000D9040000D9040000D9040000A7
S2140000E0D9040000D9040000D9040000D904000097
S2140000F0D9040000D9040000D9040000D904000087
S214000100D9040000D9040000D904000010B5054C3D
S214000110237833B9044B13B10448AFF300800123AE
S214000120237010BDA83000200000000058510300C6
S21400013008B5034B1BB103490348AFF3008008BD65
S21400014000000000AC30002058510300A3F5803AB0
S214000150704700BF174B002B08BF134B9D46FFF799
S214000160F5FF00218B460F461348144A121A1BF05F
S21400017019FA0E4B002B00D098470D4B002B00D0E1
S21400018098470020002104000D000D48002802D0EA
S2140001900C48AFF300801BF099F92000290009F005
S2140001A019FF1BF06DF900BF0000080000000000FA
S2140001B000000000001000208C260020E034012003
S2140001C0000000000000000010B5036854186060CE
S2140001D053501BB10B445C60026010BD4460FBE7EB
S2140001E01150014413184868586002604B6070470D
S2140001F010B5002454505318416859600A60436093
S21400020010BD000030B5551854586B6804B160181E
S21400021043601C60014B53506B6030BDEFBEADDEDB
S214000220437802781B0403EB0263C2788078134499
S21400023003EB00207047030A08704B70030C000E97
S214000240C8708B70081D7047837841780278C07834
S2140002501B0403EB0123134403EB0060704700000C
S21400026008B5064802F0CAFC054B186028B9054BCD
S214000270054A0648AC211BF0D7F808BD9458020082
S214000280C430002028570200775802004457020066
S21400029008B5042201230521002001F073FE00208A
S2140002A008BDFFF7F5BF08B5002318460422052150
S2140002B001F068FE002008BD08B50548012100F0E1
S2140002C075FB1AF034FDBDE8084000F057B800BFD3
S2140002D000350A000148012100F068BB00350A001D
S2140002E070B50024064625465B21082000F0FAF982
S2140002F0102C04F1010300D170BD012B14D0022B89
S21400030014D0032B14D0042B14D0052B04D16A1C54
S2140003102946D5B21C46E8E70D3C012C0CD9102B1B
S2140003200CD0B21FD15CF5E70C21F3E7D121F1E741
S2140003308021EFE70021EDE75A21EBE75D21E9E7B1
S21400034007B5082000F0C2F902238DF80030684691
S214000350034B0193FFF7C4FF03B05DF804FB00BF37
S214000360006A1810014B1022DA60704700A00046A1
S214000370014B1022DA60704700A0004470B5384D7B
S214000380384E0FCD88B001AC0FC495E8070084E85E
S2140003900700354C3548012100F008FB30460121A6
S2140003A000F004FB0125324B039301A920468DF88B
S2140003B0125002F085F92B4604220621022001F095
S2140003C0E1FD2A4600230721022001F0DBFD2B4633
S2140003D004220821022001F0D5FD042211462B46F6
S2140003E0002001F0CFFD234BA3670B2363674FF478
S2140003F0487006F047F81420FFF7BAFF06F042F8F8
S2140004002320FFF7AFFF06F03DF8B9212046FFF79F
S214000410AFFF02F0BBF9FFF7A5FF00231A4606213F
S214000420022001F0AFFD00231A460721022001F04A
S214000430A9FD2B4600220821022001F0A3FD002280
S21400044010462B46042101F09DFD204602F098F848
S2140004500021A1673046616700F0A8FA08B070BDB9
S214000460A4580200005204000004014000350A00AF
S21400047000127A000B0B000B38B504460D4601B18E
S21400048018B90448372106F0EDFF23682B60256075
S21400049038BD00BFC05802001FB5144652B16A46A8
S2140004A004F006FD20609DF80000003818BF01200B
S2140004B004B010BD0120FBE705490A68131805487B
S2140004C083428CBF4FF0FF320B601046704700BF70
S2140004D00010002000000420FEE7000008B500F031
S2140004E083F8124B12498B4212D3124B124900204A
S2140004F08B4218D3FFF72EFE186850F82240586833
S21400050040F82240013298688242F5D30C33EAE77D
S2140005100022F8E71C6844F8220001325C68A24218
S214000520F8D30833E4E70022F8E700BF6051030081
S2140005306C5103006C5103006C5103000048704777
S21400054000F04902104AD2F8943003F00703023B49
S214000550032B13D8DFE803F00C14020E0B4B1B68BA
S214000560D2F80001C0F304200130B3FBF0F070476E
S214000570074BF4E7074B1B685B08F1E7054BEEE714
S2140005804FF40043ECE700BF00400E401010002080
S214000590081000200C10002008B5FFF7D3FF054B0D
S2140005A0D3F80831C3F308230133B0FBF3F0024B52
S2140005B0186008BD00400E4004100020014B18686B
S2140005C0704700BF08100020054B1860054BD3F895
S2140005D0943003F00703022B01D1FFF7DDBF70470D
S2140005E00810002000400E40044B054A9A60D3F8DD
S2140005F0882042F47002C3F88820704700ED00E0BF
S214000600000000004FF4004070474FF47A707047C7
S214000610014B1868704700BF1010002008B522482C
S214000620012100F0C3F9012304220221052001F074
S214000630A9FC002001F090FC1C4B0122C3F81028F6
S2140006401146042000F000FD194800F03DFB194B50
S214000650D3F8F02042F00102C3F8F020D3F8FC20D3
S21400066042F08072C3F8FC20A3F55D43124A1A607C
S21400067000F5D520114B00F2FC40B0FBF3F0104B18
S214000680013802221861C3F8F0204FF48072C3F8D4
S21400069004234FF060430B4AC3F8B02F0A4AC3F84E
S2140006A0802E002008BD00BF00350A0000801442DE
S2140006B006000E0000ED00E0FF030040F8590D00B4
S2140006C0000004E055CEACC5090001004FF06042C2
S2140006D00123D2F8001E03FA00F00843C2F8000E09
S2140006E0002070474FF0604330B5D3F8802ED20715
S2140006F015D501240B4D8440D5F8FC2042F08072BD
S214000700C5F8FC20D3F8002E2243C3F8002E53F879
S2140007102020002AF0D003F82010002030BD112041
S214000720FCE700BF00ED00E0024B1968024B1868BA
S2140007301DF026BE18100020141000207047000080
S21400074037B5920004460D46019201F0D1FD431CD8
S2140007500BD060B9019A294620461AF0EBFE002815
S214000760044808BF002003B030BD0348FBE7034839
S214000770F9E700BF10E000F021E000F024E000F010
S21400078013B5044601A801F01BFE9DF80630238031
S21400079040F201136380074BD3F8E4301B0E0A3394
S2140007A0012203F01F0302FA03F30020636002B085
S2140007B010BD00BF0081E00F01F070BC08B501F06D
S2140007C04BFC002008BD10B5044644EA010313F0B4
S2140007D00303084609D1934201D1002010BD54F806
S2140007E0231040F823100133F5E7920021461AF053
S2140007F0B1FEF2E710B5044601F010FD431C17D019
S214000800C0B90D4BD3F8E4301B0E0A3303F01F02B9
S2140008100123934023F0030320462344984201D14A
S214000820002010BD50F8042B0132F7D00348F8E73B
S2140008300348F6E70348F4E70081E00F0EE000F017
S21400084021E000F024E000F008B500F021FE014BA6
S214000850186008BD90370020014B186800F01CBED9
S21400086090370020704700000C4B984210D90C4B74
S214000870984210D9022201230A490B640A49D1F88A
S214000880003123F0807343EA0263C1F800317047F9
S21400089000221346F0E70122FBE700BF0048E8010C
S2140008A00090D0030000C84300400E4038B5114BFE
S2140008B05B68114B00221C46C9B21D798D4202D1DD
S2140008C01D68854212D20132052A03F10803F4D1CD
S2140008D00A4841F2CE5106F0C5FD032205494B6891
S2140008E023F0407343EA02634B6038BD04EBC20258
S2140008F05279F3E700000E409C590200145902009A
S2140009001F2810B5044604D903484FF4B37106F007
S214000910A9FD0120A04010BD4059020070B5084C4A
S21400092041F67136256C2664FFF708FE0021FFF7B6
S214000930BDFFADB2B5421CBF0023236470BD00BF2F
S21400094000000E40044BDB6B5B0604D4034AD2F86F
S214000950C830002BFBD1704700300E400000C64365
S21400096008B5FFF7EFFF024B5868C0F3014008BD1B
S21400097000300E40044BD3F84421D20703D4D3F8FA
S21400098040211042FBD1704700400E4070B5064C27
S21400099041F67136256C2664FFF788FFADB2B54286
S2140009A01CBF0023236470BD00000E4038B5C0F3A2
S2140009B00323013B092B24D8DFE803F02A2D232349
S2140009C0051619231C20154C0023C0F3043513B15B
S2140009D01846FFF7CFFF04F1424404F5801405EBF8
S2140009E0C404A400216038BD0D4C0123EDE70D4C76
S2140009F01023EAE70C4C4FF48033E6E70B4C002359
S214000A00E3E7BDE838400A4841F66A3106F02ABDF9
S214000A10084C0023D9E7084C0023D6E7B0400E4028
S214000A20E0400E40E8400E40F0400E4050410E4080
S214000A301459020000400E40C0400E4008B5C0F3F6
S214000A400313013B092B60D8DFE803F0050B0F19F1
S214000A505F5F1F233C532E4BD3F80001C0F30420E6
S214000A6008BD2B4BD3F81401F8E7294BD3F8000147
S214000A70C0F300600130FFF743FF0138F0E7244B76
S214000A80D3F80C01C0F30820EAE7214BD3F808019D
S214000A90F8E7204B984209D01F4B98420CD041F6FD
S214000AA00E511E4806F0DEFC0020D9E7184BD3F89E
S214000AB0200100F00F00DEE7154BD3F82001C0F34D
S214000AC00110D8E7164B984208D003F5B01303F58B
S214000AD08053984206D041F63251E2E70C4BD3F8E9
S214000AE02801ECE70A4BD3F82801C0F301200430B4
S214000AF0C1E70C4B984205D1054BD3F8300100F006
S214000B000300ADE741F64151CBE741F66651C8E731
S214000B1000400E408006160080162E001459020073
S214000B2090171A00A009140008B5FFF787FF0130D8
S214000B3008BD000000F00F00013808B5072844D8AB
S214000B40DFE800F0040F1943232D4335264BD3F876
S214000B50943003F00703023B052B3DD8234AD05CB4
S214000B6008BD214BD3F8803003F00703013B032B6D
S214000B7034D81F4AF3E71C4BD3F8843003F007033E
S214000B80013B032B2AD81B4AE9E7174BD3F88830DA
S214000B9003F00703013B032B20D8174ADFE7124B6D
S214000BA01B6F13F0010F0CBF07200920D8E70E4B70
S214000BB0D3F85C3103F03003202B11D0302B11D04A
S214000BC0102B14BF01200720CAE70C4842F2BA01D6
S214000BD006F048FC0020C3E70520C1E70120BFE778
S214000BE00420BDE70820BBE700400E407059020015
S214000BF0765902007A59020076590200145902000A
S214000C0038B52C4B984205460AD02B4B984207D055
S214000C102A4B984204D02A4841F2CD6106F022FCC5
S214000C202846FFF787FF234B9D42044611D0224BF0
S214000C309D4212D0214B9D4213D1224BD3F88040C7
S214000C4004F00704042C2DD8DFE804F02A11151D43
S214000C5019001C4BD3F88440F2E71A4BD3F88840AF
S214000C60EEE7174841F2FC6106F0FCFBEAE7BDE858
S214000C703840FFF7C7BCBDE83840FFF7C9BCBDE841
S214000C803840FFF7C2BCFFF75DFC0E4B0446D3F8B6
S214000C900001C0F300600130FFF732FEB4FBF0F451
S214000CA0204638BD064841F24E7106F0DBFB0024B4
S214000CB0F6E700BF030020000500240002001E0027
S214000CC01459020000400E4038B500F47813B3F50E
S214000CD0B01F05467FD02ED8B3F5402F69D011D867
S214000CE0B3F5802F54D006D843B1B3F5003F5AD0A1
S214000CF041F69A411AE0B3F5202FF9D1BDE8384005
S214000D00FFF720BCB3F5801F00F0A280B3F5A01F4C
S214000D1057D0B3F5602FEBD15B48FFF70BFF0728E2
S214000D2000F096800928E9D041F29041574806F035
S214000D3099FB002036E0B3F5381F5AD013D8B3F528
S214000D40001F5FD00AD8B3F5D01F5DD0B3F5F01FF3
S214000D50CED14F48BDE83840FFF752BFB3F5101F5D
S214000D60C6D14C48F6E7B3F5481F57D0B3F5781F01
S214000D7000F08280B3F5401FBAD14748FFF740FF26
S214000D80464B0446D3F82801C0F3012004302BE07C
S214000D90FFF7D8FB414BD3F80C31C3F308230133DC
S214000DA0B0FBF3F038BDFFF7CDFB3C4BD3F8083172
S214000DB0F3E7FFF7C7FB394BD3F81431C3F304232B
S214000DC0EDE73448FFF71CFF344BD3F8303103F01F
S214000DD00303D840E6E72E48FFF712FF2F4B0446E2
S214000DE0D3F8200100F00F00FFF78AFDB4FBF0F007
S214000DF0D8E72748FFF704FF284BD3F82031C3F382
S214000E000113E6E72448A5E72348FFF7F9FE234B3E
S214000E100446D3F82801C0F30110E5E72048FFF7A1
S214000E2089FE0138072824D801A353F820F000BF14
S214000E30330D0000730E0000730E0000570E000006
S214000E40730E0000730E0000510E00005F0E0000CF
S214000E50144B1868A6E7BDE83840FFF7AFBBFFF7AE
S214000E6071FB0E4BD3F80031C3F3042303FB0000E1
S214000E7098E741F2C74159E7FFF764FB0446284666
S214000E80FFF752FEB2E700BF06000E00145902003C
S214000E9002001E00050024000300200000400E4053
S214000EA0B800320038100020014B1880704700BF91
S214000EB03C100020013838B50C46032864D8DFE81B
S214000EC000F002441A2FB1F5007F04D3324842F6F0
S214000ED0BA0106F0C7FA314AC4F30804D2F86838F3
S214000EE0002BFBD12E4A136A23F4FF7323F0010371
S214000EF02343136238BD7F2904D9274842F6C70129
S214000F0006F0B0FA254A04F07F01D2F86038002BCC
S214000F10FBD1234B1C6924F07F040C431C61E9E7DA
S214000F207F2904D91C4842F6E20106F09BFA1B4AC8
S214000F3004F07F01D2F86438002BFBD1184B9C6973
S214000F4024F07F040C439C61D4E7154DD5F890300F
S214000F505B0704D5104842F6F20106F083FA6B6A86
S214000F6023F0300343F010036B62C4F3C311CB1CB1
S214000F702A6B0C490F2B01EA020128BF0F232143DD
S214000F8041EA03712963B5E7BDE83840024842F6F6
S214000F900C1106F067BA00BF145902000020C843BF
S214000FA000400E4000F8FF0F022810B50C4604D093
S214000FB0144842F6241106F055FA134B5B6A13F0F8
S214000FC0300F1BD0202C16D0302C17D0B4B10D48C3
S214000FD042F63F1106F046FA0C4B0B4AD2F8901038
S214000FE033EA0101FAD15B024ABFD2F8A000012021
S214000FF0C0F3802010BD4FF40003EEE74FF440032B
S214001000EBE700BF1459020000400E40FF33E10733
S214001010022808B50CD129B1094B4FF48060C3F8FB
S214001020A80059664AB1BDE808400220FFF7BCBFD9
S214001030044842F6751106F015FA012008BD00BFF7
S21400104000400E401459020004282DE9F0470446DB
S2140010500F4691461FD83D4B3D4A13F800A03D4B26
S21400106013F80080F1B93C4B33F8103013660123B7
S21400107003FA08F8D2F8903013EA080FFAD1B9F15B
S214001080000F5AD00125324A05FA0AF5D2F89030F8
S2140010902B42FBD151E0BDE8F047304842F609014B
S2140010A006F0E0B92E4B022833F8106047D1536A99
S2140010B013F0300F43D12B4BDB6B5A0504D4274873
S2140010C042F6180106F0CEF9214A536ADB0705D529
S2140010D0536A23F0300343F010035362224D1C4B37
S2140010E0A8441E664FEA8808D8F80030002BFBD0CC
S2140010F0B9F1000F21D05544AD002B68002BFCD071
S214001100022C1AD1CFB1124F796A11F0010118D012
S214001110012220212046FFF77BFFD7F89C400122C2
S21400112000210220FFF790FFC4F30A010220FFF718
S214001130C1FE3E662B68002BFCD0BDE8F08700277A
S214001140CCE72046FFF730FFE7E700BF7E590200F6
S21400115000400E40835902009259020014590200C2
S2140011608859020000300E408004F210112838B56D
S2140011700C460FD000F00F000138072800F2EB8075
S214001180DFE810F0240066009A00E9007D00B40055
S214001190E900C200042912D1FFF710FA0546A8B1EB
S2140011A00021284600F0AEFB023C0A2C45D8DFE8BA
S2140011B004F04A473137444444443D0F4D00052966
S2140011C004D1664B1D68664B9D42E9D80025EBE7C7
S2140011D00320052401221146FFF736FFFFF79EFB8A
S2140011E00DB1FFF7AFFB5F4B5C67FFF7D5F9044621
S2140011F0FFF7A8F9FFF738FBFFF7B2FB01462046DA
S214001200FFF7C4FB002D5DD128460121BDE838401C
S21400121000F078BB5448FFF727FB02200446D9E7C6
S2140012205148FFF721FB01240320D3E742F27B114C
S214001230BDE838404D4806F015B94FF40651F7E7BB
S21400124001200324C6E700200424C3E70724C5E7DB
S214001250062933D14548464D42F2BF1106F002F941
S214001260424842F2CF1106F0FDF8FFF76BF9FFF7A0
S214001270FBFA404B0122C3F80826032321E0062987
S2140012803D4DEDD0013C092C2BD801A353F824F09A
S214001290E9120000C7120000D5120000E312000099
S2140012A0E31200006B120000E3120000E3120000DD
S2140012B0E3120000C1120000304DE3E72C4DE1E7D9
S2140012C004232B6038BD012211460020FFF7BCFE28
S2140012D00223F6E7012211461046FFF7B5FE01236A
S2140012E0EFE742F2FA11A3E70023EAE7072904D062
S2140012F0092906D042F284219AE71A4B00221A677F
S214001300E0E7184B0122FAE74C1E072C1ED8DFE850
S21400131004F0201D1D161D1D0F0403221149D1F8CF
S2140013205C3123F0300343EA0213C1F85C31C9E7AD
S214001330012211460420FFF787FE0122EEE7012274
S21400134011460220FFF780FE0222E7E742F2E22182
S2140013506EE70022E2E742F2B93169E70C1000209E
S214001360002D310100400E400148E80114590200EA
S21400137080400E400010C84388400E4084400E4017
S21400138010B504461120FFF7D5FB042804D12748E2
S21400139042F2A46106F066F8012200210220FFF75F
S2140013A053FE63781BB9A3780BB9E37823B11F48C3
S2140013B042F2E06106F056F8237C012B04D11B486C
S2140013C042F2E76106F04EF8194A217C536A23F090
S2140013D00103022908BF43F001035362154B21782D
S2140013E0C3F8A014637AA18843EAC123D362136BBF
S2140013F0A07A217A03F07F630343E08843EAC023A0
S21400140043EAC11303310F2928BF0F2143EA0173B2
S2140014101363A37B617B1B0143EA0133E17B0B4330
S214001420217B43EA0143536310BD00BF14590200F9
S21400143000400E400000C84370B505461120FFF777
S21400144079FB022804D10F4842F2627106F00AF8CE
S2140014500D4E0E4BB26B2C7813401C436B7844EA4F
S214001460C324AB7844EA0364EB7844EA0324B36B02
S214001470A34205D0002101220846FFF7E5FDB4632C
S21400148070BD00BF1459020000400E4080E4FFF813
S214001490EFF3108072B6704700B962B67047EFF38C
S2140014A01180602383F31188704780F3118870479A
S2140014B0034B5868C0F30800003818BF0120704777
S2140014C000ED00E0EFF31083DB0706D4EFF31180A6
S2140014D05F2894BF0020012070470120704730B578
S2140014E0D1E90223D1E9005405600460026003607C
S2140014F030BD30B50568046802680368C1E9005469
S214001500C1E9022330BD7FB58B07044611D00B46D8
S2140015106D4601F11006186859682A4603C208335A
S214001520B3421546F7D169462046FFF7D8FF04B008
S21400153070BD0091009904B0BDE87040FFF7CFBFC2
S21400154030B58B0785B00C4610D06946FFF7D1FF43
S2140015500D46234604AC2A4603CAA24218605960C8
S214001560154603F10803F6D105B030BD0091009989
S21400157005B0BDE83040FFF7BCBF10B5FFF7AFFFC2
S214001580BDE810401031FFF7AABF10B5FFF7B1FF56
S214001590BDE810401031FFF7ACBF00F1424303F541
S2140015A08013102A4FEA431305D101221A6000F572
S2140015B08870FFF7E2BF00221A602430FFF78FBF63
S2140015C0F0B50B46990789B0054614461ED0082A82
S2140015D06E4610D103F1100718685968324603C2E8
S2140015E00833BB421646F7D1224669462846FFF71F
S2140015F0D4FF09B0F0BD03F12007186859683246D9
S21400160003C20833BB421646F7D1EDE700930099B4
S21400161009B0BDE8F040FFF7C0BF0000436823F004
S2140016201F030E2910D8DFE801F008080808080B89
S2140016300B0B080808080B0B0B001943416070479A
S214001640194341F01001F9E7024840F26D1105F028
S21400165009BF00BFC459020070B5064615460C46C1
S21400166021B909484FF4C37105F0FCFE214606F186
S2140016702000FFF73EFF102D05D104F11001BDE854
S2140016807040FFF736BF70BDC459020030B58B07F7
S21400169089B00C4615461DD06946FFF7DDFF082DBC
S2140016A00CD16A4604AD134603CBAB4220606160A2
S2140016B01A4604F10804F6D109B030BD6B4608ADF1
S2140016C01A4603CAAA4220606160134604F1080461
S2140016D0F6D1F1E70091009909B0BDE83040FFF778
S2140016E0BBBF0000034BD86B80F04000C0F38010F7
S2140016F0704700BF00300E4038B542EA0323B3F50A
S214001700007F05460C463ED019D8B3F5807F36D00C
S2140017100AD883B3012B21D01F4840F6F21105F0FA
S214001720A1FE002213461FE040F201129342F3D1BD
S2140017301A4BD3F824321A0EC3F3074314E0B3F55A
S214001740407F24D040F20132934210D040F2012272
S2140017509342E1D1114BD3F8283202E00F4BD3F875
S2140017602432C3F30722DBB22B60226038BD0B4B5A
S214001770D3F82832DFE7094BD3F81C32F1E7074BE2
S214001780D3F81C32D7E7054BD3F82032E9E7034BF2
S214001790D3F82032CFE700BFF35902000081E00FF4
S2140017A008B5FFF79FFF20B1024AD2F8C830002BD9
S2140017B0FBD108BD0000C6431A4B022810B5D3F86B
S2140017C030320C4612D0032813D0012814BFDBB2E7
S2140017D0C3F307231B0323F47042ECB95AB140F657
S2140017E08111114805F03EFE002010BDC3F30743EB
S2140017F0F0E71B0EEEE70D49CA6E22F47042134363
S214001800CB660120F1E70949D1F8EC2022F47042BA
S2140018101343C1F8EC30F4E7002AF4D040F68D11FB
S214001820DFE700BF0081E00FF359020000300E40F2
S2140018300378134A002B437870B514BF042600269D
S214001840002B8378946914BF02250025002B0379AA
S21400185024F03F0443EA0403C47814BF082100219F
S214001860012C08BF43F0010333432B430B43936122
S2140018701368417923F4403343EA0143136070BD93
S21400188000300E40F8B504460F46FFF72BFF78B33E
S214001890FFF786FF174B5B68C3F301439C4227D0D4
S2140018A0154BD3F80061FEF74DFE022C05460FD10E
S2140018B0124BC6F3042606FB00069E4204D91048C7
S2140018C04FF4E36105F0CEFD02212846FFF75EF8EF
S2140018D0C4F1020210239340064A13610FB1FFF7CA
S2140018E05FFF2CB921462846BDE8F840FFF74EB802
S2140018F0F8BD00BF00300E4000400E40002D310104
S214001900F359020013B50246FFF7ECFEC8B152B910
S2140019100D4B0191D3F80041FEF714FEC4F30422E8
S214001920019902FB0002094B1B7843B1084B9A420F
S21400193005D8022002B0BDE81040FFF7A3BF002084
S214001940F8E702B010BD00BF00400E404A38002045
S214001950002D3101224B4AF6E85210B5596B5A63F6
S2140019609A6FD207FCD41B6C13F003031EBF1D4AEC
S2140019700124C2F8B44A834204D110B9194BC3F803
S214001980B40A10BD032B00D09BB9431E012B10D800
S214001990134A4FF40023D362936FDB07FCD4136C17
S2140019A023F0030343F0010313640D4A536A1C0338
S2140019B0FCD50B4B9A6FD207FCD41A6C22F00302AC
S2140019C002431A649A6F12F00102FBD10038054CEC
S2140019D018BF01200129C4F8B40A08BF5A63D0E72B
S2140019E000300E400000C6432DE9F04FA0F5E1633D
S2140019F089B00024B3F5966FCDE90244CDE90444DE
S214001A00CDE9064406468A46934605D940F67B311C
S214001A10554805F027FDA3E0B0F5E16F534B8CBFAA
S214001A200122002249D1D3F81832C3F30721DBB2D2
S214001A30079104934FF416754FF4966748E0BBF190
S214001A40000F0ED0D9F85C2022F4FE4222F00202EB
S214001A50B6F5E16F42EA012218BF02200243C9F838
S214001A605C20BAF1000F26D020460021FFF7A4FE26
S214001A70044610B940F6D831CAE701214046FFF7C0
S214001A809BFE044610B94FF43E61C1E7384A536ED8
S214001A90BD4238BF3D4623F4FF73E72D23F0010314
S214001AA028BFE725B6F5E16F18BF43F0010343EA08
S214001AB04503536654E0012452E0D3F81832190E59
S214001AC0C3F30743079104934FF496654FF4E16719
S214001AD0DFF89C90D9F84C400192C4F30174234679
S214001AE005A902A8FFF708FED9F8EC30019AC3F35F
S214001AF00128434606A903A8FFF7FEFD049BF01B3A
S214001B00079FF91A4143B1FBF5F299182CBF012340
S214001B1000238F421ED3EBB9069A039FD31B434381
S214001B20B3FBF5F3FF182CBF01230023BA4211D3F1
S214001B3083B9059B029AA3EB020C00FB0CF0B0FBEA
S214001B40F5F555192CBF01200020AB4202D3002822
S214001B503FF475AF044840F6C93105F083FC002415
S214001B60204609B0BDE8F08FF35902000081E00F6F
S214001B7000300E40334A08B5136FD16C11F0010FD8
S214001B8003F0060344D0002B42D0132857D914384C
S214001B9013288CBF102308232A49013BCA6C18035C
S214001BA022F47F4240EA03231343CB64264BCA6CDD
S214001BB01B88C2F303222833013202EB820003EBB8
S214001BC05303B3FBF0F3C86C013B072B28BF072376
S214001BD020F0EE6040EA036343F48013CB641B4BB3
S214001BE0B3F90030002B12DB03F12800C0F34E03DC
S214001BF00344500800EB4202B3FBF2F20B6D072AD7
S214001C0028BF072223F0700343EA02120A6508BDC4
S214001C10D16C01F00101194304D109280FD90A3803
S214001C200928B6E7D26CD20702D50BB92728B0E749
S214001C30074840F61E4105F015FC0023ACE70423D8
S214001C40AAE700BF00300E40463800204838002083
S214001C50F35902000C4BD3F8803910B5044633B95B
S214001C60012804D9094840F63C4105F0FBFB084A28
S214001C70136F23F0070323431367064BBDE810409A
S214001C801888FFF777BF00BF0000C643F35902006D
S214001C9000300E404438002038B55A4B02229A6372
S214001CA09B6B03F00F039342044607D0564840F65A
S214001CB0162105F0D7FB0025284638BD0389C82B1A
S214001CC004D951484FF4226105F0CCFBA288238941
S214001CD09A4204D94C4840F6212105F0C3FBB4F9DA
S214001CE00C30C82B04DD484840F6222105F0BAFB2C
S214001CF06378012B55D1A388C82B04D940F626213A
S214001D00414805F0AFFBE28842F210739A4204D9CC
S214001D103D4840F6332105F0A5FBE3884A2B48D919
S214001D20B3F5FA7F47D340F6C312934294BF4FF001
S214001D3000524FF040523349B4F90C00CB6C23F0FC
S214001D40405323F001030028A8BF43F001031343C8
S214001D50CB64D1F8EC30A28843F44073C1F8EC3081
S214001D602A4B1A80CB6E43F08073CB66284BD3F891
S214001D70800900B10420FFF76DFF264B21891980EA
S214001D80254BB4F90C20A0881A80FFF7F3FEA37B3E
S214001D90A3B1012B22D01C4840F6321105F062FB9D
S214001DA00FE0022BAFD1A3880A2BACD940F62B212B
S214001DB0A6E70022BFE74FF08052BCE7114B174A58
S214001DC09A65012260881146FFF70EFE054640B967
S214001DD00D4840F66A2105F045FB6DE7094B104AB1
S214001DE0EEE7084AD36B43F48063D3636078FFF76B
S214001DF0B1FDA37AA3F1200253425341044AC2F82C
S214001E00943759E700300E40F3590200443800205A
S214001E100000C64346380020483800207740205748
S214001E20372110B738B50D46044640B3012829D0EF
S214001E3002282AD003282BD004280ED005282AD022
S214001E40831F012B09D9082828D0092828D00A285A
S214001E5003D10723EB40DB0704D4134840F22D419F
S214001E6005F000FB30200C2310FB043404F18C44F6
S214001E70012104F5204401FA05F5256038BD40F23D
S214001E80FF33E7E74FF6C073E4E740F6FF73E1E79A
S214001E904FF47F43DEE74FF6FF73DBE70F23D9E708
S214001EA04FF44043D6E700BF1F5A020038B50D4630
S214001EB0044640B3012829D002282AD003282BD074
S214001EC004280ED005282AD0831F012B09D90828FC
S214001ED028D0092828D00A2803D10723EB40DB079F
S214001EE004D4134840F2FE3105F0BCFA30200C232F
S214001EF010FB043404F18844012104F5204401FA5F
S214001F0005F5256038BD40F2FF33E7E74FF6C073AE
S214001F10E4E740F6FF73E1E74FF47F43DEE74FF672
S214001F20FF73DBE70F23D9E74FF44043D6E700BF44
S214001F301F5A020070B505460E461446FFF7A8FA6B
S214001F40296881EA040202EA06044C402C60BDE8D7
S214001F507040FFF7A1BA00001F2810B5044603D949
S214001F600648522105F07EFA054AD2F8443423F09A
S214001F7003032343C2F8443410BD00BF4C5A02008A
S214001F8000A00040F8B50D4616461F460446C8B3E6
S214001F9001283AD002283BD003283CD004280ED093
S214001FA005283BD0831F012B09D9082839D00928DA
S214001FB039D00A2803D10721E940CB0704D42348A7
S214001FC04FF4B07105F04EFA26B1294620466FB39D
S214001FD0FFF728FF04EB4403072D4FEA03134FF0E7
S214001FE00F0126D8A80006FA00F2814018481844C7
S214001FF0FFF7A0FF4EBB2946204617B3BDE8F840C2
S214002000FFF710BF40F2FF31D6E74FF6C071D3E7B7
S21400201040F6FF71D0E74FF47F41CDE74FF6FF71F2
S214002020CAE70F21C8E74FF44041C5E7FFF73EFF78
S214002030D0E7A5F10800800006FA00F281400548C6
S214002040D5E7BDE8F840FFF731BFF8BD4C5A0200AF
S21400205004A0004008A0004010B50D4C63685B0368
S21400206004D50C4840F2033105F0FCF9636813F41C
S214002070403F04D007484FF4417105F0F3F9064B92
S21400208041F671321A649A6822F001029A6010BD15
S21400209000300E40795A020000000E40034B9A684A
S2140020A022F001029A6000221A64704700000E4077
S2140020B0094A0A4BD969C90705D512B96FF002005B
S2140020C07047013AF6E7002AF8D001221861DA6074
S2140020D0D86940F3800070478096980000000E4054
S2140020E070B505460C4611B3134B1A68134B9A424B
S2140020F004D8134840F2F73105F0B4F9114A00232A
S214002100082055F8231091610F49D0600133D66935
S214002110F60705D511B96FF0020009E00139F6E7B8
S2140021200029F8D0D169890703D49C42E9D1002060
S21400213070BD6FF00100FBE7041000203F420F0067
S214002140795A020000000E40809698002DE9F84368
S2140021502F4B1F6C144610F0030F41F67132804669
S2140021600E46BFB21A6404D02A4840F2444105F035
S21400217079F9A20704D0274840F2474105F072F9E2
S214002180254D6B685B0304D5224840F24B4105F0B1
S21400219069F96B6813F4403F04D01E4840F24C4186
S2140021A005F060F91A4A9368A40843F001039360A7
S2140021B00FD1184840F2544105F054F92046144B0C
S2140021C09A6822F001029A600FB100221A64BDE8F4
S2140021D0F8834FF0000908EB89052846FFF768FFEB
S2140021E00028ECD1C5F30A05C5F50065AD08A4EBDB
S2140021F009018D4228BF0D4629463046FFF770FF7D
S2140022000028DCD1A9444C4506EB8506E3D8D6E782
S21400221000000E40795A020000300E40304B70B578
S21400222041F671321C6C1A64C0F30A030546A4B268
S21400223023B12C4840F2BA4105F014F92A4E7368CF
S2140022405B0304D5274840F2BD4105F00BF97368DF
S21400225013F4403F04D0234840F2BE4105F002F993
S2140022601F4B9A6842F001029A6001221D61DA60F3
S214002270DA69500709D59A6822F001029A600CB113
S21400228000221A644FF0FF3026E00222DA60174A76
S214002290D969C90700D56AB9D86910F002000BD011
S2140022A09A6822F001029A600CB100221A646FF05C
S2140022B0010011E0013AEBE742B9996821F001010B
S2140022C0996004B11A646FF0020005E09A6822F083
S2140022D001029A600CB1186470BD2046FCE700BF8E
S2140022E000000E40795A020000300E40809698009A
S2140022F0FFF72CBF022838B504460D4603D911480F
S2140023004C2105F0AFF86B791F2B03D90D484F21F0
S21400231005F0A8F8AB786A789B0143EA82032A782E
S2140023201343EA7843EA02132A7943EAC2236A7916
S21400233043EA0233AA79043443EA42432401024AB8
S214002340135138BDA55A020000200440014B186006
S214002350704700BF00008442427801790378002A63
S214002360827870B514BF04260026002AC27814BFEF
S21400237010250025002A42794FEA023242EA01225D
S21400238042EA0302837914BF20240024002BC37979
S21400239042EA034343EA0603027A43EA050314BF0C
S2140023A04FF4004100212343002A14BF4FF40032AB
S2140023B000220B431343014A136070BD0020044003
S2140023C010B5044618B91048572105F04BF80F4AC7
S2140023D0D2F8E430D2F8E0109B0003F03C03C1F3DF
S2140023E081110B43A370D2F8E03003F03F03637013
S2140023F0D2F8E830D2F8EC2003F0F003C2F3031270
S2140024001343237010BD00BFD25A020000FF0FE036
S2140024102DE9F04180460E461F46154622B9314842
S2140024204FF4A17105F01EF81EB92F48FEF74CFCBC
S2140024300646402F2AD009D8A7B1202F1CD0BDE8C9
S214002440F041284840F2891105F00CB8602FF6D10B
S214002450B5EB960F04D9234840F2831105F002F835
S21400246004241DE0B5EB161F04D91E484FF4BA71BC
S21400247004F0F8FF102413E0B5EBD60F04D9194882
S21400248040F2791104F0EEFF082409E00624B6FBBA
S214002490F4F3AB4204D213484FF4BF7104F0E2FFEA
S2140024A06C43610801EB4616B6FBF4F40F4E203C75
S2140024B0B6EBC40F4FEAC40504D20A484FF4D071F5
S2140024C004F0D0FFD8F8003023F06003C8F80030DE
S2140024D0D8F8003035401F43C8F80070C8F81450CC
S2140024E0BDE8F081015B020040410500F8FF7F0077
S2140024F070B506460C46154622B90D4840F28E21A8
S21400250004F0B0FF1CB90B48FEF7DEFB04460A4B8E
S2140025106D00013CB4FBF5F413EA04234FEA0425EE
S21400252004D0034840F2B32104F09CFF756170BDEF
S214002530015B020040410500070080FF38B50E4BE6
S214002540984204460D4610D003F5806398420CD09E
S21400255003F58063984208D003F58063984204D060
S21400256006484FF4337104F07DFFEB435B0003F045
S2140025700A03E360E56038BD00000140015B02002D
S21400258038B51E4B1E4D984204460ED0A8420CD0BD
S21400259003F50063984208D003F58063984204D0A0
S2140025A0184840F2424104F05DFF40F6AA63E3603B
S2140025B041F20502002323606260134AA360636150
S2140025C0E364A26423666367A367E3670B4B9C42DE
S2140025D009D0AC4207D003F500639C4203D003F554
S2140025E080639C4201D1002323650023AC42A3658F
S2140025F002D0064A944200D1E36538BD000001408F
S21400260000040140015B0200F9FF0100000C0140DC
S21400261038B5294B984204460D4610D003F5806322
S21400262098420CD003F58063984208D003F5806387
S214002630984204D0214840F2FD2104F013FF2046C2
S214002640FFF79EFFAB7C1BB1236843F080432360FB
S214002650EB7C1BB12B7D43F08003A3652A8A6B7B42
S2140026601343EA89134363602B7BD5E901122046A6
S214002670FFF7CEFE6B7D1BB1236843F480332360E7
S214002680AB7D1BB1236843F400432360EB7D2A7EB9
S2140026901B07120502F4E00203F0E043134323662F
S2140026A0636F23F030036367626F6B7E1343636769
S2140026B02B78E36038BD00BF00000140015B0200DC
S2140026C038B52D4B984204460D4610D003F580636E
S2140026D098420CD003F58063984208D003F58063D7
S2140026E0984204D0254840F2693104F0BBFE2046EB
S2140026F0FFF746FFA97B2A8A2368002942F00102D9
S21400270014BF4FF48061002113430B432A7D2360DE
S2140027102368002A14BF4FF00052002213432360A0
S214002720AB7C1BB1EB7C43F08003A3652B7B43F4AF
S21400273080536360D5E901122046FFF7D9FE6B7B14
S2140027400BB11023E3606B7D1BB1236843F4803329
S2140027502360AB7D1BB1236843F400432360EB7D0D
S2140027602A7E1B07120503F0E04302F4E00213433F
S21400277023662B78E36038BD00000140015B020051
S21400278003691B06FCD5C069C0B2704703695A06C8
S214002790FCD5416303699B06FCD5C069C0B270478F
S2140027A003695B06FCD54163704700002DE9F047DE
S2140027B0374FDDE908840646154699468A4641B9EC
S2140027C0082323704FF4D963A360324B6760E3603D
S2140027D0FEE75AB1531E134208D00823237040F276
S2140027E0CB63A3602B4B6760E360FEE7FEF757FE04
S2140027F0002D08BF04254D4538BF4D46D6F808E0E5
S2140028006B1E13EA0E0FC5F1000202EA0E0208BFA5
S2140028100025154409F1FF33AA4413EA0A0FC9F14B
S214002820000202EA0A0208BF4FF0000902EB0903A1
S21400283072680132A2EB0E01A3EB0E0E71458446C0
S21400284015491AD2B8F1000F02D09B1AC8F800300A
S214002850162540F22273C4E902312570676060468F
S214002860FEF723FE40F2D763A3600A4B257067602D
S214002870E36000252846BDE8F087B3600023237098
S2140028804FF4E563C4E902316760FEF70EFEF1E738
S2140028902F5B0200875B02006F5B020030B50C46C0
S2140028A085B011461D461BB9039200F019F803992E
S2140028B0064801950023009304220123002C18BF2C
S2140028C02046FFF773FF05B030BD00BF4010002064
S2140028D0024B00221A6002F03DBF00BF4C5C002095
S2140028E0FEE70000014B1860704700BF4C5C0020FC
S2140028F01FB5104B1B78012B07D1FEF7D9FDB0B9D9
S2140029004FF0FF3005B05DF804FB684600F024FC8D
S2140029109DF800100029F3D101206A4601F096F8D0
S2140029209DF80000003818BF01204042EAE76FF02B
S2140029300500E7E7B4600020084B187801280AD1A4
S214002940074B1B78012B07D1064B1B78002B14BFB7
S2140029500320022070470020704700BF965D0020CD
S214002960B4600020B56000201FB5FEF7A1FD48B991
S214002970074B1B78012B02D0684600F0F9FA4FF09F
S214002980FF3001E06FF0050005B05DF804FB00BF06
S214002990B46000201FB5FEF78BFD70B9094B1B789D
S2140029A073B9684600F0A0FA9DF80000003818BF1A
S2140029B00120404205B05DF804FB6FF00500F9E722
S2140029C00120F7E7B560002030B585B00546FEF774
S2140029D06FFD044688B9002D68460ADD00F084FACB
S2140029E001209DF80030002B18BF4FF0FF3005B0D7
S2140029F030BD00F057FF2046F3E76FF00500F6E71E
S214002A0030B585B00546FEF753FD18B100242046C4
S214002A1005B030BDEDB9302018F07CFD0446002826
S214002A20F4D00123174980F8283000256B46E5626C
S214002A302A46204601F0A6FB9DF80030002BE6D083
S214002A4094F82830012BE1D1204618F06BFD2C4677
S214002A50DDE7AC6874B9302018F05CFD0446002849
S214002A60D4D0012384F828302968064B002908BFF3
S214002A701946DAE7EB682F2BC8D914F00303F1D018
S214002A80C4E700BF9C5B0200F0B50F4685B0054664
S214002A9090B3002930DBFEF702FDEC6AAE683C43DB
S214002AA0EC6286B9FEF701FD6B463246394628468B
S214002AB001F0DEFB9DF80030002B18BF6FF002041B
S214002AC0204605B0F0BDB6F89430DA0505D503F01B
S214002AD00F03042B03D0082B09D0766AE1E7D6F85B
S214002AE08C3033EA0402F8D124EA0304F5E7D6F87A
S214002AF08C302340F1D0F7E76FF00304E0E77FB5B2
S214002B000E460446B0B1FEF7CAFCE56A25EA06039F
S214002B10E362FEF7CAFC6B4601223146204601F00E
S214002B20A7FB9DF80030002B18BF4FF0FF35284656
S214002B3004B070BD6FF00305F9E72DE9F0410D46CE
S214002B4088B016469846074628B96FF00304204614
S214002B5008B0BDE8F0810029F7DBB3F1FF3F2FD1C5
S214002B60FEF7A6FC04460028EFD18046F3074CBFCC
S214002B7044F0040444F0080404AB16F0020608BF50
S214002B8044F48074019303AB0093424623462946DF
S214002B90384601F069F9FEF782FCFC6A16B924EAA9
S214002BA00505FD62FEF781FC9DF81030212B22D032
S214002BB010D8002BCBD01D2B18D04FF0FF34C6E713
S214002BC02BB1FEF775FC04460028CFD0BDE74FF4C6
S214002BD00044CBE7222B0BD02D2B0CD0312B18BF6B
S214002BE04FF0FF3408BF6FF00204B0E7002CF9E79F
S214002BF06FF00104ABE76FF00204A8E730B585B0CC
S214002C000546FEF755FC18B10024204605B030BD39
S214002C10C5B9342018F07EFC04460028F4D0012301
S214002C20194980F830306A46204601F045FD9DF887
S214002C300030FBB194F83030012BE5D1204618F077
S214002C4071FCE1E7AC6874B9342018F063FC044604
S214002C500028D9D0012384F8303029680A4B00298F
S214002C6008BF1946DFE7EB68332BCDD914F0030312
S214002C70F1D0C9E735B16B68DB0703D5012384F8CB
S214002C803130C2E70023FAE72A8E020030B589B059
S214002C9005460C46FEF70CFC024618BB2DB3B4B135
S214002CA0631C00D1044604AB0093214603AB2846C0
S214002CB001F0C2FB9DF81030222B19D0232B09D02F
S214002CC0002B14BF6FF00200002009B030BD4FF497
S214002CD00042E8E795F83130002B14BF00206FF073
S214002CE00200F2E76FF00500EFE76FF00300ECE795
S214002CF06FF00100E9E71FB50446FEF7D9FB014671
S214002D0070B984B120466A4601F006FE9DF80000C0
S214002D1020B1232814BF6FF00200002004B010BDBD
S214002D206FF00500FAE76FF00300F7E730B585B0FF
S214002D300546FEF7BDFB88B9A5B16A4601212846BF
S214002D4001F032FD9DF800407CB995F83030012B3B
S214002D5002D1284618F0E6FB204601E06FF0050099
S214002D6005B030BD6FF00300FAE76FF00200F7E73A
S214002D702DE9F04F8FB081468A461646FEF798FB3F
S214002D8008B1002440E0B9F1000FFAD0002E3FD180
S214002D904FF49C7018F0BEFB04460028F1D00126C4
S214002DA080F830614FF4806018F0B4FB05460028C8
S214002DB0E7D0434F84F831614FF480681F260DF149
S214002DC0280B00223F495B4604F1D80001F0DAF9EF
S214002DD09DF82820002A52D10723CDE906233A4B36
S214002DE0CDF820B003EA9803CDE90223CDE904220A
S214002DF05346CDE900654A463946204602F062F958
S214002E009DF82830002B3AD120460FB0BDE8F08F51
S214002E10B468E4B94FF49C7018F07CFB04460028B4
S214002E20AFD0012384F83031D6F81480B8F1000F03
S214002E302DD14FF4806018F06DFB054678B994F8F4
S214002E403031012B9DD1204618F06CFB99E7F368D2
S214002E50B3F59C7F95D314F00303E3D091E70123E9
S214002E6084F831314FF480683768154BB669002F07
S214002E7008BF1F46FEB1731C1FD0372E17DD94F80F
S214002E803131012BDBD1284618F04CFBD7E73569EA
S214002E904DB9404618F03EFB05460028CFD001232A
S214002EA084F83131E0E715F00703F9D0C7E7C6F13B
S214002EB03706F6B283E71F2681E740267FE700BF86
S214002EC0A75B0200B15B0200FEFFFF3F034B1B78CF
S214002ED0012B06BF024B186800207047B460002024
S214002EE0AC610020704700002DE9F041044608B9A7
S214002EF0FFF7F6FCFEF7DCFA194E1A4D074638B116
S214002F002023237040F22133C4E902356660FEE7D1
S214002F10154B1B78012B08D002232370666040F205
S214002F202533C4E90235BDE8F081DFF8408098F823
S214002F300030F92B05D91E232370666040F22A3331
S214002F40EFE7FEF7ACFA98F80030013388F8003067
S214002F50FEF7ABFA2770666040F23533E1E700BF54
S214002F60C45B0200795C0200B4600020B5600020FB
S214002F7070B5044608B9FFF7B3FC264B1E78012E41
S214002F8009D013232370244B636040F2FE33A36002
S214002F90224BE360FEE7224B1B88012B09D809234E
S214002FA023701D4B636040F20943A3601B4BE36034
S214002FB0FEE71C4D2B784BB11F232370164B636026
S214002FC040F20C43A360154BE360FEE7FEF77AFA87
S214002FD048B11F232370104B636040F20F43A36079
S214002FE00E4BE360FEE701F097FD0F4B0F4A18709B
S214002FF00F4B2E7018700C2358430E4B1B58136043
S2140030000D4A136001F048FE02F0CEFBBDE87040AA
S214003010FFF766BC965D0020C45B02004E5C0200B3
S214003020BC610020B4600020AB5D0020B0610020D1
S214003030AA5D0020B45D0020AC61002030B143687A
S214003040C1F8D4308368DB68C361704791F83030CC
S214003050022B03D0072B05D0034B00E0034BC1F82F
S214003060D4307047024BFAE7DD7B0200005C0200BA
S214003070075C0200044BC1F8D43018B1826802B174
S214003080D368C361704700BFDD7B02000023C0E940
S214003090003303817047036810B533B901220281FB
S2140030A0C1E90933016041601CE0028991F83340B0
S2140030B00132028193F83320A2420CD85B6A002BBF
S2140030C0F8D14B6243688B625962ECE7C1E909327A
S2140030D05162996206E09A6A002AF7D1C1E909327C
S2140030E09962016010BDC36A5BB19A68526A4AB9B8
S2140030F0C3E902221A8A013A1A820023C0E9093378
S214003100C3627047D0E9092111B991629A60F1E76C
S2140031104A620AB9D960EDE79162EBE738B5C56A4D
S214003120AB685B6A4BB1FFF7DEFFC562014605F18F
S2140031300800BDE83840FFF7AEBF38BD054B40225B
S2140031400021013AC3E90011198103F10C03F8D1FB
S214003150704700BFB45D002070B5044608B9FFF79D
S214003160BFFB864D6A68D2B12B68854E4BB92346A5
S214003170296B84489200FFF791FB306023780BB1EF
S21400318070BD3360804B32681A60804A6B6813608B
S2140031907F49804A9B0013600A6813440B602A89A3
S2140031A0B2B12346296B7C481201FFF777FB7B4BB5
S2140031B018602378002BE3D1794B7A4A18602B8964
S2140031C013807349784A1B0113600A6813440B6026
S2140031D06A69002A27D02B69744E002B36D1234605
S2140031E0296B73489200FFF759FB30602378002B59
S2140031F0C6D1704B2A7E1A706F4BEA691A606F4B05
S21400320032681A606B69EA6864215A43B2FBF1F2CD
S2140032106B490A606B4A5E4913606B4A9B001360F9
S2140032200A6813440B60694E6B6B336002F070FBE8
S21400323002F0C4FE054658B101232370644B636058
S2140032404FF4DA73A360634BE36099E73360D0E72B
S21400325002F09AFF3668604BB0420246186009D208
S214003260092323705A4B63604FF4DD73A360594BF8
S214003270E360FEE770D02B460020012117F052FFD6
S2140032807043564BB6F57A7F186008D9324600234D
S2140032900020012117F046FF4FF47A754543504B46
S2140032A0504A1D60002313704F4A13704F4A136034
S2140032B04F4A13604F4A13704F4A13704F4A2046C6
S2140032C0137002F03BF90A23B0FBF3F04C4B186086
S2140032D0217800297FF454AF2C4B1A68002A3DD180
S2140032E0484B00251D60484B1D60484B1D60484BF1
S2140032F01D60484B1D60484B1D7001F005FCFFF734
S2140033001DFF464B1D60464B1D80264B1B88002B21
S2140033102CD1444A00231360434A1380434A136067
S214003320434A1380434A1360434A2046138001F001
S2140033308FFE2378002B7FF423AF204601F078FC25
S2140033402378002B7FF41CAF00F036FCFFF7CAFD95
S2140033503A4B01221A7013E7284692E70A4B186880
S2140033600028BDD0920018F01DF9B9E7204601F0FC
S2140033702DF82378002BCCD002E700BF5410002095
S214003380545C0020105C0200585C00205C5C00204E
S214003390505C0020605C0020235C0200645C00201F
S2140033A0685C00206C5C0020705C00207C5C002068
S2140033B0355C0200745C0020785C0020805C002095
S2140033C0845C0020885C00208C5C0020905C0020E0
S2140033D0C45B0200855C0200BC5C0020985C002098
S2140033E0945C0020B4600020B5600020AC61002032
S2140033F0B0610020AA5D0020AB5D0020BC6000200C
S214003400B8600020C4610020C8610020CC610020A4
S214003410C0610020D0610020BE610020905D0020C9
S214003420945D0020A45D0020A85D0020AC5D002017
S214003430B05D0020C0600020C4600020965D0020C3
S21400344090F833300B490C22534330B5CA58CC1889
S21400345032B901252581C0E90422C850606030BD1C
S2140034602589013525810024026144615061C850D8
S214003470F5E700BFB45D002090F833200B490C231D
S2140034805A4330B58C588B1834B901251D81C0E9D4
S21400349004448850586030BD1A8901321A810022CF
S2140034A002615A6842611061F4E700BFB45D002013
S2140034B010B5044690F8330001F03EFB074B94F835
S2140034C033201B789A42204603D1BDE81040FFF710
S2140034D0D3BFBDE81040FFF7B3BF00BFAA5D002012
S2140034E038B590F8323004461546072B39D8DFE851
S2140034F003F01F1F04041F1F202000238367A0F86B
S2140035007C304164FFF7EFFD90F83230032B05D195
S214003510543002F08DFD08B1FFF7E2F92046FFF7C0
S214003520C7FF002384F8323084F8315084F83030F6
S21400353038BD00238367A0F87C304164FFF7D3FDD5
S21400354090F83230072B05D1543002F071FD08B1E7
S214003550FFF7C6F9042384F8323084F8315000238C
S214003560E4E7BDE83840FFF7BBB938B50C4691F83C
S214003570321007290546049807D80239052906D8C7
S214003580DFE801F0060605052525FF293AD138BDF6
S214003590A267A4F87C30606415B12046FFF7A3FD4F
S2140035A021462846FFF766FD94F83230032B06D1F5
S2140035B004F1540002F03CFD08B1FFF791F92046F3
S2140035C0FFF776FF0023238684F83230DFE7A26712
S2140035D0A4F87C30606415B12046FFF784FD2146D0
S2140035E02846FFF747FD94F83230072B06D104F142
S2140035F0540002F01DFD08B1FFF772F90023238680
S2140036000423E1E7BDE83840FFF76AB9D0E90032A5
S214003610934210B50FD01C690021A24215BF61610C
S214003620C3E90412C3E90412C2E9043116BF1361E8
S21400363002600460436010BD70B50446D4E90435EA
S21400364090F83300104A0C219DB953B941435518E0
S21400365053502B816B6001F085FA0023C4E90433D4
S21400366070BD484316183189013931815D611350A8
S214003670F3E701FB00221189013911812B610BB997
S2140036805560EAE75D61E8E7B45D002013B50446DF
S21400369070B1084B1B78012B0AD10023CDE900330B
S2140036A0054A416F0346054802F006FD044B1C60C0
S2140036B002B010BDBC60002041390000A05C0020B4
S2140036C09C5C0020F8B50446A8B1114B1B78012B72
S2140036D011D1056F0F4E7DB90F4B1F6802F054FDD8
S2140036E032682B46511E0D461946E7FB0051284608
S2140036F017F018FD6067F8BD02F046FD326800233B
S214003700511E0E461946E5FB00613046F0E700BF45
S214003710BC600020905C0020B86000202DE9F743D4
S214003720564B1B78012B00D0FEE7554B93F80080D4
S214003730B8F1000F40F08880FDF7B1FE514F524CB3
S21400374097F80090514D064601F0E6F940280346EA
S21400375038707CD00C20DFF844814343B9F1400F29
S21400376058F80330236003D101F088FBAFF30080E4
S21400377020682A68464B90421B780DD133B1436FC0
S2140037800BB9FFF79FFF2068FFF780FF304603B0B6
S214003790BDE8F043FDF789BE1BB3DFF80491D9F806
S2140037A000305B6FEBB13B4801A902F0A9FC30B9D1
S2140037B0D9F80030019A37485A6702F039FCD9F830
S2140037C000305A6F6AB993F8330000EB400008EBFC
S2140037D08000FFF71BFF3B780C22534358F803305A
S2140037E023602268D2F8A8300133C2F8A8302A4AEB
S2140037F01368013313603B78402B33D02B68226864
S214003800934215D0A3B101F0BDFF2B68D3F8B030BA
S21400381098421FD301F0B6FF2B68D3F8B030C01A19
S2140038202A68D2F8B430C2F8AC001844C2F8B40023
S214003830246801F0A7FFC4F8B00001F0F4FF30469A
S214003840FDF733FEBFF36F8F03B0BDE8F083C4F817
S2140038500080CCE701F096FF2B68D3F8B020D24367
S2140038601044DDE701F002FB2C681CB101F08AFF72
S214003870C4F8B000AFF30080DFE700BFB4600020FC
S214003880B5600020AB5D0020B0610020AC61002078
S214003890BC600020A05C0020B4610020B45D002065
S2140038A09C5C00202DE9F041044608B9FFF718F8A3
S2140038B0FDF7FEFD1E4F1F4E38B12023237040F249
S2140038C04D33C4E902366760FEE71B4B1B78012BBD
S2140038D008D002232370676040F25133C4E90236F1
S2140038E0BDE8F081DFF8548098F800302BB91F232C
S2140038F02370676040F25633F0E7FDF7D0FD98F886
S2140039000050013DEDB288F800503DB1FDF7CDFD09
S2140039102D232370676040F25E33DFE7FDF7C5FDB9
S214003920FFF7FCFE257067604FF45A73D6E700BFBA
S214003930C45B02006B5C0200B4600020B56000202F
S21400394038B50E4B1B78012B0D4616D1FDF7A7FD9B
S21400395000236B670A4B1B6893F83330044609480C
S21400396003EB430300EB8300FFF750FE2046FDF712
S2140039709CFDBDE83840FFF7D1BE38BDBC600020D6
S2140039809C5C0020B45D0020F8B50C46FDF787FD72
S21400399094F83230013B0746062B3FD8DFE803F0A9
S2140039A04B3E043E523E040094F83030042B08BFD1
S2140039B0E36A4FF0000608BF5D6AA667A4F87C605D
S2140039C018BF354601F0DEFE60642046FFF78BFB2D
S2140039D094F83230032B28D1FFF76AFD84F8326062
S2140039E04FF440732386CDB195F8333095F83420E4
S2140039F09A4213D094F833209A420FD1284600F00A
S214003A00C5FE95F83430834228BF0346D9B295F8F0
S214003A1033308B4202D0284601F052FC3846FDF780
S214003A2044FDBDE8F840FFF779BE072B04BF04232A
S214003A3084F83230D4E7002384F832302046FFF78B
S214003A4037FDEBE7042384F83230E7E72DE9F04151
S214003A5005460E4614460AB9FEF742FF00232370B9
S214003A601E4B636040F28533A3601D4BE360FDF799
S214003A7016FDDFF880800746E6B1C8F80060194BEF
S214003A80012D1A781FD0012A0FD1174C174821682C
S214003A90002574311D7002F033FB08B123685D67A2
S214003AA0124802F0C5FA002323603846BDE8F0410C
S214003AB0FDF7FBBC204601F041FD0A23B0FBF3F006
S214003AC0C8F80000DBE7002AEFD1094C1D7020681B
S214003AD0FFF7F8FD2068FFF7D9FDE6E7C45B0200B4
S214003AE0565C0200BC6000209C5C0020A05C0020AD
S214003AF0AC610020B8600020F7B504460D4611B34F
S214003B0002F042FB114B1A680026571E46F1FF31A1
S214003B10E5FB00713346384617F004FBCDE9006636
S214003B2001460B4A234604F1540002F0C5FA08B1D8
S214003B30FEF7D6FE0323204684F8323003B0BDE8F5
S214003B40F040FFF779BD0223F5E700BF905C002048
S214003B508939000037B5144D0B4611462A6882F89D
S214003B603030002382F83130104A127804463AB1D9
S214003B700F4A104812680191536702F059FA0199EA
S214003B802868FFF7B9FF64B1296804F10800CC6221
S214003B90FFF781FA2968204603B0BDE83040FFF7FA
S214003BA04DBA2B68DC62F5E7AC610020BC600020F3
S214003BB09C5C0020A05C0020754B1B7882B0DBB2BA
S214003BC08DF80530734B1B68DBB28DF80730724BEF
S214003BD01B78DBB28DF80530704B1B78DBB28DF8A6
S214003BE005306F4B1B68DBB28DF807306D4B1B6AD8
S214003BF0DBB28DF807306C4B1B78DBB28DF80530E6
S214003C006A4B1B78DBB28DF80530694B1B88DBB23C
S214003C108DF80630674B1B88DBB28DF80630664B96
S214003C201B78DBB28DF80530644B1B88DBB28DF851
S214003C300630634B1B88DBB28DF80630614B1B8861
S214003C40DBB28DF80630604B93F82830DBB28DF887
S214003C5007305E4B1B78DBB28DF805305C4B1B885B
S214003C60DBB28DF806305B4B1B88DBB28DF8063076
S214003C70594B1B88DBB28DF80630584B1B88DBB2DD
S214003C808DF80630564B1B88DBB28DF80630554B48
S214003C901B88DBB28DF80630534B5B8DDBB28DF89C
S214003CA00730524B1B78DBB28DF80530504B1B8823
S214003CB0DBB28DF806304F4B1B78DBB28DF8063042
S214003CC04D4B1B6ADBB28DF807304C4B1B78DBB2D2
S214003CD08DF805304A4B1B88DBB28DF80630494B11
S214003CE01B88DBB28DF80630474B1B68DBB28DF8BD
S214003CF00730464B1B78DBB28DF80630444B1B78FA
S214003D00DBB28DF80530434B1B78DBB28DF80530FF
S214003D10414B1B78DBB28DF80530404B1B78DBB28D
S214003D208DF805303E4B1B78DBB28DF805303D4BE9
S214003D301B78DBB28DF805303B4B1B88DBB28DF869
S214003D4006303A4B1B78DBB28DF80530384B1B88B3
S214003D50DBB28DF80630374B1B88DBB28DF80630A9
S214003D60354B1B78DBB28DF80530344B1B88DBB245
S214003D708DF80630324B1B88DBB28DF806309DF886
S214003D8005309DF806309DF8073002B0704700BF3A
S214003D9094100020901000208D1000208C10002021
S214003DA098100020C05C00209C100020E85C0020DA
S214003DB09E100020A0100020A2100020A8100020B6
S214003DC0A4100020A6100020EC5C0020AA10002002
S214003DD0AC100020AE100020B0100020B210002062
S214003DE0B4100020B61000201C5D0020B810002083
S214003DF0BA100020C41000204C5D0020C510002022
S214003E00C6100020BC100020C0100020CA100020E1
S214003E10C8100020C9100020CE100020CF100020AF
S214003E20745D0020D0100020D2100020D410002096
S214003E30CC100020D6100020755D0020765D002096
S214003E40D810002010B4074C2468A4F89420002250
S214003E50C4F88C10C4F8902001215DF8044B1A4673
S214003E60FFF778BEAC6100202DE9F04F2DED028BF8
S214003E7083B0DDE90E6408EE102A05468A469846A9
S214003E800CB9FEF72DFD0FFA88F3002B0093C0F255
S214003E905081FDF70DFB002800F04681202323709B
S214003EA09C4B636040F23513A3609B4BE360FEE7D8
S214003EB01F232370974B636040F23913A360964B21
S214003EC0E360FEE702232370924B63604FF49F7318
S214003ED0A360914BE3604FF0000B57E047F6FF639B
S214003EE008EA0303581E01280DD9042B0BD0082B13
S214003EF009D008232370874B63604FF4A373A36035
S214003F00854BE360FEE72868844B984209D00C2373
S214003F102370804B63604FF4AC73A3607E4BE3600A
S214003F20FEE708F4807301930EB100233360FDF7BB
S214003F30B6FA08F00F09B9F1040F074607D0B9F131
S214003F40080F42D0FDF7B1FAFEF7CAFC7AE02A6AFB
S214003F503AEA020302EA0A0B1ED1019B13B122EAD7
S214003F600B022A626E4A12680AB1C2F890B00EB10D
S214003F706A6A32603846FDF798FA00222270654A6F
S214003F8062604FF4BB72A260634AE260584603B0B8
S214003F90BDEC028BBDE8F08F009B002B08DAFDF726
S214003FA084FA1D2323705B4B636040F27D138FE71A
S214003FB05C4B1B78002B3BD0FDF777FA2D23237044
S214003FC0544B63604FF4C27382E72A6A12EA0A0B04
S214003FD016D0019B13B122EA0B022A62504A1268DD
S214003FE00AB1C2F890B00EB16A6A32603846FDF780
S214003FF05CFA00222270474A62604FF4D172C2E730
S214004000009B002B08DAFDF750FA1D222270414A69
S214004010626040F2A912B6E7424B1B7843B1FDF747
S21400402044FA2D2222703B4A62604FF4D872AAE707
S214004030284618EE103A42465146FFF703FF384628
S214004040FDF733FA364FFFF769FBFDF728FA3B68B2
S21400405093F83120032A4BD8DFE802F002263E32DE
S2140040600EB15B6C3360002323702A4B636040F212
S2140040702D23A360284BE3603B68D3F890B0019BE8
S2140040804BB1B9F1040F02D0B9F1080F3AD12A6A40
S21400409022EA0B022A62FDF708FA002222701D4A65
S2140040A0626040F26F226EE70EB15B6C3360FDF724
S2140040B0FCF921232370174B63604FF40E7307E758
S2140040C00EB100233360FDF7F0F922232370114B65
S2140040D0636040F24123FBE60EB15B6C3360FDF794
S2140040E0E4F9312323700B4B63604FF41373EFE650
S2140040F00090FDF7DAF9FEF7F3FB23780098002B23
S214004100BAD0E8E60090FDF7D0F9FEF7E9FB009894
S214004110C1E700BF8C5C0200D35C0200464C4147FE
S214004120AC610020B5600020FDF7CCF900287FF4D4
S214004130BFAE094B1B78012B7FF4C4AE002D7FF475
S214004140CDAE0A232370054B636040F24313A36091
S214004150034BE360FEE700BFB46000208C5C020007
S214004160D35C0200054B064AC36100234361136813
S21400417083610BB9106070475861FBE7DD7B020076
S214004180905D00202DE9F84F05468B4692461C466A
S2140041900BB9FEF7A5FBFDF78BF9DFF87C801B4F0C
S2140041A0064638B1202323705523C4E90237C4F8E5
S2140041B00480FEE73DB90A2323705823C4E902377A
S2140041C0C4F80480FEE7FDF76AF9282231468146E6
S2140041D0284617F0E7F90E4BC5F820A0C5E9003BC6
S2140041E005F10800FEF752FF2846FFF7BBFF094A15
S2140041F01388484601331380FDF757F9702326705D
S214004200C4E90237C4F80480BDE8F88FDE5C02001B
S214004210464C4147945D00208C5C020010B500239C
S214004220038690F83230C0F8901004464264072B9C
S2140042301AD8DFE803F01212040412121717032B21
S21400424005D1543001F0F4FE08B1FEF749FB2046D4
S214004250FFF72EF9002384F832302046BDE81040E0
S214004260FEF741BF0423F6E7FEF73AFBF5E700004A
S2140042702DE9F84305460F4616461C460BB9FEF7D1
S2140042802FFB4E4B1B78012B0CD0022323704C4B7C
S214004290636040F23233A3604A4BE3600025284651
S2140042A0BDE8F8834DB90A232370454B636040F29E
S2140042B03733A360434BE360FEE747F6FE731E42C8
S2140042C009D0082323703E4B636040F23A33A36064
S2140042D03C4BE360FEE72A683B4B9A4209D00C232E
S2140042E02370374B63604FF45073A360354BE36025
S2140042F0FEE701F047FA8146FDF7D1F8B6F5004F24
S21400430080460BD048F201039E421BD036B1012EE8
S21400431018D0FDF7CAF8FEF7E3FA02E0296A394337
S2140043202962AF68C5F8249087B94046FDF7BDF806
S214004330234B636040F262332770A360214B2D6AE3
S214004340E360ACE7296A21EA0701E9E738467F6AB5
S214004350B0F8943003F00F03042B07D0082B0FD0CF
S2140043604046FDF7A2F8FEF7BBFA0EE0D0F88C1038
S2140043702B6A31EA030308D14A46FFF74FFF04E0F1
S214004380296AD0F88C301940F6D1002FDED140468D
S214004390FDF78BF8330401D4FFF7C0F9FDF77FF87B
S2140043A02D6AFDF782F800232370054B636040F208
S2140043B0A333A360034BE36071E700BFB460002043
S2140043C08C5C0200C85C0200464C4147154BF0B5B9
S2140043D01C68154B1E880025721E04F1100192B24F
S2140043E02B46AFB2BA4213D8110104EB0212635047
S2140043F053601381D3600D4A1381D3809680146076
S21400440003700B4B43605D2383600A4BC360F0BDB3
S21400441041E9041321F8083C41F8043C0135103109
S214004420DFE700BF685C00206C5C0020985D002021
S214004430EB5C0200265D02002DE9F74F0C9C064659
S214004440894617461D460CB9FEF74AFAFDF730F8BE
S21400445048B120232370814B636040F23313A3607E
S2140044607F4BE360FEE74EB90A2323707B4B636005
S2140044704FF49B73A3607A4BE360FEE7C7F30E032B
S2140044804BB108232370754B636040F23913A36069
S214004490734BE360FEE73268724B9A4209D00C23F6
S2140044A023706E4B636040F23D13A3606C4BE36079
S2140044B0FEE73FB2002F0CDBFDF704F848B11F23E0
S2140044C02370664B63604FF4A073A360644BE36095
S2140044D0FEE7654B93F800B0BBF1010F1CD1FCF76B
S2140044E0DEFF96F82830DFF888A18046F3B9DAF8C0
S2140044F00030736286F828B00DB1F26A2A609A6BB3
S214004500326240469E63FCF7D0FF00232370534B75
S21400451063604FF4AA7305E0022323704F4B636079
S21400452040F24513A3604E4BE36013E0726ADAF87C
S21400453000108A4221D1FF2BDFF82091484F0CD182
S214004540FCF7B3FF1E232370C4F8049040F25D13FB
S214004550C4E9023703B0BDE8F08F013386F828308F
S2140045600DB1F36A2B604046FCF79FFF23232370B0
S214004570C4F8049040F26913EAE7002F0BDAFCF760
S21400458094FF0DB100232B601D232370334B636013
S2140045904FF4BB73C6E7354B1B785BB1FCF785FF62
S2140045A00DB100232B602D2323702C4B63604FF43A
S2140045B0C173B7E791F8331092F833308B4202D9C3
S2140045C0104600F07DFE4A4604213046FFF7C2FA48
S2140045D04046FCF76AFFFFF7A1F8FCF760FFDAF841
S2140045E0003093F83120032A32D8DFE802F00213B5
S2140045F0271D0DB15B6C2B6000232370174B636087
S2140046004FF4D073A360164BE36003B0BDE8F04FE1
S214004610FCF74BBF0DB15B6C2B60212323700F4B57
S21400462063604FF4D573EDE70DB100232B602223B2
S21400463023700A4B63604FF4DA73E3E70DB15B6CEB
S2140046402B6031232370054B63604FF4DF73D9E78B
S2140046500190FEF745F90198D7E700BF355D0200E7
S214004660855D02004D555458B4600020B5600020AA
S214004670AC610020064B0360064B43600023C0E994
S214004680083380F82830C3620830FEF7FFBC00BF4E
S2140046904E4F4E45725D0200054B064AC36100232D
S2140046A04361136883610BB9106070475861FBE77C
S2140046B0DD7B0200A45D00202DE9F04705468A4612
S2140046C014460AB9FEF70CF9FCF7F2FEDFF878801C
S2140046D01A4F064638B1202323705223C4E9023706
S2140046E0C4F80480FEE73DB90A2323705523C4E9C5
S2140046F00237C4F80480FEE7FCF7D1FE30223146CC
S2140047008146284616F04EFF0D4B05F10800C5E918
S214004710003AFEF7BBFC2846FFF7BEFF094A13889F
S214004720484601331380FCF7C0FE6C232670C4E9AC
S2140047300237C4F80480BDE8F08700BF9C5D020025
S2140047404D555458A85D0020355D0200D0E905237C
S21400475032B907490B6003B15A6100238361704781
S21400476093610BB9436170475A6100238361F9E78F
S214004770A45D0020836B00F138028B42186A01D1D9
S2140047801060704703F120020346F6E7836B3F2074
S21400479003B970479A6822B192F83320904228BF36
S2140047A010461B6AF4E700002DE9F84305460F465D
S2140047B014460AB9FEF794F8FCF77AFE064640B1AE
S2140047C0202323704F4B6360A523A3604E4BE3600A
S2140047D0FEE745B90A2323704A4B6360A823A3600B
S2140047E0494BE360FEE72A68484B9A4208D00C2300
S2140047F02370444B6360AB23A360434BE360FEE748
S214004800434B1B78012B0BD0022323703D4B636078
S214004810AF23A3603C4BE36007463846BDE8F88309
S214004820FCF73DFE804667B1012F31D0FCF73DFE18
S21400483008232370334B6360F323A360324BE3609B
S214004840FEE7AB68DFF8BC902F4ECBB92846FFF7E3
S2140048507DFF304A686A1388013B138010B12946F1
S214004860FFF788FF2846FFF705FF4046FCF71DFECA
S21400487000232370C4F80490C323C4E90236CCE7AF
S214004880FCF713FE2E232370C4F80490C623F4E727
S21400489000F078FF8146A868B7B2013668BB2846A4
S2140048A0FFF754FF1B4A6E6A1388013B13809EB1C4
S2140048B029463046FFF75EFF96F8341096F83330F8
S2140048C08B4209D03046FFF761FF814228BF014680
S2140048D0C9B2304600F0F4FC2846FFF7CBFE40464F
S2140048E0FCF7E3FDFEF71AFF00232370054B636019
S2140048F0EE23A360044BE3608FE702224946FEF7EF
S214004900EFFDC8E7355D0200915D02004D55545835
S214004910B4600020A85D00202DE9F04F054685B064
S2140049208A4614460AB9FDF7DBFFFCF7C1FD5C4F6B
S2140049305C4E38B12023237040F25723C4E9023678
S2140049406760FEE73DB90A23237040F25A23C4E9A4
S21400495002366760FEE7CAF30E033BB108232370F6
S21400496040F25D23C4E902366760FEE72A684E4BD4
S2140049709A4207D00C23237040F26123C4E9023622
S2140049806760FEE7494B1B78012B09D00223237092
S214004990676040F26523C4E9023605B0BDE8F08FD3
S2140049A0DFF81091FCF77BFD6A6AD9F800309A426E
S2140049B0804607D0FCF779FD1B23237067604FF411
S2140049C01B73E8E700F0DEFE95F828300290013B06
S2140049D0DBB2E86285F8283043B14046FCF765FD57
S2140049E023232370676040F27D23D4E7D9F80000C4
S2140049F02946FFF7BFFED5F808B0BBF1000F0CD173
S214004A00C5F824B085F828B04046FCF74EFD84F87B
S214004A1000B0676040F28A23BDE7D9F8001091F82D
S214004A20332091F834B003925A451BD00846FFF75E
S214004A30ADFE584528BF5846039A5FFA80FB5A4594
S214004A4010D20846FEF7F8FDD9F80020584682F83E
S214004A5033B000F071F8D9F80000FEF70DFD144AE7
S214004A6082F800B0A9686962012385F828308B6B4C
S214004A702B62029B8D63009300231A462846FEF79E
S214004A8074FD4046FCF711FD1AF4004F01D1FEF705
S214004A9045FE00232370676040F2AD237BE700BF2E
S214004AA0355D0200795D02004D555458B460002013
S214004AB0AA5D0020AC6100202DE9F341846B054619
S214004AC0012714B902B0BDE8F081D4F8208000F0C8
S214004AD059FE2146E06206462846FFF74BFEA168CF
S214004AE021B984F8281061624446EAE784F8287001
S214004AF08B6B2362002365621A468C632046009601
S214004B00FEF733FDF0E70000024B0022C3E9002267
S214004B10704700BF785D002008B5064B186828B9B6
S214004B20586800F035FE2030C0B208BD00F030FEF8
S214004B30FAE700BF785D00201F28094A07D84FF023
S214004B40004323FA00F01368034313607047012301
S214004B50C0F13F0003FA00F05368184350607047F6
S214004B60785D00201F280A4B08D84FF0004222FA32
S214004B7000F01A6822EA00021A6070470122C0F1AB
S214004B803F0002FA00F05A6822EA00025A607047B4
S214004B90785D0020F8B5064608B9FDF7A1FEFCF7DB
S214004BA07EFC1C4B00251D801B4B1D601B4B1D8176
S214004BB0FCF77BFCFCF773FC194B1C68FCF775FCD8
S214004BC074B9FCF76CFC174B1D68FCF76EFCE5B976
S214004BD0154B7360A423B3603570144BF360F8BDB7
S214004BE0FCF75DFCC4E92D55C4F8C050C4F8A850C5
S214004BF0A4F8A250A4F8A450074600F0C3FDC4F8D9
S214004C00B000D4F8D0403846D8E7FCF748FCAC856E
S214004C10AD69DAE7CA600020A8610020985D002030
S214004C20B8610020AC5D0020AA5D0200F95D0200BC
S214004C3000B5104A104900231370104A8BB0137049
S214004C400322CDE90632CDE904330D4A08901268F6
S214004C5003920C4A0C48126802920C4A126801929F
S214004C600B4A127800920B4A00F02CFA0BB05DF853
S214004C7004FB00BFCC600020E65D0200C66000209A
S214004C80885C0020845C0020D0600020805C0020CF
S214004C90745C0020A94C000008B500F073FD014BC1
S214004CA0186008BD8C5D00202DE9F04F85B0684681
S214004CB0FFF770FF684600F041FC9DF8003005469F
S214004CC00BB1FDF70DFE5C4B18684FF00008A842CC
S214004CD0C24642F2107728BF0A20B5FBF0F500F076
S214004CE051FD564E814600F04DFD3368984267D31D
S214004CF000F048FD3468041BFCF7D1FB504BD3F89A
S214004D0000B0C3F800A0FCF7D0FB4E4B9C425DD928
S214004D104D4B9C425ED94D4B9C425FD34C4B9C42C4
S214004D2095BF4FF47A7038460A2601260BFB06F329
S214004D30B4FBF0F4B3FBF4F39BB2BB42454A28BF86
S214004D403B461380444AFB1A9BB21380434A1188A1
S214004D50994203D2B8F1000F00D01380DFF808B1F3
S214004D60FCF79DFBDBF80080FCF79FFBB8F1000F1B
S214004D7037D1FCF794FBDBF80080FCF796FBB8F124
S214004D80000F3BD1364B1A78012A04D1684683F8C7
S214004D900080FFF7FFFE00F0D9FDFFF77DFF00F073
S214004DA0F1FC304B1A68A0EB0900824238BF18604D
S214004DB06A460021284600F0D3FB4FF001088EE734
S214004DC000F0E0FC3368DB431C1895E7012042F254
S214004DD01076ABE70A204FF47A76A7E764200646FB
S214004DE0A4E7FCF75CFBD8F8B430C8E92DA3FCF7C1
S214004DF05CFBFCF754FBD8F8D080B5E7D8F8B830A1
S214004E00B8F8A4207343B3FBF4F39BB2BB4228BFAD
S214004E103B469A4238BFA8F8A430A8F8A23008F15A
S214004E20C40208F1C80140466B4600F073F8FCF770
S214004E3036FBD8F8D080A0E7785C00208C5D002098
S214004E40885D00207F1A0600FF083D00005A6202B7
S214004E50FF83D717805D0020C8600020CA6000204E
S214004E60C6600020A8610020B861002008B500F0E8
S214004E7089FC014B186008BD845D002010B50A4C03
S214004E8000F080FC2368984208D300F07BFC23687F
S214004E90C01A064A13681844106010BD00F072FC71
S214004EA02368DB431844F4E7845D0020885D002017
S214004EB02DE9F04106460D4614460AB9FDF710FDE9
S214004EC0022DDFF84C80104F08D90823237040F2DB
S214004ED0FD33C4E90237C4F80480FEE7FCF7DFFAC6
S214004EE00EB90A4B1E68203556F82550FCF7DDFA39
S214004EF00023237040F20543C4E90237C4F8048057
S214004F002846BDE8F08100BF535E0200AC61002079
S214004F10055E02002DE9F04105460F4616461C4682
S214004F200BB9FDF7DDFCFCF7C3FA48B1202323706C
S214004F302F4B636040F2BA63A3602E4BE360FEE73C
S214004F404FB90A2323702A4B636040F2BD63A36007
S214004F50284BE360FEE74EB90A232370244B6360B8
S214004F6040F2BF63A360234BE360FEE7FCF797FACB
S214004F700DB9214B1D68D5F80080B8F1000F10D18F
S214004F80FCF793FA0823C7F80080C6F80080237061
S214004F90174B636040F2CA63A360164BE360BDE83C
S214004FA0F081B5F8408018F001080CD1FCF77DFAC6
S214004FB00723C7F80080C6F8008023700C4B636098
S214004FC040F2D263E8E7FCF770FAA969002351F8CB
S214004FD0232052B13B60EA6BD31A33600023237060
S214004FE0034B636040F2ED63D6E70133EFE700BFA3
S214004FF0055E0200775E0200AC610020064A0023D0
S214005000C0F8CC301368C0F8D0300BB910607047C9
S214005010C3F8CC00FAE700BFB8610020D0E933231C
S21400502042B90A490B600BB1C3F8CC200023C0F884
S214005030D0307047C2F8D03013B9C0F8CC307047C3
S214005040C3F8CC200023C0F8D030F6E7B8610020C3
S214005050074A00231360074A1380074A1360037049
S214005060064B436040F61F038360054BC3607047E2
S214005070B8610020BC610020B4610020055E02001B
S214005080475E020010B5D8220446002116F08AFAC0
S2140050900A4BE36000F076FB00234FF08042C4E941
S2140050A03333C4F8B4302263A3634022044BC4F8FD
S2140050B0B00084F83420C4F8D43010BD415E02003D
S2140050C0DD7B02002DE9F04F89B005460393DDE94C
S2140050D013630493DDE917831A9C9DF848B0159F67
S2140050E0BDF864A00591914606930CB9FDF7F8FB50
S2140050F0FCF7DEF96B4A6C4B014630B16260F02279
S214005100C4E9022320212170FEE735B96260F3224C
S214005110C4E902230A212170FEE7B9F1000F06D187
S2140051206260F622C4E902230A212170FEE736B93E
S2140051306260F922C4E902230A212170FEE75B4877
S2140051400068B84206D96260FC22C4E9022308213E
S2140051502170FEE70498874206D86260FF22C4E901
S214005160022308212170FEE7BBF13F0F07D96260DA
S2140051704FF48172C4E9022308212170FEE7284615
S2140051800791FFF77FFF474A0799474B62601AF07F
S214005190030F40F20B122170A260E36069D1049BFA
S2140051A0039923F0070306EB8303CDE9007A324622
S2140051B04846049300F0EAFB8642049B0ED932224E
S2140051C02270384A62604FF49472A260364AE260F7
S2140051D007900493FDF784FB0798049B039A2A62C2
S2140051E0059A334CC5F81C90EA6085F833B085F80C
S2140051F034B02860AB60C5F87080B8F1000F40D1BD
S2140052002C4BD3F8009000F0BFFF2268511E0C46CE
S21400521041464346E9FB0041204615F083FF069BC6
S2140052206B600023C5E92033C5F888306867AE6137
S2140052302846EF63A5F840A000F090FBFCF72FF996
S214005240044695F83300FFF777FC2846FEF714F976
S2140052502846FFF7D3FE184A138801331380174BEE
S2140052601B78012B204616D009B0BDE8F04FFCF79E
S2140052701CB91AF0020F92D0BA00304616F092F916
S2140052808DE700F081FF22680023511E0C46194668
S214005290E8FB0041C0E7FCF708F909B0BDE8F04FAD
S2140052A0FEF73CBA055E02006A5E0200C05B0200C2
S2140052B0905C0020B8600020BC610020B460002034
S2140052C070B504460D4694F83230072B08D8013BDB
S2140052D0062B0BD8DFE803F01F22221F1F22220016
S2140052E0FF2B1AD0BDE87040FDF7FABA2046FEF74D
S2140052F0A3F9284684F83350FFF71EFC264B1B689C
S214005300A342204603D1BDE87040FEF799B8BDE839
S2140053107040FEF7B1B884F8335070BD94F8303062
S21400532094F8336084F83350013B072BDAD801A297
S21400533052F823F0555300001B530000E5520000BE
S2140053405F53000055530000555300001B530000E8
S214005350555300002046BDE87040FDF7DFBE2046EE
S214005360FDF7DCFEE36A5C6AB54294F8333002D29D
S214005370AB42A8D8D1E7B342A5D12046FFF706FA3C
S21400538094F83430984228BF184694F83330C5B2A3
S214005390AB4298D1C1E700BFAC6100202DE9F041D7
S2140053A004460D4609B9FDF79BFAFCF781F848B1AB
S2140053B020232B70554B6B604FF4DA73AB60544B65
S2140053C0EB60FEE7534B1B78012B0AD002232B70B1
S2140053D04E4B6B604FF4DC73AB604D4BEB60BDE83F
S2140053E0F0812CB9FCF75BF84B4B1C68FCF75DF8BA
S2140053F0FCF755F894F83230072B804608D8013B66
S214005400062B0DD8DFE803F04733330F473333005E
S214005410FF2B72D0FCF749F8BDE8F041FDF760BA03
S2140054202046FEF709F9A36B13B12046FFF744FBAD
S214005430204600F09BFA2046FFF7F0FD374A138817
S214005440013B1380FFF71EFEFF2384F832304046F0
S214005450FCF72BF800232B702C4B6B6040F23123AB
S214005460AB602B4BEB60BDE8F041FEF757B994F804
S2140054703030082B3ED8DFE803F00805083D170556
S214005480050805002046FDF72EFE94F8323003F09E
S214005490FB03032BC7D104F1540000F0C9FD00281C
S2140054A0C1D0FDF71DFABEE7E36A5E6A204696F8AD
S2140054B03370FDF718FE96F8333096F834209A428B
S2140054C00CD094F833209A4208D13046FFF75EF9A4
S2140054D096F83410814228BF0146CFB2002384F8E4
S2140054E0303096F83330BB42CFD039463046FFF7DF
S2140054F0E7FECAE7FDF7F4F9C7E7FBF7D6FF1F2379
S2140055002B70024B6B6040F2072365E7055E0200D6
S214005510605E0200B4600020AC610020BC61002028
S2140055201FB5054B186800F029FA69460020FFF7FA
S21400553035FF05B05DF804FBAC6100200023037066
S214005540044B436041238360034BC360034B1868DE
S214005550704700BF845E0200CA5E0200905C0020B6
S2140055602DE9FF470546884614460AB9FDF7B8F9FF
S214005570FBF79EFF6C4F6D4E30B1202323707123D6
S214005580C4E902366760FEE7FBF79CFF30B11F23D5
S21400559023707423C4E902366760FEE7644B1B7809
S2140055A0012B08D00223237067607823C4E90236F3
S2140055B004B0BDE8F0875F4B93F800A0BAF1000F87
S2140055C004D02D23237067607D23EFE7DFF88091FA
S2140055D0D9F8003023B91323237067608223E5E7E8
S2140055E0B8F1000F2BD0B8F1020F28D0B8F1080F91
S2140055F000F08F80082323708723C4E90236676093
S214005600FEE700F0B5FD4C4BD9F80020196853466C
S214005610A0FB010115F086FD484B1B6893F84C2053
S214005620CAB11A6D15441D652D1A25EAE575444A5A
S214005630116821B11A6D91429CBF521A1A65002D4D
S21400564047D03F4B1B6863B1AB420AD81E2323707A
S2140056506760AF23AAE728440122186583F84C2028
S214005660E5E7354BD9F800C01A68DFF8D0904FF060
S2140056700008501E41464346E5FB0C0115F052FD5E
S2140056800390FBF70CFFCDE90088D9F800302D4ACF
S2140056900399054603F1540000F00EFD4FF0010893
S2140056A038B12846FBF701FF84F800806760BF2307
S2140056B07CE7D9F8000080F83280FDF7BDFF284669
S2140056C0FBF7F3FEFEF72AF8002323706760D82363
S2140056D06CE7FBF7E4FE1C4B1C491A784FF00C0CE9
S2140056E002EB42030CFB02F201EB020C01EB83031C
S2140056F08958DCF804209142054606D1FBF7D5FE12
S214005700002323706760CE2350E71846FDF77EFF20
S214005710D5E7002D7FF475AF8C23C4E9023684F8F4
S21400572000806760FEE700BF845E0200C05E020085
S214005730B4600020B5600020905C0020AC610020C2
S214005740985C002089390000AA5D0020B45D002026
S214005750BC5C002008B5FAF71FFF4FF0E022D2F835
S214005760FC3D43F08073C2F8FC3D054B00225A60B6
S2140057701A6842F001021A60BDE80840FDF7B2B8A8
S214005780001000E0014B5868704700BF001000E0B2
S214005790B0FA80F0704790FAA0F0B0FA80F0704748
S2140057A090FAA0F0704700BF72B64EF62250CEF2C6
S2140057B0000040F2FF01C0F200010170002080F3FB
S2140057C0098846F2D410C2F20000016881F3088806
S2140057D000F016F945F6AA50C2F2000045F6AB51A5
S2140057E0C2F200010A78027046F2AC10C2F2000063
S2140057F046F2B011C2F200010A680260106880F337
S2140058000988EFF3148040F0020020F0040080F3D3
S2140058101488BFF36F8FBDE8F04F0FBCBDE8005093
S21400582006BC62B6084737484FF0805101607047A3
S21400583034484FF0805101607047602080F3118833
S21400584046F2AC12C2F200021168002901BF2E4ACD
S214005850136823F0010313600ED0EFF309801EF0E7
S214005860100F08BF20ED108A20E9F04F46F2AC1565
S214005870C2F2000529680860744600F0C1F846F2D6
S214005880AC11C2F2000146F2B010C2F2000003688A
S2140058900B6045F6AA52C2F2000245F6AB51C2F2C0
S2140058A000010878107044F0040E002B0AD0186827
S2140058B0B0E8F04F1EF0100F08BFB0EC108A80F36F
