S02000006275696C642F64656275672F776973756E6272636C692D62682E73333726
S21400000000100020190A0000150A0000150A00005A
S214000010150A0000150A0000150A0000150A00005F
S214000020150A0000150A0000150A0000150A00004F
S214000030150A0000150A00004B7B0000150A000098
S214000040150A000015240200150A0000150A000013
S214000050E51C02006D24020021240200392402005F
S21400006019240200250F000011100000150A0000D8
S2140000701DAF0000150A0000150A0000150A000052
S214000080150A0000150A00002D100000150A0000D1
S214000090150A0000150A0000150A0000150A0000DF
S2140000A0150A0000150A0000150A0000150A0000CF
S2140000B0712402001D24020081990000AD24020074
S2140000C0150A0000690F0200150A0000150A000054
S2140000D0150A0000150A0000150A0000150A00009F
S2140000E0150A0000150A0000150A0000150A00008F
S2140000F0150A0000150A0000150A0000150A00007F
S214000100150A0000150A0000150A000010B5054C77
S214000110237833B9044B13B10448AFF300800123AE
S214000120237010BDA824002000000000A48B070048
S21400013008B5034B1BB103490348AFF3008008BD65
S21400014000000000AC240020A48B0700A3F5803A32
S214000150704700BF174B002B08BF134B9D46FFF799
S214000160F5FF00218B460F461348144A121A1AF060
S21400017001FE0E4B002B00D098470D4B002B00D0F5
S21400018098470020002104000D000D48002802D0EA
S2140001900C48AFF300801AF081FD200029001AF009
S2140001A055FB1AF055FD00BF0000080000000000D7
S2140001B00000000000100020AC1800207C5C02202C
S2140001C0000000000000000008B5074B4FF0FF31AC
S2140001D0186804F047FD28B1044B054A0548562127
S2140001E01AF010FD08BD00BFC4240020207B0600C6
S2140001F0FA7C06005A7B060008B5064B186804F021
S21400020066FD28B1044B054A05485C211AF0FAFC45
S21400021008BD00BFC42400209B7B0600DF7C0600D0
S2140002205A7B060008B5084804F0D6FC074B186051
S21400023028B9074B074A084864211AF0E3FCBDE8D2
S214000240084000F079B800BF147D0600C4240020E2
S214000250C67B0600CC7C06005A7B060010B504461A
S214000260FFF7B2FFE3686268D21A022A06D00F4888
S2140002701BF06AF9BDE81040FFF7BEBFA26802EBAC
S2140002808301496839B152F8234034B9084909480E
S2140002901BF05AF9EEE70849F9E7204600F0B0F8F7
S2140002A00028E7D005482146F2E700BFE77B0600B6
S2140002B0A8B50600117C0600E17B0600287C060037
S2140002C013B50446FFF780FFD4E9023253F8221034
S2140002D00191084600F0DEF8019910B103481BF0C2
S2140002E033F902B0BDE81040FFF786BF4E7C06002B
S2140002F008B5FFF769FF00F04FF8014630B905482A
S2140003001BF022F9BDE80840FFF776BF02481BF055
S2140003101BF9F7E7747C0600877C060008B5FFF734
S21400032053FF00F051F803481BF00EF9BDE80840F3
S214000330FFF762BFA87C06002DE9F743144E154F61
S2140003400025ECB256F8243013B903B0BDE8F083AC
S214000350D3E90098386801AB6A4621461EF062FA77
S21400036028B156F82430996869B90135E9E7019B48
S2140003709845F6D1386843464A4621461EF004FAA8
S2140003800028F2D0EDE7D3E900021AF0CBFCECE748
S214000390781300201410002070B5094D094E002473
S2140003A0E1B255F8210000B970BDD0E900233068ED
S2140003B01EF0A0F901340028F2D00120F4E700BFB7
S2140003C07813002014100020F8B50B4E0B4F0025B4
S2140003D0ECB256F8243003B9F8BD214638681EF052
S2140003E067FA56F82430996819B1D3E900021AF072
S2140003F099FC0135ECE700BF7813002014100020AC
S2140004002DE9F0470D4610B92920BDE8F0870029F0
S214000410FAD01C491BF0B2FA1A49064600201BF017
S214000420ADFA1849074600201BF0A8FA8046002EB1
S214000430EAD0002FE8D0144CDFF854902368002B45
S214000440E2D02379304659F823101BF03FFAA8B9BA
S214000450206839461BF03AFA80B9636983B121797E
S214000460226859F8211009482B461BF06DF863697D
S214000470224641462846BDE8F04718471C34DDE7CB
S2140004800820C2E71BBB060018CA0600F2C7060013
S2140004906C1300202DE9F0472149224CDFF88880B4
S2140004A0DFF88890A0B01BF069FA1D4905460020C9
S2140004B01BF064FA1A49064600201BF05FFA07464E
S2140004C054F81C0CA4F11C0A10B920B0BDE8F08743
S2140004D09DB9EEB954F8043CC3B152463946684655
S2140004E0984798B914F8181C54F81C2C58F8211082
S2140004F06B4648461BF028F808E014F8183C2846D7
S21400050058F823101BF0E2F90028E2D01C34D7E795
S21400051054F81C0C31461BF0D9F90028DAD0F5E760
S2140005201BBB060034CA06006C130020F2C7060088
S21400053038B59568144652790146013A28461BF0AC
S214000540F3F963791D44002005F8010C38BD00005E
S21400055008B5926802491BF019F9002008BD00BFD3
S214000560247D060013B593790146144603F0010373
S214000570D26801A800F05CF898B96379022B08D01D
S214000580042B0AD0012B0CD1A368019A1A7002B072
S21400059010BDA368019A1A80F9E7A368019A1A6049
S2140005A0F5E72620F3E773B55479022C20D0042C07
S2140005B028D0012C29D193681978D379DB0703D585
S2140005C00E0601D5A1F58071D37903F00606062E36
S2140005D008BF640003F002050CBFE4B20024CDE9B6
S2140005E0005403F00103126900F056F802B070BD23
S2140005F093681988D379DD07E6D50B04E4D5A1F511
S2140006008031E1E793681968DEE72620EEE738B523
S2140006100D46044614B1206810B90446204638BD7D
S21400062029461BF053F90028F8D00834F2E70000FA
S214000630F7B50646002510460C461F460195FFF7FF
S214000640E6FF20B143683360284603B0F0BD0C498E
S21400065020461BF07CF9844206BF023410220A2290
S21400066001A920464FB11BF069FA019B30601B7848
S214000670002B0CBF00202920E7E71BF07DFBF4E7EA
S214000680297D060010B103680BB918467047436809
S2140006908B42FBD00830F5E72DE9F041044698463A
S2140006A0002386B010462370FFF7ECFF9DF8342039
S2140006B09DF830700E46054692B39FB120496846B5
S2140006C01BF064F81F4968461BF0F1F8324669468D
S2140006D003A81BF05BF865BBAFB11B4920461BF0B7
S2140006E0E6F810E0194968461BF050F8B8F1000F1C
S2140006F01DD0174968461BF0DAF83246694603A84B
S2140007001BF044F8ADB903A920461BF0D0F81DB184
S214000710104920461BF0CBF8002006B0BDE8F0815B
S2140007200D4968461BF032F8002FDFD0CAE70B49A8
S214000730E0E72A680A4920461BF028F8CCE700BF05
S2140007402C7D060077740700297D060070100700D0
S2140007502B65070037220700D1750700973407007E
S214000760327D060008B5042201230521002003F08F
S214000770BFFA002008BD08B500231846042205214C
S21400078003F0B6FA002008BD08B50648012101F0BE
S21400079077FF19F072FFFFF7E5FFBDE8084000F0AD
S2140007A015B800BF00350A000148012101F068BFF6
S2140007B000350A00014B1022DA60704700A00046A0
S2140007C0014B1022DA60704700A0004470B5384D27
S2140007D0384E0FCD86B06C460FC495E8030084E80B
S2140007E00300354C3548012101F04AFF304601210F
S2140007F001F046FF0125324B0293694620468DF8EC
S2140008000E5003F051FF2B4604220621022003F06F
S2140008106FFA2A4600230721022003F069FA2B46C6
S21400082004220821022003F063FA042211462B4614
S214000830002003F05DFA234BA3670B2363674FF496
S214000840487009F0D1F81420FFF7BAFF09F0CCF889
S2140008502320FFF7AFFF09F0C7F8B9212046FFF7BE
S214000860AFFF03F07BFFFFF7A5FF00231A46062124
S214000870022003F03DFA00231A460721022003F067
S21400088037FA2B4600220821022003F031FA002214
S21400089010462B46042103F02BFA204603F06AFE8E
S2140008A00021A1673046616701F0EAFE06B070BD20
S2140008B0387D0600005204000004014000350A009E
S2140008C000127A000B0B000B002303607047000039
S2140008D038B504460D4601B118B90448382101F070
S2140008E02FFE23682B60256038BD00BF507D0600B4
S2140008F010B538B132B129B100230139D45C14B92E
S2140009000023037010BD8B42FAD200F8014B01336E
S214000910F4E7034638B100201A5C22B1814200D1C8
S21400092070470130F8E770474FF0FF31FFF7F1BF2F
S21400093070B50C461646054660B15AB151B1FFF780
S214000940F3FF844206D9211A32462844BDE8704097
S214000950FFF7CEBF70BD000070B5D0B1C9B10E4E66
S214000960431E013913F8014FA25D02F00302012A6B
S21400097011F8012FB55C05F00305204608BF04F109
S2140009802000012D08BF2032801A01D1002CE9D1A9
S21400099070BD0120FCE700BFCAF106001FB5044683
S2140009A050B1684606F070FB20709DF800000038D5
S2140009B018BF012004B010BD0120FBE71FB5144688
S2140009C052B16A4606F02EFB20609DF80000003803
S2140009D018BF012004B010BD0120FBE71FB56B4611
S2140009E006F07EFB9DF80000003818BF012005B019
S2140009F05DF804FB05490A681318054883428CBF56
S214000A004FF0FF320B601046704700BF001000200A
S214000A1000000420FEE7000008B500F069F8064B69
S214000A200649074A8B4201D3FFF794FB52F8040BA2
S214000A3043F8040BF6E700BF00100020AC180020B7
S214000A40AC8B07000048704700F04902104AD2F805
S214000A50943003F00703023B032B13D8DFE803F0C0
S214000A600C14020E0B4B1B68D2F80001C0F30420D6
S214000A700130B3FBF0F07047074BF4E7074B1B68F9
S214000A805B08F1E7054BEEE74FF40043ECE700BFE9
S214000A9000400E4010100020081000200C1000200F
S214000AA008B5FFF7D3FF054BD3F80831C3F3082387
S214000AB00133B0FBF3F0024B186008BD00400E4057
S214000AC004100020014B1868704700BF0810002073
S214000AD0054B1860054BD3F8943003F00703022B40
S214000AE001D1FFF7DDBF70470810002000400E4020
S214000AF0044B054A9A60D3F8882042F47002C3F883
S214000B008820704700ED00E0000000004FF4004031
S214000B1070474FF47A707047014B1868704700BFF3
S214000B20101000202DE9F04F9A46554B85B01B78E3
S214000B30DDF83C909DF844B0DDF8508006460F4640
S214000B401546002B00F08B80072A00F28A800E9B49
S214000B50002B00F08680B9F1000F00F08280129B17
S214000B60B3F5006F7DDC012802D1109B002B78D0F6
S214000B70444B03EB05131B7B002B74D0424C102216
S214000B80002168461AF0F6F804EB45141022002FF0
S214000B9057D1394620461AF0EDF843F21003638029
S214000BA0BBF1000F03D1E37843F00303E370364A4A
S214000BB00E9BCDF800A002EB451CCCE90193129BDE
S214000BC0013BC3F30A009DF84C30690103F00303B0
S214000BD09B0643EA001E53582C4818404EEA000372
S214000BE0012E535041D11323CCF80C309CE80F0053
S214000BF00CF1100E8EE80F00DCF81C20109BCCF8D1
S214000C0014306FF0030161F39F02012FCCF81C2013
S214000C1003D1CCF81890CCF804301A4A290102EB1C
S214000C20051342F801800027159A5A6028469F60EF
S214000C305E732246694603F027F9384605B0BDE8DC
S214000C40F08F002120461AF095F84FF44473638025
S214000C50BBF1000FABD1E37843F03003A6E70C48B6
S214000C60ECE70C48EAE70C48E8E7B8F1000FD4D107
S214000C709CF8023068F304138CF80230CDE700BF0E
S214000C807C260020FC2400207C2500200F80FFF31B
S214000C90028000F0018000F0078000F038B5124BAB
S214000CA01B780546DBB1E0B102F075FA0F4A002367
S214000CB01146147B54B92B601A0101EB031301256E
S214000CC08C501D7302F06DFA204638BD0133082B98
S214000CD002F11002EDD102F064FA0548F5E7054886
S214000CE0F3E70548F1E700BF7C260020FC2400203F
S214000CF0048000F0028000F0018000F013B5164B6F
S214000D001868019000238DF8043002F044FA134B63
S214000D101C7824B102F045FA114802B010BD012239
S214000D201A7002F03EFA0F4B1C731C7783F82C40A7
S214000D3083F83C4083F84C4083F85C4083F86C4072
S214000D4083F87C4004230DEB03008DF8073003F096
S214000D5059F82046E1E700BF7F7D06007C2600208C
S214000D60038000F0FC24002010B588B00E9C079489
S214000D700D9C06949DF8304005940B9C04949DF8B9
S214000D80284003940024CDE9013400920B46024625
S214000D9021462046FFF7C6FE08B010BD10B588B045
S214000DA00E9C07940D9C06949DF8304005940B9C71
S214000DB004949DF8284003940024CDE90134009261
S214000DC00B46024601212046FFF7ACFE08B010BDD8
S214000DD00A4A127808B55AB107280BD8084A02EB17
S214000DE000131B7B43B1002102F0F0FF002008BD7A
S214000DF00448FCE70448FAE70448F8E77C260020A5
S214000E00FC240020028000F0018000F0078000F043
S214000E100A4A127808B55AB107280BD8084A02EBD6
S214000E2000131B7B43B1012102F0D0FF002008BD58
S214000E300448FCE70448FAE70448F8E77C26002064
S214000E40FC240020028000F0018000F0078000F003
S214000E500A4A127808B552B107280AD8084A02EB9F
S214000E6000131B7B3BB103F095F8002008BD054836
S214000E70FCE70548FAE70548F8E700BF7C260020AF
S214000E80FC240020028000F0018000F0078000F0C3
S214000E900D4B1B7893B1072812D889B10B4B03EB87
S214000EA000131B7B73B10A4B1A6A012303FA00F086
S214000EB010401ABF00200B70087070470548704736
S214000EC005487047054870477C260020FC24002013
S214000ED000200E40028000F0018000F0078000F045
S214000EE00B4A127810B50C4662B107280CD859B1D7
S214000EF0084A02EB00131B7B43B103F06BF820603B
S214000F00002010BD0448FCE70448FAE70448F8E768
S214000F107C260020FC240020028000F0018000F0E7
S214000F20078000F02DE9F843DFF86480D8F8607099
S214000F30D8F86C301F4000D5FEE7144CDFF854900C
S214000F4001260025374217D02368C8F868609BB191
S214000F50A16862680131A16028469847637B012B2F
S214000F600AD148B909EB45131A7B60F341021A739C
S214000F701A7F60F341021A770135082D4FEA4606BC
S214000F8004F11004DED1BDE8F88300BFFC24002085
S214000F9000200E407C25002070B5094E0446012531
S214000FA004B970BD94FAA4F0B0FA80F005FA00F324
S214000FB024EA030456F82030002BF1D09847EFE7D8
S214000FC08026002008B5122002F006F928B1084B4A
S214000FD04FF48022C3F880211A600A2002F0FCF841
S214000FE028B1034B4FF48062C3F880211A6008BD15
S214000FF000E100E038B504460D4602F0CCF8034B9D
S21400100043F82450BDE8384002F0CBB880260020D4
S214001010054BD3F82804D3F81C24104000F05530B4
S214001020C3F82404FFF7B8BF00A00040054BD3F870
S2140010302804D3F81C24104000F0AA30C3F8240477
S214001040FFF7AABF00A00040024B1968024B1868C1
S2140010501DF080BA18100020141000207047000001
S21400106037B5920004460D46019203F03BF9431C47
S2140010700BD060B9019A2946204619F043FE002895
S214001080044808BF002003B030BD0348FBE7034810
S214001090F9E700BF10E000F021E000F024E000F0E7
S2140010A013B5044601A803F085F99DF806302380A1
S2140010B040F201136380074BD3F8E4301B0E0A336B
S2140010C0012203F01F0302FA03F30020636002B05C
S2140010D010BD00BF0081E00F02F0DABF08B502F0D5
S2140010E0B5FF002008BD10B5044644EA010313F01E
S2140010F00303084609D1934201D1002010BD54F8DD
S214001100231040F823100133F5E79200214619F02A
S21400111009FEF2E710B5044603F07AF8431C17D030
S214001120C0B90D4BD3F8E4301B0E0A3303F01F0290
S2140011300123934023F0030320462344984201D121
S214001140002010BD50F8042B0132F7D00348F8E712
S2140011500348F6E70348F4E70081E00F0EE000F0EE
S21400116021E000F024E000F008B502F00DF8014B95
S214001170186008BD902D0020014B186802F008B8D2
S214001180902D00207047000038B141B1013AB2F509
S214001190006F044838BF0020704703487047014876
S2140011A0704700BF037000F0027000F038B50446C8
S2140011B00D4601F0F0FFA3889BB223B92B6001F027
S2140011C0F0FF064838BD638814229BB202FB034436
S2140011D008342C6001F0E5FF0020F3E70B7000F008
S2140011E038B50D46044618B3012824D0022825D069
S2140011F0032826D004280ED0052825D0831F012BCF
S21400120009D9082823D0092823D00A2803D1072380
S214001210EB40DB0704D410484FF4797101F090F9E5
S21400122030200E4B0121444301FA05F51D5138BD0F
S21400123040F2FF33ECE74FF6C073E9E740F6FF7382
S214001240E6E74FF47F43E3E74FF6FF73E0E70F234D
S214001250DEE74FF44043DBE7A87D06000CA0004421
S21400126038B50D46044618B3012824D0022825D0E8
S214001270032826D004280ED0052825D0831F012B4E
S21400128009D9082823D0092823D00A2803D1072300
S214001290EB40DB0704D4104840F2134101F050F94C
S2140012A030200E4B0121444301FA05F51D5138BD8F
S2140012B040F2FF33ECE74FF6C073E9E740F6FF7302
S2140012C0E6E74FF47F43E3E74FF6FF73E0E70F23CD
S2140012D0DEE74FF44043DBE7A87D06000CA000469F
S2140012E0436B002B10B5044603DC0448772101F05D
S2140012F027F9636B013B636310BD00BFD57D060015
S214001300F7B504460191164601F045FFA388E2882A
S21400131001999BB29A42054606D80023336001F035
S21400132040FF124803B0F0BD2088142780B207FBA8
S21400133000403A46083019F0F5FC2388E2889BB254
S21400134007FB03430833336023889BB20133B3FBA8
S214001350F2F102FB11339BB22380A38801339BB2C8
S2140013602846A38001F01DFF0020DBE70A7000F08E
S2140013707FB5012380F82C3090F83230ABB9426B41
S2140013800368013242630C4A0392002204900292E0
S2140013904A680192012200920A68016980681C333B
S2140013A0FFF7FCFC07B05DF804FB012BE7D0002339
S2140013B080F82C30F6E700BFB12300007FB501238C
S2140013C080F82D3090F832309BB902683432436B87
S2140013D0013343630E4B03930023049002934B6840
S2140013E00193012300930B68C1684068FFF7BCFCBB
S2140013F00BE0012B06D10268136843F4005342F851
S214001400283BE4E7002380F82D3007B05DF804FBA6
S2140014108916000090F8323053B903680422DA6067
S2140014201A699007FCD55A6F42F002025A67704755
S214001430012B0CD103685A6C9107FCD404225A6025
S2140014409A689207FCD55A6D42F002025A657047B8
S21400145090F8323053B903680122DA601A69D0076F
S214001460FCD55A6F42F001025A677047012B0CD127
S21400147003685A6C9107FCD401225A609A68D20716
S214001480FCD55A6D42F001025A65704790F832302A
S2140014903BB903685A6F22F001025A670222DA60EB
S2140014A07047012B09D103685A6C9207FCD45A6D19
S2140014B022F001025A6502225A6070471049114A0A
S2140014C00B7830B52BB9C2E90033C2E902330123E9
S2140014D00B700C4C0023214651F8045B854208D063
S2140014E00133042BF8D1002154F8043B1BB942F811
S2140014F02100002003E001310429F5D1024830BD67
S214001500542E0020442E0020027000F038B590F8CB
S2140015103130022B3CD1447E457F2CB3012C26D0A3
S214001520022C27D0032C28D0042C0ED0052C27D034
S214001530A31F012B09D9082C25D0092C25D00A2C4D
S21400154003D10723EB40DB0704D4124840F2B53141
S21400155000F0F6FF30235C430F4B234405EBC30536
S214001560AD002868C0B238BD40F2FF33EAE74FF658
S214001570C073E7E740F6FF73E4E74FF47F43E1E725
S2140015804FF6FF73DEE70F23DCE74FF44043D9E75F
S2140015900020E8E7A87D06001CA0100213B51D4A2F
S2140015A0002352F8044B617F81420ED00133042B96
S2140015B0F7D102B010BD0028FBD19DF80730002BF4
S2140015C0F7D06068FFF704FCF3E794F83130022B9D
S2140015D0EFD12046FFF79AFF637D2075022BE8D1F6
S2140015E094F82E3003F0FF02002BE2D160688DF8ED
S2140015F007200DF10701FFF74BFC237D1BB194F884
S2140016002F30002BD7D00023606884F82F30FFF7E8
S214001610FFFBCEE7442E002010B50446FFF76EFB16
S2140016200021201DFFF73AFB014620B904F108000F
S214001630FFF734FB00B1014810BD00BF0E7000F08C
S21400164038B504460D4601F0A6FDA3889BB223B923
S2140016502B60BDE8384001F0A4BD638814229BB21D
S21400166002FB034308332B606388E2889BB2013396
S214001670B3FBF2F102FB11339BB26380A388013BFC
S2140016809BB2A380E5E70000F7B5906A01A914466F
S214001690FFF78CFD05462046FFF722FE1C4B9D42B9
S2140016A027D0019B23B91B4840F25F3100F048FF6A
S2140016B0019B00261E619E6001F06DFD019AD768B1
S2140016C0054627B1D2E9002331462046B847A06A2E
S2140016D001A9FFF7B5FFA06A83889BB263B101A991
S2140016E0FFF764FD01992046FFF768FE284601F0E3
S2140016F058FD012003B0F0BD84F82D3094F8323048
S214001700012B01BF2268136823F400531360EDE732
S2140017100B7000F0D57D06001FB504460B46C07D55
S214001720E17E002B33D00123042202F0E1FA0123EC
S214001730217F207E022202F0DBFA94F83130022B61
S21400174016D1617F607E0023012202F0D1FA0023C9
S2140017500422A17FA07E02F0CBFA0123627F0193D0
S214001760607E0093114602F025FA002004B010BDFA
S214001770032BFAD100230122617F607E02F0B8FAC3
S21400178000230422A17FA07E02F0B2FAEDE71A46FB
S214001790039302F0ADFA039B217F207E1A4602F0E7
S2140017A0A7FA94F83120039B022A0FD11A46617FCC
S2140017B0607E02F09DFA039BA17FA07E1A4602F08F
S2140017C097FA039B0193627F0123C9E7032ACCD1D2
S2140017D01A46617F607E039302F08AFA039B1A46DC
S2140017E0D0E700002DE9F04104469046FFF7CCFC18
S2140017F00F460546002862D1092001F007FD06467F
S214001800A26A93889BB213B194F82E3033B394F83F
S214001810323043BB23681E6906F002061EB9204616
S214001820FFF7F8FD0026012384F8303094F83230B4
S2140018304BBBB8444745206820D103699A06FCD5BF
S214001840002E3CD194F8323063BB23685A6F22F0E6
S21400185002025A670822DA60354630E0002ED0D001
S214001860FFF760FBCCE7012B02D123689E68D3E725
S214001870144840F6E51100F063FED0E717F8011BA8
S21400188002F076FFD6E7012BDAD1B844B8452068D7
S21400189003D183681B07FCD5D2E717F8011B02F0BB
S2140018A0CAFBF3E7012BD7D123685D6C15F0020560
S2140018B0FBD15A6D22F002025A6508225A60284669
S2140018C0BDE8F081D57D060010B5044680B190F8DD
S2140018D02E302BB9FFF71AFE10B96068FFF778FABA
S2140018E094F82E300133DBB284F82E30002010BD81
S2140018F00048FCE7027000F010B50446A0B190F86E
S2140019002E309BB190F82E30012B05D1FFF7FEFD4F
S21400191010B96068FFF77CFA94F82E30013BDBB212
S21400192084F82E30002010BD0148FCE70148FAE795
S214001930027000F0057000F037B590F83150022DB7
S214001940044611D1437DA17F807E23B9FFF748FC72
S214001950002003B030BD012B02D1FFF781FCF7E772
S214001960237D002BF9D1F1E7012DF1D1037D73B969
S21400197011238DF80730FFF7A7FF2A460DF1070160
S2140019802046FFF72FFF2046FFF7B6FFE0E71323BA
S214001990EFE70000F0B5094F04460D460FCF89B0BB
S2140019A001AE0FC697E8070086E80700002C00F097
S2140019B0CC843DB9024E304609B0F0BD0C7E060020
S2140019C0037000F038220021204619F0D3F90023D6
S2140019D063632046FFF772FD06460028EBD12B7C9A
S2140019E084F831302B68B94A2360934284F8320079
S2140019F040F08D81B64B2362B64BE3604FF4402334
S214001A002361D5E9062300266262168056809680FA
S214001A1084F82C60A3621E805E809E806B680393B1
S214001A206B8984F82D6084F82F60ADF81430AB898C
S214001A30ADF81230AB7BA8488DF810300121EB7B57
S214001A408DF8163005278DF8117000F019FEA348A2
S214001A50012100F015FE206A012100F011FE286821
S214001A608DF8046001A902F0CDFDD5F800C06B7AB0
S214001A70DCF878002A7A20F4F85020F01F0018438B
S214001A8040EA02200321CCF878002068CCF87410D5
S214001A90DFF838C2604540F05981BA4240F27181A1
S214001AA0901F042840F26F81A2F10B00B84240F26A
S214001AB06C81A2F11100062808D9A2F118010629A6
S214001AC040F265811F2A14BFFF213946042BE175B9
S214001AD040F25F81591F042940F25D81A3F10A019B
S214001AE0052940F25A81A3F11001062940F25781D8
S214001AF0A3F11701072940F25481B3F11F0118BF63
S214001B004FF0FF31C9B22176002A58D0012A56D0AC
S214001B10022A54D0032A52D0042A50D0052A4ED086
S214001B20062A00F04881072A00F04781082A00F0BC
S214001B304681092A00F045810A2A00F044810B2AD2
S214001B4000F04F810C2A00F02E810D2A00F02D8126
S214001B500E2A00F02C810F2A00F02B81102A00F0AC
S214001B602A81112A00F02381122A00F02281132AEA
S214001B7000F02181142A00F02081152A00F01F8130
S214001B80162A00F01E81172A00F01D81182A00F080
S214001B901C81192A00F01B811A2A00F01A811B2AC0
S214001BA000F019811C2A00F018811D2A00F0178108
S214001BB01E2A00F016811F2A0CBF0722FF22E2769B
S214001BC0002B00F0A983012B00F0A883022B00F065
S214001BD09183032B00F09083042B00F08F83052B5A
S214001BE000F08E83062B00F08D83072B00F08C838D
S214001BF0082B00F08B83092B00F08A830A2B00F059
S214001C006F830B2B00F06E830C2B00F06D830D2B77
S214001C1000F06C830E2B00F06B830F2B00F07083AC
S214001C20102B00F06383112B00F06283122B00F060
S214001C306783132B00F06683142B00F06583152B47
S214001C4000F06483162B00F06383172B00F062838A
S214001C50182B00F06183192B00F060831A2B00F01C
S214001C6049831B2B00F048831C2B00F047831D2B59
S214001C7000F036831E2B00F035831F3B18BF4FF055
S214001C80FF33DBB223776B7C6376AB7C6377EB7CCE
S214001C90A3762B7DA37701212046FFF73DFD064660
S214001CA000287FF488AE01F076FA2B7C032B0746DB
S214001CB040F03A832B682A8CDA675A6E42F00402A8
S214001CC05A665A6F42F030025A6709E00000014037
S214001CD00042040001000C004041050000350A00E7
S214001CE028684FF0FF3383642B7C032B0CBF052141
S214001CF0042102F01DFC2B684FF44062DA60204697
S214001D00FFF78AFC0646384601F04BFA53E6364A99
S214001D10934206D1354B2362354BE3604FF4502394
S214001D206EE6344A934206D1334B2362334BE3606C
S214001D304FF4602364E6324A93427FF43BAE314B65
S214001D402362314BE3604FF4702359E6DFF898C006
S214001D5060455BD1052A14D9901F042813D9A2F137
S214001D600B00052811D9A2F1110006287FF6AEAEA9
S214001D70A2F1180106290AD91F2A14BFFF2105213E
S214001D80A4E63146A2E60121A0E602219EE63946F7
S214001D909CE60021B7E60121B5E60221B3E6032161
S214001DA0B1E60521AFE6072209E7082207E7092280
S214001DB005E70A2203E70B2201E70C22FFE60D22C5
S214001DC0FDE60E22FBE60F22F9E60022F7E60122E8
S214001DD0F5E60222F3E60322F1E60422EFE6052208
S214001DE0EDE60622EBE600BF0004014000520400C8
S214001DF001000D00000801400062040001000E0012
S214001E00000C01400072040001000F00DFF814C54A
S214001E10604540F03181042A40F2FA80511F0329C0
S214001E2040F2F880A2F10901042940F2F580A2F1FF
S214001E300E010E2940F2F280A2F11D01012940F2A6
S214001E40EF801F2A14BFFF210A21032BE17540F201
S214001E50E980191F032940F2E780A3F1080104294D
S214001E6040F2E480A3F10D010E2940F2E180A3F1D7
S214001E701C01022940F2DE80B3F11F0118BF4FF0AB
S214001E80FF31C9B22176002A00F0DC80012A00F07A
S214001E90DB80022A00F0DA80032A00F0D980042AC8
S214001EA000F0D880052A00F0E380062A00F0E280E1
S214001EB0072A00F0C180082A00F0C080092A00F036
S214001EC0C3800A2A00F0C2800B2A00F0C1800C2AC8
S214001ED000F0C0800D2A00F0BF800E2A00F0C880F7
S214001EE00F2A00F0C780102A00F0A880112A00F000
S214001EF0A780122A00F0A680132A00F0A580142AD4
S214001F0000F0A480152A00F0A380162A00F0A28014
S214001F10172A00F0A180182A00F0A080192A00F0E5
S214001F209F801A2A00F09E801B2A00F09D801C2AA3
S214001F3000F09C801D2A00F09B801E2A00F09A80EC
S214001F401F2A0CBF0222FF22E276002B00F0C88177
S214001F50012B00F0C781022B00F0C681032B00F096
S214001F60C581042B00F0D681052B00F0D581062B09
S214001F7000F0D481072B00F0BD81082B00F0B08163
S214001F80092B00F0AF810A2B00F0AE810B2B00F07E
S214001F90AD810C2B00F0AC810D2B00F0BB810E2B1D
S214001FA000F0BA810F2B00F0A581102B00F0A48161
S214001FB0112B00F0A381122B00F09281132B00F05E
S214001FC09181142B00F09081152B00F08F81162B39
S214001FD000F08E81172B00F09381182B00F0928171
S214001FE0192B00F091811A2B00F090811B2B00F02A
S214001FF08F811C2B00F08E811D2B00F08D811E2BF7
S21400200000F08C811F2B08BF052318BFFF2339E67D
S21400201031461AE7082118E7012116E7394614E782
S2140020200A2112E700212DE708212BE7012129E7E5
S214002030052127E70A2125E7022285E7032283E711
S214002040042281E705227FE706227DE707227BE759
S214002050082279E7092277E70A2275E70B2273E759
S2140020600C2271E70D226FE70E226DE70F226BE759
S214002070002269E7012267E7A94EB0427FF49AACD6
S214002080072A21D9A2F10801012940F2EF80A2F126
S2140020900A01052940F2EC80A2F11001012940F264
S2140020A0E980A2F11201052940F2E680A2F11801AA
S2140020B0042940F2E380A2F11D01012940F2E080EC
S2140020C01F2A14BFFF210A21062BE17540F2DA8091
S2140020D0D91F012940F2D880A3F10901052940F251
S2140020E0D580A3F10F01012940F2D280A3F111019E
S2140020F0052940F2CF80A3F11701042940F2CC80D5
S214002100A3F11C01022940F2C9801F2B14BFFF2136
S21400211003212176002A00F0C780012A00F0C6803D
S214002120022A00F0C580032A00F0CC80042A00F0C2
S214002130CB80052A00F0CA80062A00F0C980072A4C
S21400214000F0C880082A00F0B580092A00F0B480A4
S2140021500A2A00F0A5800B2A00F0A4800C2A00F0C2
S214002160A3800D2A00F0A2800E2A00F0A1800F2A7C
S21400217000F0A880102A00F0AB80112A00F0AA8098
S214002180122A00F0A980132A00F0A880142A00F072
S2140021909180152A00F09080162A00F08F80172A6A
S2140021A000F08E80182A00F08D80192A00F08C80AE
S2140021B01A2A00F08B801B2A00F08A801C2A00F066
S2140021C089801D2A00F088801E2A00F087801F2A3A
S2140021D00CBF0222FF22E276002B00F08780012B44
S2140021E000F08680022B00F08B80032B00F08A80A4
S2140021F0042B00F08980052B00F08880062B00F069
S2140022008780072B00F08A80082B73D0092B67D0B5
S2140022100A2B67D00B2B67D00C2B67D00D2B67D003
S2140022200E2B6DD00F2B71D0102B71D0112B71D0BF
S214002230122B71D0132B71D0142B5BD0152B5BD0C7
S214002240162B5BD0172B5BD0182B5BD0192B5BD0D3
S2140022501A2B5BD01B2B5BD01C2B5BD01D2B5BD0B3
S2140022601E2B5BD01F2B08BF0823CEE608212BE7CA
S214002270012129E7092127E7022125E7052123E790
S2140022800A2121E7032144E7082142E7012140E72C
S21400229009213EE702213CE705213AE70A2138E713
S2140022A0062298E7072296E7082294E7092292E793
S2140022B00A2290E702228EE703228CE704228AE7AE
S2140022C0052288E70B2286E70C2284E70D2282E7A8
S2140022D00E2280E70F227EE700227CE701227AE7C3
S2140022E00623CFE40723CDE40823CBE40923C9E47F
S2140022F00A23C7E40323C5E40423C3E40523C1E497
S2140023000B23BFE40C23BDE40D23BBE40E23B9E48A
S2140023100F23B7E40023B5E40123B3E40223B1E4BA
S214002320000C014000080140022B7FF4D9AC607F0E
S2140023300749FEF75FFEFEF745FE4FF40073A382E3
S214002340A6752046FFF7F8FACAE4024EFFF733BB3D
S2140023509D150000027000F0F0B587B005461646E1
S214002360FEF712FF0446F0B9CDE901160493686A39
S2140023700E4B03966A4601A90593FEF7C1FF044675
S21400238088B995F82C3073B92846FFF761F800999C
S2140023902846FEF7EDFF95F83130032B03D02C7559
S2140023A02846FFF7C9FA204607B0F0BD017000F0D6
S2140023B073B5506A01A91446FEF7F8FE0546204696
S2140023C0FEF78EFF374B9D4236D0019B23B9364829
S2140023D040F2962100F0B4F894F83200019B0028F1
S2140023E036D12268116C11F4007128D02F4919617A
S2140023F098604FF40073936400F0CDFE0199CD68A9
S214002400064635B14A688B682046D31A0A680969B9
S214002410A847606A01A9FFF713F9606A8588ADB21C
S214002420002D2FD001A9FEF7C1FE01992046FEF728
S2140024309FFF304600F0B5FE012002B070BD106C64
S214002440C5051BD51A48186199604FF48073D2E70A
S214002450012813D12268D16A11F0800106D01349F1
S21400246019610021996080235363C5E7D06A40064E
S21400247004D50F48186199604023F5E700221A61D9
S2140024809A60B9E7012323752046FFF755FA94F8BA
S214002490313084F82C50032BCBD02046FEF7F6FFC5
S2140024A0C7E700BF0B7000F0D57D06000D7000F08A
S2140024B00C7000F0F0B587B004461646FEF764FED2
S2140024C0054658BB04931C4B059394F8323003968C
S2140024D0CDE901162BBB23681B6903F0020313B971
S2140024E02046FEF797FFA06A6A4601A9FEF708FF96
S2140024F0054698B994F82D3083B900F04CFEA36ACF
S2140025009B889BB2064633B100992046FEF756FFDD
S214002510012384F83030304600F043FE284607B0EA
S214002520F0BD012B02D123689B68D6E7034840F62E
S214002530E42100F005F8D3E7017000F0D57D060031
S214002540FEE700000C4B984210D90C4B984210D96D
S214002550022201230A490B640A49D1F8003123F00C
S214002560807343EA0263C1F80031704700221346C5
S214002570F0E70122FBE700BF0048E8010090D00327
S2140025800000C84300400E4038B5114B5B68114B45
S21400259000221C46C9B21D798D4202D11D688542B3
S2140025A012D20132052A03F10803F4D10A4841F297
S2140025B09E31FFF7C5FF032205494B6823F04073A1
S2140025C043EA02634B6038BD04EBC2025279F3E77C
S2140025D000000E40C07E0600387E06001F2810B59C
S2140025E0044604D9034840F22F11FFF7A9FF012043
S2140025F0A04010BD647E060038B5074C41F6713326
S214002600256C2364FEF71EFA0021FFF7BDFF0DB10F
S2140026100023236438BD00BF00000E40044BDB6B74
S2140026205B0604D4034AD2F8C830002BFBD17047AF
S21400263000300E400000C64308B5FFF7EFFF024B20
S2140026405868C0F3014008BD00300E40044BD3F874
S2140026504421D20703D4D3F840211042FBD170475F
S21400266000400E4038B5054C41F67133256C2364A6
S214002670FFF78AFF0DB10023236438BD00000E402B
S21400268038B5C0F30323013B092B24D8DFE803F059
S2140026902A2D2323051619231C20154C0023C0F3CE
S2140026A0043513B11846FFF7D1FF04F1424404F590
S2140026B0801405EBC404A400216038BD0D4C012332
S2140026C0EDE70D4C1023EAE70C4C4FF48033E6E7B9
S2140026D00B4C0023E3E7BDE838400A4841F63B11BF
S2140026E0FFF72EBF084C0023D9E7084C0023D6E797
S2140026F0B0400E40E0400E40E8400E40F0400E4035
S21400270050410E40387E060000400E40C0400E404D
S21400271008B5C0F30313013B092B60D8DFE803F0CC
S214002720050B0F195F5F1F233C532E4BD3F8000198
S214002730C0F3042008BD2B4BD3F81401F8E7294B4F
S214002740D3F80001C0F300600130FFF747FF0138FF
S214002750F0E7244BD3F80C01C0F30820EAE7214B3E
S214002760D3F80801F8E7204B984209D01F4B98424F
S2140027700CD041F6DF211E48FFF7E2FE0020D9E725
S214002780184BD3F8200100F00F00DEE7154BD3F806
S2140027902001C0F30110D8E7164B984208D003F585
S2140027A0B01303F58053984206D041F60331E2E7B2
S2140027B00C4BD3F82801ECE70A4BD3F82801C0F3FA
S2140027C001200430C1E70C4B984205D1054BD3F8E5
S2140027D0300100F00300ADE741F61231CBE741F6D9
S2140027E03731C8E700400E408006160080162E00DF
S2140027F0387E060090171A00A009140008B5FFF7E7
S21400280087FF013008BD000000F00F00013808B552
S214002810072844D8DFE800F0040F1943232D43357A
S214002820264BD3F8943003F00703023B052B3DD824
S214002830234AD05C08BD214BD3F8803003F0070351
S214002840013B032B34D81F4AF3E71C4BD3F88430E4
S21400285003F00703013B032B2AD81B4AE9E7174B73
S214002860D3F8883003F00703013B032B20D8174A20
S214002870DFE7124B1B6F13F0010F0CBF0720092078
S214002880D8E70E4BD3F85C3103F03003202B11D081
S214002890302B11D0102B14BF01200720CAE70C489C
S2140028A041F68B61FFF74CFE0020C3E70520C1E729
S2140028B00120BFE70420BDE70820BBE700400E402C
S2140028C0937E0600997E06009D7E0600997E060091
S2140028D0387E060038B52C4B984205460AD02B4B5E
S2140028E0984207D02A4B984204D02A4841F29E418B
S2140028F0FFF726FE2846FFF787FF234B9D42044638
S21400290011D0224B9D4212D0214B9D4213D1224B17
S214002910D3F8804004F00704042C2DD8DFE804F038
S2140029202A11151D19001C4BD3F88440F2E71A4BE8
S214002930D3F88840EEE7174841F2CD41FFF700FE96
S214002940EAE7BDE83840FEF7E1B8BDE83840FEF7F4
S214002950E3B8BDE83840FEF7DCB8FEF777F80E4B74
S2140029600446D3F80001C0F300600130FFF736FEDE
S214002970B4FBF0F4204638BD064841F21F51FFF77D
S214002980DFFD0024F6E700BF03002000050024005A
S21400299002001E00387E060000400E4038B500F4E7
S2140029A07813B3F5B01F05467FD02ED8B3F5402F69
S2140029B069D011D8B3F5802F54D006D843B1B3F5FB
S2140029C0003F5AD041F66B211AE0B3F5202FF9D11B
S2140029D0BDE83840FEF73AB8B3F5801F00F0A28095
S2140029E0B3F5A01F57D0B3F5602FEBD15B48FFF7C8
S2140029F00BFF072800F096800928E9D04FF4935182
S214002A005748FFF79DFD002036E0B3F5381F5AD033
S214002A1013D8B3F5001F5FD00AD8B3F5D01F5DD02A
S214002A20B3F5F01FCED14F48BDE83840FFF752BF90
S214002A30B3F5101FC6D14C48F6E7B3F5481F57D07C
S214002A40B3F5781F00F08280B3F5401FBAD147482F
S214002A50FFF740FF464B0446D3F82801C0F3012099
S214002A6004302BE0FDF7F2FF414BD3F80C31C3F3F3
S214002A7008230133B0FBF3F038BDFDF7E7FF3C4B0E
S214002A80D3F80831F3E7FDF7E1FF394BD3F81431FB
S214002A90C3F30423EDE73448FFF71CFF344BD3F8A9
S214002AA0303103F00303D840E6E72E48FFF712FF65
S214002AB02F4B0446D3F8200100F00F00FFF78EFDE1
S214002AC0B4FBF0F0D8E72748FFF704FF284BD3F80D
S214002AD02031C3F30113E6E72448A5E72348FFF7B0
S214002AE0F9FE234B0446D3F82801C0F30110E5E7AE
S214002AF02048FFF789FE0138072824D801A353F899
S214002B0020F000BF072A0000472B0000472B0000DC
S214002B102B2B0000472B0000472B0000252B000026
S214002B20332B0000144B1868A6E7BDE83840FDF7C5
S214002B30C9BFFDF78BFF0E4BD3F80031C3F3042358
S214002B4003FB000098E741F2972159E7FDF77EFF67
S214002B5004462846FFF752FEB2E700BF06000E0006
S214002B60387E060002001E00050024000300200038
S214002B7000400E40B800320038100020014B18808C
S214002B80704700BF3C100020013838B50C460328BB
S214002B9064D8DFE800F002441A2FB1F5007F04D3B2
S214002BA0324842F28961FFF7CBFC314AC4F308048D
S214002BB0D2F86838002BFBD12E4A136A23F4FF7331
S214002BC023F001032343136238BD7F2904D9274825
S214002BD042F29661FFF7B4FC254A04F07F01D2F872
S214002BE06038002BFBD1234B1C6924F07F040C4378
S214002BF01C61E9E77F2904D91C4842F2B161FFF75E
S214002C009FFC1B4A04F07F01D2F86438002BFBD1EE
S214002C10184B9C6924F07F040C439C61D4E7154D47
S214002C20D5F890305B0704D5104842F2C161FFF733
S214002C3087FC6B6A23F0300343F010036B62C4F327
S214002C40C311CB1C2A6B0C490F2B01EA020128BFCB
S214002C500F23214341EA03712963B5E7BDE83840F5
S214002C60024842F2DB61FFF76BBC00BF387E06000D
S214002C700020C84300400E4000F8FF0F022810B5A1
S214002C800C4604D0144842F2F361FFF759FC134B8C
S214002C905B6A13F0300F1BD0202C16D0302C17D0C8
S214002CA0B4B10D4842F20E71FFF74AFC0C4B0B4ACA
S214002CB0D2F8901033EA0101FAD15B024ABFD2F88B
S214002CC0A0000120C0F3802010BD4FF40003EEE703
S214002CD04FF44003EBE700BF387E060000400E408E
S214002CE0FF33E107022808B50CD129B1094B4FF490
S214002CF08060C3F8A80059664AB1BDE808400220C3
S214002D00FFF7BCBF044842F24471FFF719FC0120EC
S214002D1008BD00BF00400E40387E060004282DE99E
S214002D20F04704460F4691461FD83D4B3D4A13F8E0
S214002D3000A03D4B13F80080F1B93C4B33F810303F
S214002D401366012303FA08F8D2F8903013EA080F46
S214002D50FAD1B9F1000F5AD00125324A05FA0AF520
S214002D60D2F890302B42FBD151E0BDE8F047304816
S214002D7042F2D851FFF7E4BB2E4B022833F810601E
S214002D8047D1536A13F0300F43D12B4BDB6B5A05F8
S214002D9004D4274842F2E751FFF7D2FB214A536A90
S214002DA0DB0705D5536A23F0300343F01003536264
S214002DB0224D1C4BA8441E664FEA8808D8F80030FF
S214002DC0002BFBD0B9F1000F21D05544AD002B6885
S214002DD0002BFCD0022C1AD1CFB1124F796A11F019
S214002DE0010118D0012220212046FFF77BFFD7F8EB
S214002DF09C40012200210220FFF790FFC4F30A0145
S214002E000220FFF7C1FE3E662B68002BFCD0BDE813
S214002E10F0870027CCE72046FFF730FFE7E700BF44
S214002E20A17E060000400E40A67E0600B67E060086
S214002E30387E0600AC7E060000300E408004F2109D
S214002E40112838B50C460FD000F00F0001380728BF
S214002E5000F2EB80DFE810F0240066009A00E9003C
S214002E607D00B400E900C200042912D1FDF72AFE55
S214002E700546A8B10021284600F050FB023C0A2C6B
S214002E8045D8DFE804F04A473137444444443D0F10
S214002E904D00052904D1664B1D68664B9D42E9D856
S214002EA00025EBE70320052401221146FFF736FF35
S214002EB0FFF7A2FB0DB1FFF7B1FB5F4B5C67FDF7B9
S214002EC0EFFD0446FDF7C2FDFFF73CFBFFF7B4FB42
S214002ED001462046FFF7C6FB002D5DD1284601219E
S214002EE0BDE8384000F01ABB5448FFF72BFB022021
S214002EF00446D9E75148FFF725FB01240320D3E712
S214002F0041F64C71BDE838404D48FFF719BB41F615
S214002F105171F7E701200324C6E700200424C3E725
S214002F200724C5E7062933D14548464D41F690713A
S214002F30FFF706FB42484FF4FD51FFF701FBFDF794
S214002F4085FDFFF7FFFA404B0122C3F8082603234E
S214002F5021E006293D4DEDD0013C092C2BD801A3DC
S214002F6053F824F0BD2F00009B2F0000A92F00006F
S214002F70B72F0000B72F00003F2F0000B72F00002C
S214002F80B72F0000B72F0000952F0000304DE3E765
S214002F902C4DE1E704232B6038BD012211460020AA
S214002FA0FFF7BCFE0223F6E7012211461046FFF7A4
S214002FB0B5FE0123EFE741F6CB71A3E70023EAE76E
S214002FC0072904D0092906D042F255019AE71A4B80
S214002FD000221A67E0E7184B0122FAE74C1E072C7E
S214002FE01ED8DFE804F0201D1D161D1D0F04032249
S214002FF01149D1F85C3123F0300343EA0213C1F8DB
S2140030005C31C9E7012211460420FFF787FE012242
S214003010EEE7012211460220FFF780FE0222E7E7D4
S21400302042F2B3016EE70022E2E742F28A1169E754
S2140030300C100020002D310100400E400148E80130
S214003040387E060080400E400010C84388400E4080
S21400305084400E4010B504461120FFF7D5FB042827
S21400306004D1274842F27341FFF76AFA0122002191
S2140030700220FFF753FE63781BB9A3780BB9E378F9
S21400308023B11F4842F2AF41FFF75AFA237C012BC7
S21400309004D11B4842F2B641FFF752FA194A217C86
S2140030A0536A23F00103022908BF43F00103536269
S2140030B0154B2178C3F8A014637AA18843EAC1238C
S2140030C0D362136BA07A217A03F07F630343E08810
S2140030D043EAC02343EAC11303310F2928BF0F2157
S2140030E043EA01731363A37B617B1B0143EA01334D
S2140030F0E17B0B43217B43EA0143536310BD00BFD2
S214003100387E060000400E400000C84370B50546F5
S2140031101120FFF779FB022804D10F4842F2315103
S214003120FFF70EFA0D4E0E4BB26B2C7813401C4375
S2140031306B7844EAC324AB7844EA0364EB7844EA49
S2140031400324B36BA34205D0002101220846FFF7F3
S214003150E5FDB46370BD00BF387E060000400E403B
S21400316080E4FFF80028A7BF00F1604000F561404A
S21400317000F00F00034BACBF90F80003185C40094A
S214003180704700BF14ED00E0EFF3108072B6704792
S21400319000B962B67047EFF31180602383F311889D
S2140031A0704780F311887047034B5868C0F30800D7
S2140031B0003818BF0120704700ED00E0EFF31083E1
S2140031C0DB0706D4EFF311805F2894BF00200120B0
S2140031D0704701207047000038B5C5B2322D04464E
S2140031E004D9084840F21F31FFF7AAF9064B6409D4
S2140031F005F01F0553F82400E840C04300F0010026
S21400320038BD00BFE87E060000E100E000F10C03D8
S214003210DBB23E2B10B5044604D9154840F2AD216A
S214003220FFF78EF9EFF31083DB0702D50122104675
S21400323010BD2046FFF7D0FF02460028F6D12046F4
S214003240FFF790FF0146EFF3118313B1B0EB531F66
S214003250ECD2084B5B68C3F30803002BE7D0103BA7
S21400326058B2FFF77FFF88428CBF00220122DEE7BC
S214003270E87E060000ED00E038B500F11003DBB292
S214003280422B04460D4604D9054840F24731FFF765
S21400329057F9044B986800EB8404256438BD00BFDA
S2140032A0E87E060000ED00E0436823F01F030E29C9
S2140032B010D8DFE801F008080808080B0B0B080810
S2140032C008080B0B0B00194341607047194341F087
S2140032D01001F9E70148D321FFF732B9157F060040
S2140032E070B5054616460C4619B90B48EC21FFF793
S2140032F027F9286A296A2A6A2B6A102EC4E900016F
S214003300C4E9022307D1286A296A2A6A2B6AC4E913
S2140033100401C4E9062370BD157F060030B58B078F
S21400332089B00C4615460CD06946FFF7D9FF082D24
S2140033300CBF102220226946204617F0F3FC09B085
S21400334030BD0091009909B0BDE83040FFF7C8BF16
S214003350034BD86B80F04000C0F38010704700BF6E
S21400336000300E4038B542EA0323B3F5007F054629
S2140033700C463ED019D8B3F5807F36D00AD883B332
S214003380012B21D01F4840F68E11FFF7D9F80022F6
S21400339013461FE040F201129342F3D11A4BD3F8C2
S2140033A024321A0EC3F3074314E0B3F5407F24D04B
S2140033B040F20132934210D040F201229342E1D112
S2140033C0114BD3F8283202E00F4BD3F82432C3F364
S2140033D00722DBB22B60226038BD0B4BD3F82832B5
S2140033E0DFE7094BD3F81C32F1E7074BD3F81C3262
S2140033F0D7E7054BD3F82032E9E7034BD3F8203262
S214003400CFE700BF447F06000081E00F08B5FFF756
S2140034109FFF20B1024AD2F8C830002BFBD108BD6E
S2140034200000C6431A4B022810B5D3F830320C46BB
S21400343012D0032813D0012814BFDBB2C3F307232E
S2140034401B0323F47042ECB95AB140F61D11114823
S214003450FFF776F8002010BDC3F30743F0E71B0E16
S214003460EEE70D49CA6E22F470421343CB66012084
S214003470F1E70949D1F8EC2022F470421343C1F871
S214003480EC30F4E7002AF4D040F62911DFE700BF5D
S2140034900081E00F447F060000300E40F8B5044679
S2140034A00F46FFF755FF78B3FFF7B0FF174B5B6883
S2140034B0C3F301439C4227D0154BD3F80061FDF7B8
S2140034C0C5FA022C05460FD1124BC6F3042606FB9E
S2140034D000069E4204D9104840F23161FFF730F8EA
S2140034E002212846FFF7BEF8C4F1020210239340DB
S2140034F0064A13610FB1FFF789FF2CB9214628460B
S214003500BDE8F840FFF7AEB8F8BD00BF00300E408B
S21400351000400E40002D3101447F060013B50246E0
S214003520FFF716FFC8B152B90D4B0191D3F8004111
S214003530FDF78CFAC4F30422019902FB0002094B42
S2140035401B7843B1084B9A4205D8022002B0BDE86A
S2140035501040FFF7A3BF0020F8E702B010BD00BF81
S21400356000400E405C2E0020002D31010378134AE7
S214003570002B437870B514BF04260026002B8378F2
S214003580946914BF02250025002B037924F03F041C
S21400359043EA0403C47814BF08210021012C08BFA5
S2140035A043F0010333432B430B4393611368417984
S2140035B023F4403343EA0143136070BD00300E40ED
S2140035C0224B4AF6E85210B5596B5A639A6FD207E7
S2140035D0FCD41B6C13F003031EBF1D4A0124C2F863
S2140035E0B44A834204D110B9194BC3F8B40A10BDCB
S2140035F0032B00D09BB9431E012B10D8134A4FF45F
S2140036000023D362936FDB07FCD4136C23F0030311
S21400361043F0010313640D4A536A1C03FCD50B4B9D
S2140036209A6FD207FCD41A6C22F0030202431A6483
S2140036309A6F12F00102FBD10038054C18BF01202A
S2140036400129C4F8B40A08BF5A63D0E700300E4018
S2140036500000C6432DE9F04FA0F5E16389B00024D1
S214003660B3F5966FCDE90244CDE90444CDE90644AE
S21400367006468A46934605D940F6EE215548FEF79B
S2140036805FFFA3E0B0F5E16F534B8CBF0122002231
S21400369049D1D3F81832C3F30721DBB2079104935C
S2140036A04FF416754FF4966748E0BBF1000F0ED046
S2140036B0D9F85C2022F4FE4222F00202B6F5E16F51
S2140036C042EA012218BF02200243C9F85C20BAF180
S2140036D0000F26D020460021FFF7A4FE044610B9AE
S2140036E040F64B31CAE701214046FFF79BFE0446F1
S2140036F010B940F65331C1E7384A536EBD4238BF61
S2140037003D4623F4FF73E72D23F0010328BFE7258A
S214003710B6F5E16F18BF43F0010343EA450353666D
S21400372054E0012452E0D3F81832190EC3F30743CD
S214003730079104934FF496654FF4E167DFF89C9089
S214003740D9F84C400192C4F30174234605A902A897
S214003750FFF708FED9F8EC30019AC3F30128434678
S21400376006A903A8FFF7FEFD049BF01B079FF91AA6
S2140037704143B1FBF5F299182CBF012300238F4279
S2140037801ED3EBB9069A039FD31B4343B3FBF5F353
S214003790FF182CBF01230023BA4211D383B9059B1F
S2140037A0029AA3EB020C00FB0CF0B0FBF5F55519E2
S2140037B02CBF01200020AB4202D300283FF475AF97
S2140037C0044840F63C31FEF7BBFE0024204609B014
S2140037D0BDE8F08F447F06000081E00F00300E4009
S2140037E0334A08B5136FD16C11F0010F03F00603CE
S2140037F044D0002B42D0132857D9143813288CBF36
S214003800102308232A49013BCA6C180322F47F427E
S21400381040EA03231343CB64264BCA6C1B88C2F3CF
S21400382003222833013202EB820003EB5303B3FB7F
S214003830F0F3C86C013B072B28BF072320F0EE608F
S21400384040EA036343F48013CB641B4BB3F90030A8
S214003850002B12DB03F12800C0F34E03034450088C
S21400386000EB4202B3FBF2F20B6D072A28BF0722D9
S21400387023F0700343EA02120A6508BDD16C01F01A
S2140038800101194304D109280FD90A380928B6E7D7
S214003890D26CD20702D50BB92728B0E7074840F606
S2140038A09131FEF74DFE0023ACE70423AAE700BFE4
S2140038B000300E40582E00205A2E0020447F06006E
S2140038C00C4BD3F8803910B5044633B9012804D917
S2140038D0094840F6AF31FEF733FE084A136F23F06F
S2140038E0070323431367064BBDE810401888FFF70D
S2140038F077BF00BF0000C643447F060000300E407E
S214003900562E002038B55A4B02229A639B6B03F062
S2140039100F039342044607D0564840F64B21FEF765
S2140039200FFE0025284638BD0389C82B04D9514808
S21400393040F65521FEF704FEA28823899A4204D950
S2140039404C4840F65621FEF7FBFDB4F90C30C82B68
S21400395004DD484840F65721FEF7F2FD6378012B58
S21400396055D1A388C82B04D940F65B214148FEF701
S214003970E7FDE28842F210739A4204D93D4840F6C9
S2140039806821FEF7DDFDE3884A2B48D9B3F5FA7FB8
S21400399047D340F6C312934294BF4FF000524FF005
S2140039A040523349B4F90C00CB6C23F0405323F05B
S2140039B001030028A8BF43F001031343CB64D1F8EA
S2140039C0EC30A28843F44073C1F8EC302A4B1A80DE
S2140039D0CB6E43F08073CB66284BD3F8800900B1DA
S2140039E00420FFF76DFF264B21891980254BB4F97B
S2140039F00C20A0881A80FFF7F3FEA37BA3B1012B4F
S214003A0022D01C4840F6CE01FEF79AFD0FE0022BAE
S214003A10AFD1A3880A2BACD94FF42661A6E70022C3
S214003A20BFE74FF08052BCE7114B174A9A65012258
S214003A3060881146FFF70EFE054640B90D4840F671
S214003A409F21FEF77DFD6DE7094B104AEEE7084A19
S214003A50D36B43F48063D3636078FFF7B1FDA37A3A
S214003A60A3F1200253425341044AC2F8943759E75F
S214003A7000300E40447F0600562E00200000C6434D
S214003A80582E00205A2E002077402057372110B796
S214003A9038B50D46044618B3012824D0022825D090
S214003AA0032826D004280ED0052825D0831F012BF6
S214003AB009D9082823D0092823D00A2803D10723A8
S214003AC0EB40DB0704D4104840F21341FEF738FD04
S214003AD030200E4B0121444301FA05F51D5138BD37
S214003AE040F2FF33ECE74FF6C073E9E740F6FF73AA
S214003AF0E6E74FF47F43E3E74FF6FF73E0E70F2375
S214003B00DEE74FF44043DBE7A87D06000CA0004646
S214003B1038B50D46044618B3012824D0022825D00F
S214003B20032826D004280ED0052825D0831F012B75
S214003B3009D9082823D0092823D00A2803D1072327
S214003B40EB40DB0704D410484FF47971FEF7F8FC1D
S214003B5030200E4B0121444301FA05F51D5138BDB6
S214003B6040F2FF33ECE74FF6C073E9E740F6FF7329
S214003B70E6E74FF47F43E3E74FF6FF73E0E70F23F4
S214003B80DEE74FF44043DBE7A87D06000CA00044C8
S214003B9070B505460E461446FFF7F6FA296881EA20
S214003BA0040202EA06044C402C60BDE87040FFF7B1
S214003BB0EFBA00002DE9F0410E4615461F460446B2
S214003BC000285FD0012860D0022861D0032862D088
S214003BD004280ED0052861D0831F012B09D9082898
S214003BE05FD009285FD00A2803D10720F040C3071A
S214003BF003D43748BF21FEF7A3FC86EA050333F05B
S214003C00030303D03248C121FEF79AFC072D06F0C5
S214003C1003064FF00F0149D84FEA85082D4804FAED
S214003C2008F201FA08F1FFF7B3FF03212A4806FA63
S214003C3008F201FA08F1FFF7ABFF1F2D03D927485A
S214003C409121FEF77DFC264C2C44A4001F2D2760F6
S214003C5003D922489121FEF773FC9DF81830C4F86A
S214003C608030204A0123AB401F2DC2F8243403D9EC
S214003C701A489121FEF764FC9DF81C30C4F8003306
S214003C80BDE8F08140F2FF30B0E74FF6C070ADE718
S214003C9040F6FF70AAE74FF47F40A7E74FF6FF70A5
S214003CA0A4E70F20A2E74FF440409FE7A5F10808DD
S214003CB04FEA88080C4804FA08F201FA08F1FFF700
S214003CC067FF0321094806FA08F201FA08F1B2E78D
S214003CD0707F060000A4004008A400409D7F0600F8
S214003CE08020851000A0004004A400400CA40040E2
S214003CF0F8B50D4616461F460446D8B301283CD0F4
S214003D0002283DD003283ED004280ED005283DD0FA
S214003D10831F012B09D908283BD009283BD00A2845
S214003D2003D10723EB40DB0704D4274840F21D11DC
S214003D30FEF706FC26B1294620467FB3FFF7A8FE0D
S214003D403020604300F18040072D00F5204028D841
S214003D504368AA000F21914023EA010306FA02F203
S214003D601343436076BB294620463FB3BDE8F84080
S214003D70FFF78EBE40F2FF33D4E74FF6C073D1E7AD
S214003D8040F6FF73CEE74FF47F43CBE74FF6FF7363
S214003D90C8E70F23C6E74FF44043C3E7FFF7B8FE74
S214003DA0CEE7A5F1080382689B000F21994022EA1E
S214003DB0010206FA03F313438360D3E7BDE8F84035
S214003DC0FFF7A6BEF8BD00BF707F0600072838B50F
S214003DD005460C4603DD08487321FEF7B1FB1F2D90
S214003DE084F0010403D905489121FEF7A9FB044B92
S214003DF02B449B001C6038BDC97F06009D7F0600D3
S214003E00A001F11010B5044618B91C488D21FEF724
S214003E1097FB23781B0613F0784F03D017488E21A4
S214003E20FEF78EFBE378072B03D914489F21FEF795
S214003E3087FB01214FF4AA40FEF722FCB4F80130BC
S214003E4022785BBA9BB243EA02630D4A13600023F2
S214003E501362D36253634FF00043D3664FF0FF33D1
S214003E609366084A4FF40071C2F88011E3785B014C
S214003E70DBB282F80933116010BD00BFC97F0600AF
S214003E8000200E4000E100E02DE9F041C3B201261B
S214003E90072805460C46904606FA03F603DD3A4820
S214003EA0E621FEF74DFB1CB93748E721FEF748FB35
S214003EB0236823F47C1323F00F031BB13248EC2154
S214003EC0FEF73EFBA37A1B0413F47C0F04D02E48A7
S214003ED040F20311FEF734FBE37A1B0513F07E6F06
S214003EE004D0294840F20511FEF72AFB237B5B0528
S214003EF013F0FE5F04D0244840F20711FEF720FBC3
S214003F00224F637B2268302000FB0570C0F88020BB
S214003F10C0F88830E37AA27A1B0543EA0243227B84
S214003F2043EA425328F00302C0F88430C0F89820D1
S214003F30BE66FFF730F9FB6E3343FB66237A13B198
S214003F407B6B33437B63637A13B1FB6A3343FB6259
S214003F500E4B1A68237923B1DB431B0263F47F43BD
S214003F601A4063790BB142EA0322A3790BB122EA25
S214003F700302E3791A43054B1A60054A9662DE632C
S214003F80BDE8F041FFF70DB9C97F060000200E40DE
S214003F9000200E4410B5C3B20124072804FA03F427
S214003FA004DD094840F26D11FEF7CAFAFFF7F3F890
S214003FB0064AD36E23EA0403D366054B1C62BDE8AB
S214003FC01040FFF7EEB800BFC97F060000200E4085
S214003FD000200E44F8B50728C3B24FF0010504468A
S214003FE005FA03F504DD0E484FF4D971FEF7A8FA7A
S214003FF0FFF7D1F80B4B30221E6E9F6A02FB04338C
S214004000D3F88C40FFF7CDF83D4206D1C4F30A1032
S21400401008B9354200D10130F8BD0020FCE700BFEA
S214004020C97F060000200E40036CDB0702D4436CF9
S2140040300B42FCD1704708B50A468368DB06FCD500
S2140040404021FFF7F1FF826208BD000010B50D4C5D
S21400405063685B0304D50C4840F2F921FEF770FA5A
S214004060636813F4403F04D0074840F2FA21FEF795
S21400407067FA064B41F671321A649A6822F001021A
S2140040809A6010BD00300E40F67F060000000E401D
S214004090034B9A6822F001029A6000221A64704765
S2140040A000000E40094A0A4BD969C90705D512B95E
S2140040B06FF002007047013AF6E7002AF8D00122B6
S2140040C01861DA60D86940F38000704780969800DF
S2140040D000000E4070B505460C4611B3134B1A6827
S2140040E0134B9A4204D8134840F2ED31FEF728FAF3
S2140040F0114A0023082055F8231091610F49D0601B
S2140041000133D669F60705D511B96FF0020009E04C
S2140041100139F6E70029F8D0D169890703D49C4213
S214004120E9D1002070BD6FF00100FBE7041000200D
S2140041303F420F00F67F060000000E408096980073
S2140041402DE9F8432F4B1F6C144610F0030F41F671
S214004150713280460E46BFB21A6404D02A4840F236
S2140041603A41FEF7EDF9A20704D0274840F23D4158
S214004170FEF7E6F9254D6B685B0304D5224840F24E
S2140041804141FEF7DDF96B6813F4403F04D01E484A
S21400419040F24241FEF7D4F91A4A9368A40843F065
S2140041A0010393600FD1184840F24A41FEF7C8F960
S2140041B02046144B9A6822F001029A600FB1002242
S2140041C01A64BDE8F8834FF0000908EB8905284615
S2140041D0FFF768FF0028ECD1C5F30A05C5F50065B2
S2140041E0AD08A4EB09018D4228BF0D46294630468E
S2140041F0FFF770FF0028DCD1A9444C4506EB850686
S214004200E3D8D6E700000E40F67F060000300E40EA
S214004210304B70B541F671321C6C1A64C0F30A0359
S2140042200546A4B223B12C484FF49661FEF788F9F0
S2140042302A4E73685B0304D5274840F2B341FEF765
S2140042407FF9736813F4403F04D0234840F2B4412A
S214004250FEF776F91F4B9A6842F001029A60012237
S2140042601D61DA60DA69500709D59A6822F0010202
S2140042709A600CB100221A644FF0FF3026E002224A
S214004280DA60174AD969C90700D56AB9D86910F043
S21400429002000BD09A6822F001029A600CB100224C
S2140042A01A646FF0010011E0013AEBE742B9996831
S2140042B021F00101996004B11A646FF0020005E074
S2140042C09A6822F001029A600CB1186470BD20460C
S2140042D0FCE700BF00000E40F67F060000300E40F0
S2140042E080969800FFF72CBF022838B504460D4686
S2140042F003D911484C21FEF723F96B791F2B03D9FC
S2140043000D484F21FEF71CF9AB786A789B0143EA0B
S21400431082032A781343EA7843EA02132A7943EAA7
S214004320C2236A7943EA0233AA79043443EA424351
S2140043302401024A135138BD2280060000200440A2
S214004340014B1860704700BF000084424278017934
S2140043500378002A827870B514BF04260026002A47
S214004360C27814BF10250025002A42794FEA02328F
S21400437042EA012242EA0302837914BF2024002481
S214004380002BC37942EA034343EA0603027A43EA70
S214004390050314BF4FF4004100212343002A14BF35
S2140043A04FF4003200220B431343014A136070BDE2
S2140043B00020044010B5044618B910484121FEF705
S2140043C0BFF80F4AD2F8E430D2F8E0109B0003F0B2
S2140043D03C03C1F381110B43A370D2F8E03003F025
S2140043E03F036370D2F8E830D2F8EC2003F0F00315
S2140043F0C2F303121343237010BD00BF4F800600A4
S21400440000FF0FE02DE9F04180460E461F46154698
S21400441022B931484FF4A171FEF792F81EB92F4821
S214004420FEF7BCFA0646402F2AD009D8A7B1202F9F
S2140044301CD0BDE8F041284840F28911FEF780B84C
S214004440602FF6D1B5EB960F04D9234840F28311BE
S214004450FEF776F804241DE0B5EB161F04D91E48B7
S2140044604FF4BA71FEF76CF8102413E0B5EBD60FD4
S21400447004D9194840F27911FEF762F8082409E0D9
S2140044800624B6FBF4F3AB4204D213484FF4BF71D4
S214004490FEF756F86C43610801EB4616B6FBF4F4DB
S2140044A00F4E203CB6EBC40F4FEAC40504D20A48B0
S2140044B04FF4D071FEF744F8D8F8003023F06003CC
S2140044C0C8F80030D8F8003035401F43C8F80070F0
S2140044D0C8F81450BDE8F0817E8006004041050013
S2140044E0F8FF7F0070B506460C46154622B90D4803
S2140044F04FF42271FEF724F81CB90B48FEF74EFA6B
S21400450004460A4B6D00013CB4FBF5F413EA0423A1
S2140045104FEA042504D0034840F2A521FEF710F820
S214004520756170BD7E80060040410500070080FF73
S21400453038B50E4B984204460D4610D003F58063FE
S21400454098420CD003F58063984208D003F5806348
S214004550984204D0064840F2BE21FDF7F1FFEB4337
S2140045605B0003F00A03E360E56038BD000001402D
S2140045707E80060038B51E4B1E4D984204460ED06F
S214004580A8420CD003F50063984208D003F5806378
S214004590984204D0184840F22E41FDF7D1FF40F66D
S2140045A0AA63E36041F20502002323606260134AB7
S2140045B0A3606361E364A26423666367A367E3673B
S2140045C00B4B9C4209D0AC4207D003F500639C42DB
S2140045D003D003F580639C4201D1002323650023AA
S2140045E0AC42A36502D0064A944200D1E36538BDCA
S2140045F000000140000401407E800600F9FF010033
S214004600000C014038B5264B984204460D4610D0A3
S21400461003F5806398420CD003F58063984208D077
S21400462003F58063984204D01E4840F2EF21FDF760
S21400463087FF2046FFF79EFFAB7C1BB1236843F045
S21400464080432360EB7C1BB12B7D43F08003A36586
S2140046502A8A6B7B1343EA89134363602B7BD5E975
S21400466001122046FFF7CEFE6B7D1BB1236843F494
S21400467080332360AB7DEA7D1B07120502F4E0025F
S21400468003F0E04313432366636F23F0300363674E
S214004690626F2B7E134363672B78E36038BD00BFE1
S2140046A0000001407E80060038B52A4B984204463A
S2140046B00D4610D003F5806398420CD003F5806356
S2140046C0984208D003F58063984204D022484FF4FD
S2140046D05671FDF735FF2046FFF74CFFA97B2A8A67
S2140046E02368002942F0010214BF4FF480610021C4
S2140046F013430B432A7D23602368002A14BF4FF020
S2140047000052002213432360AB7C1BB1EB7C43F0CA
S2140047108003A3652B7B43F480536360D5E90112C5
S2140047202046FFF7DFFE6B7B0BB11023E3606B7D4B
S2140047301BB1236843F480332360AB7DEA7D1B07FF
S214004740120503F0E04302F4E002134323662B78DD
S214004750E36038BD000001407E80060003695A060B
S214004760FCD5416303699B06FCD5C069C0B270479F
S21400477003695B06FCD54163704700002DE9F047EE
S214004780374FDDE908840646154699468A4641B9FC
S214004790082323704FF4D963A360324B6760E3604D
S2140047A0FEE75AB1531E134208D00823237040F286
S2140047B0CB63A3602B4B6760E360FEE7FEF7EBFC82
S2140047C0002D08BF04254D4538BF4D46D6F808E0F5
S2140047D06B1E13EA0E0FC5F1000202EA0E0208BFB6
S2140047E00025154409F1FF33AA4413EA0A0FC9F15C
S2140047F0000202EA0A0208BF4FF0000902EB0903B2
S21400480072680132A2EB0E01A3EB0E0E71458446D0
S21400481015491AD2B8F1000F02D09B1AC8F800301A
S214004820162540F22273C4E902312570676060469F
S214004830FEF7B7FC40F2D763A3600A4B25706760AB
S214004840E36000252846BDE8F087B36000232370A8
S2140048504FF4E563C4E902316760FEF7A2FCF1E7B6
S214004860AC80060004810600EC80060030B50C46DD
S21400487085B011461D461BB9039200F019F803993E
S214004880064801950023009304220123002C18BF3C
S2140048902046FFF773FF05B030BD00BF4010002074
S2140048A0024B00221A6003F0DDB800BF6052002001
S2140048B0FEE70000014B1860704700BF6052002002
S2140048C01FB5104B1B78012B07D1FEF76DFCB0B956
S2140048D04FF0FF3005B05DF804FB684600F0BAFC08
S2140048E09DF800100029F3D101206A4601F042F934
S2140048F09DF80000003818BF01204042EAE76FF03C
S2140049000500E7E7C0560020084B187801280AD1B2
S214004910074B1B78012B07D1064B1B78002B14BFC7
S2140049200320022070470020704700BFA2530020DB
S214004930C0560020C15600201FB5FEF735FC48B90A
S214004940074B1B78012B02D0684600F08FFB4FF018
S214004950FF3001E06FF0050005B05DF804FB00BF16
S214004960C05600201FB5FEF71FFC70B9094B1B7818
S21400497073B9684600F036FB9DF80000003818BF93
S2140049800120404205B05DF804FB6FF00500F9E732
S2140049900120F7E7C156002030B585B00546FEF782
S2140049A003FC044688B9002D68460ADD00F01AFBB1
S2140049B001209DF80030002B18BF4FF0FF3005B0E7
S2140049C030BD01F003F82046F3E76FF00500F6E788
S2140049D01FB5684602F03CFF05B05DF804FB1FB546
S2140049E00446FEF7E1FB014658B920466A4602F047
S2140049F041FF9DF80000003818BF0120404204B077
S214004A0010BD6FF00500FAE730B585B00546FEF735
S214004A10CBFB18B10024204605B030BDD5B92C20FC
S214004A2016F060F904460028F4D00123154980F8F2
S214004A3028306B460022204601F038FC9DF80030F6
S214004A40002BE8D094F82830012BE3D1204616F04E
S214004A5051F9DFE7AC6874B92C2016F043F9044628
S214004A600028D7D0012384F828302968054B002970
S214004A7008BF1946DDE7EB682B2BCBD914F00303F0
S214004A80F1D0C7E719810600F0B50F4685B0054698
S214004A9090B3002930DBFEF77EFB2C6AAE683C4301
S214004AA02C6286B9FEF77DFB6B46324639462846B1
S214004AB001F072FC9DF80030002B18BF6FF0020466
S214004AC0204605B0F0BDB6F8A830DA0505D503F0E7
S214004AD00F03042B03D0082B09D0766AE1E7D6F83B
S214004AE0A03033EA0402F8D124EA0304F5E7D6F846
S214004AF0A0302340F1D0F7E76FF00304E0E71FB5DE
S214004B0068B16B460122046A01F046FC9DF800304D
S214004B10002B18BF4FF0FF34204604B010BD6FF0D6
S214004B200304F9E72DE9F0410F4688B0164698468B
S214004B30054620B96FF0030008B0BDE8F0810029F3
S214004B40F8DBB3F1FF3F28D1FEF72EFB0446002822
S214004B50F0D18046F20754BF44F0080444F0040441
S214004B60B30704AB2E6A019358BF44F4807403ABBA
S214004B700093424623463946284601F009FA9DF836
S214004B801030212B40EA060022D010D8002BD3D0BC
S214004B901D2B18D04FF0FF30CEE72BB1FEF704FBED
S214004BA004460028D6D0C5E74FF40044D2E7222BAF
S214004BB00BD02D2B0CD0312B18BF4FF0FF3008BF79
S214004BC06FF00200B8E70028F9E76FF00100B3E7DE
S214004BD06FF00200B0E7000030B585B00546FEF77E
S214004BE0E3FA18B10024204605B030BDC5B934201C
S214004BF016F078F804460028F4D00123184980F807
S214004C0030306A46204601F00DFE9DF80030FBB1BC
S214004C1094F83030012BE5D1204616F06BF8E1E72A
S214004C20AC6874B9342016F05DF804460028D9D074
S214004C30012384F830302968094B002908BF19463B
S214004C40DFE7EB68332BCDD914F00303F1D0C9E7C7
S214004C506B6813F0010318BF012384F83130C2E7F4
S214004C6026A1060030B589B005460C46FEF79CFA2C
S214004C70024618BB2DB3B4B1631C00D1044604AB86
S214004C800093214603AB284601F08CFC9DF81030BB
S214004C90222B19D0232B09D0002B14BF6FF0020053
S214004CA0002009B030BD4FF40042E8E795F83130F7
S214004CB0002B14BF00206FF00200F2E76FF0050033
S214004CC0EFE76FF00300ECE76FF00100E9E71FB5D0
S214004CD00446FEF769FA014670B984B120466A4672
S214004CE001F0D0FE9DF8000020B1232814BF6FF01D
S214004CF00200002004B010BD6FF00500FAE76FF068
S214004D000300F7E730B585B00546FEF74DFA88B9DB
S214004D10A5B16A460121284601F0FCFD9DF8004039
S214004D207CB995F83030012B02D1284615F0E2FF09
S214004D30204601E06FF0050005B030BD6FF00300BF
S214004D40FAE76FF00200F7E72DE9F04F8FB08146E3
S214004D508A461646FEF728FA08B1002440E0B9F164
S214004D60000FFAD0002E3FD14FF4A67015F0BAFF10
S214004D7004460028F1D0012680F844614FF4806094
S214004D8015F0B0FF05460028E7D0434F84F845618C
S214004D904FF480681F260DF1280B00223F495B4622
S214004DA004F1EC0001F082FA9DF82820002A52D186
S214004DB00723CDE906233A4BCDF820B003EA980343
S214004DC0CDE90223CDE904225346CDE900654A46E3
S214004DD03946204602F0E4FA9DF82830002B3AD1F6
S214004DE020460FB0BDE8F08FB468E4B94FF4A67063
S214004DF015F078FF04460028AFD0012384F844312C
S214004E00D6F81480B8F1000F2DD14FF4806015F05D
S214004E1069FF054678B994F84431012B9DD12046A8
S214004E2015F068FF99E7F368B3F5A67F95D314F0FD
S214004E300303E3D091E7012384F845314FF48068FB
S214004E403768154BB669002F08BF1F46FEB1731CA6
S214004E501FD0372E17DD94F84531012BDBD12846BD
S214004E6015F048FFD7E735694DB9404615F03AFFCB
S214004E7005460028CFD0012384F84531E0E715F039
S214004E800703F9D0C7E7C6F13706F6B283E71F2651
S214004E9081E740267FE700BF248106002E810600BA
S214004EA0FEFFFF3F08B5FEF77FF930B9044B1B78CD
S214004EB0012B01D1034B186808BD0020FCE700BF9A
S214004EC0C0560020CC570020F0B50F4685B00546EA
S214004ED0B0B3002934DBFEF75EF9D5F80C41D5F8FF
S214004EE0F4603C43C5F80C418EB9FEF75AF96B46A0
S214004EF03246394605F1EC0001F04EFA9DF80030D6
S214004F00002B18BF6FF00204204605B0F0BDB6F8BF
S214004F10A830DA0505D503F00F03042B03D0082BC1
S214004F2009D0766AE0E7D6F8A03033EA0402F8D172
S214004F3024EA0304F5E7D6F8A0302340F1D0F7E7DB
S214004F406FF00304E0E7000070B588B006460C4634
S214004F501546FEF729F90346002835D1002E36DB24
S214004F60681C2AD0002D0CBF4FF400430023E10735
S214004F7054BF43F0080343F00403A207174A10681F
S214004F8004AAD0F80C41019203AA58BF43F48073D8
S214004F90009231462A46EC3000F0FAFF9DF81020C9
S214004FA01D2A034644EA000009D0222A12D0002A0D
S214004FB018BF6FF0020008B070BD1D46D7E7002B83
S214004FC008BF6FF00200F6E76FF00500F3E76FF03A
S214004FD00300F0E76FF00100EDE700BFCC570020BC
S214004FE0704700002DE9F041044608B9FFF760FC61
S214004FF0FEF7DAF8194E1A4D074638B1202323700B
S21400500040F21933C4E902356660FEE7154B1B789B
S214005010012B08D002232370666040F21D33C4E9DA
S2140050200235BDE8F081DFF8408098F80030F92BB3
S21400503005D91E232370666040F22233EFE7FEF7A1
S214005040AAF898F80030013388F80030FEF7A9F87F
S2140050502770666040F22D33E1E700BF408106000E
S214005060F5810600C0560020C156002070B50446E3
S21400507008B9FFF71DFC264B1E78012E09D0132316
S2140050802370244B636040F2F633A360224BE36048
S214005090FEE7224B1B88012B09D8092323701D4BE2
S2140050A0636040F20143A3601B4BE360FEE71C4DC8
S2140050B02B784BB11F232370164B636040F20443DA
S2140050C0A360154BE360FEE7FEF778F848B11F23B0
S2140050D02370104B636040F20743A3600E4BE360FF
S2140050E0FEE701F0CFFD0F4B0F4A18700F4B2E70E6
S2140050F018700C2358430E4B1B5813600D4A136050
S21400510001F084FE02F0D8FCBDE87040FFF7D0BB8B
S214005110A253002040810600CA810600DC5700200A
S214005120C0560020B7530020D0570020B6530020AA
S214005130C0530020CC57002030B14368C1F8E83097
S2140051408368DB68C361704791F83030022B03D068
S214005150072B05D0034B00E0034BC1F8E83070473F
S214005160024BFAE7EEB806007C8106008381060053
S214005170044BC1F8E83018B1826802B1D368C36145
S214005180704700BFEEB806000023C0E90033038175
S2140051907047036810B533B901220281C1E90933AB
S2140051A0016041601CE0028991F8334001320281BF
S2140051B093F83320A2420CD85B6A002BF8D14B62DE
S2140051C043688B625962ECE7C1E909325162996221
S2140051D006E09A6A002AF7D1C1E9093299620160AD
S2140051E010BDC36A5BB19A68526A4AB9C3E9022223
S2140051F01A8A013A1A820023C0E90933C36270474B
S214005200D0E9092111B991629A60F1E74A620AB9B8
S214005210D960EDE79162EBE738B5C56AAB685B6AC3
S2140052204BB1FFF7DEFFC562014605F10800BDE899
S2140052303840FFF7AEBF38BD054B40220021013A8B
S214005240C3E90011198103F10C03F8D1704700BFC0
S214005250C0530020F8B5044608B9FFF729FB8A4D6D
S2140052606A68D2B12B68894E4BB92346296B8848A9
S2140052709200FFF7FBFA306023780BB1F8BD33607D
S214005280844B32681A60844A6B6813608349844A88
S2140052909B0013600A6813440B602A89B2B1234648
S2140052A0296B80481201FFF7E1FA7F4B18602378DC
S2140052B0002BE3D17D4B7E4A18602B8913807749FB
S2140052C07C4A1B0113600A6813440B606A69002A53
S2140052D027D02B69784E002B36D12346296B77488A
S2140052E09200FFF7C3FA30602378002BC6D1744BC8
S2140052F02A7E1A70734BEA691A60734B32681A601A
S2140053006B69EA6864215A43B2FBF1F26F490A609E
S2140053106F4A624913606F4A9B0013600A68134421
S2140053200B606D4E6B6B336002F072FC04F010F98C
S214005330054658B101232370684B63604FF4D7735A
S214005340A360674BE36099E73360D0E704F0E6F9C3
S2140053503368984209D209232370604B63604FF488
S214005360D973A3605E4BE360FEE704F0D7F93368B9
S2140053705C4F984275D13D603268B2F57A7F07D9A6
S21400538000230020012115F0BBFA4FF47A7545433F
S214005390554B564A1D6000231370554A1370554AE4
S2140053A01360554A1360554A1370554A1370554A90
S2140053B02046137002F04CFA0A23B0FBF3F0524B6F
S2140053C018602578002D7FF459AF334A136853B11F
S2140053D03049086838B10146013B41F8045BFBD10F
S2140053E0116801F0D3FF494B00251D60484B1D6036
S2140053F0484B1D60484B1D60484B1D60484B1D6068
S214005400484B1D7001F036FCFFF716FF464B1D603B
S214005410464B1D80264B1B88002B2ED1444A00236A
S2140054201360444A1380444A1360444A1380444A33
S2140054301360444A2046138001F024FF2378002B93
S2140054407FF41CAF204601F0ADFC2378002B7FF4E0
S21400545015AF00F045FCFFF7C3FD3B4B01221A7069
S2140054600CE704F05BF92B4602460121002015F0FC
S21400547047FA3368584338607EE7204601F03AF82A
S2140054802378002BCAD0F9E654100020685200207A
S2140054908C8106006C52002070520020645200205E
S2140054A0745200209F810600785200207C52002013
S2140054B0805200208452002090520020B1810600C5
S2140054C0885200208C5200209452002098520020CF
S2140054D09C520020A0520020A452002040810600CA
S2140054E001820600AC520020A8520020C0560020C0
S2140054F0C1560020CC570020D0570020B6530020BD
S214005500B7530020C8560020C4560020E05700209D
S214005510E8570020EC570020F0570020E457002002
S214005520F4570020DE5700209C530020A053002094
S214005530B0530020B4530020B8530020BC530020C2
S214005540CC560020D0560020A253002090F83330CE
S2140055500B490C22534330B5CA58CC1832B9012532
S2140055602581C0E90422C850606030BD2589013518
S21400557025810024026144615061C850F5E700BFF0
S214005580C053002090F833200B490C235A4330B503
S2140055908C588B1834B901251D81C0E90444885005
S2140055A0586030BD1A8901321A81002202615A6899
S2140055B042611061F4E700BFC053002010B50446F6
S2140055C090F8330001F06EFB074B94F833201B78FD
S2140055D09A42204603D1BDE81040FFF7D3BFBDE88E
S2140055E01040FFF7B3BF00BFB653002038B590F8A1
S2140055F0323004461546072B39D8DFE803F01F1F64
S21400560004041F1F202000234367A0F8783041645D
S214005610FFF7E7FD90F83230032B05D1543003F046
S214005620D1FF08B1FFF744F92046FFF7C7FF002374
S21400563084F8323084F8315084F8303038BD002396
S2140056404367A0F878304164FFF7CBFD90F832301E
S214005650072B05D1543003F0B5FF08B1FFF728F942
S214005660042384F8323084F831500023E4E7BDE8A0
S2140056703840FFF71DB938B50C4691F832100729A7
S2140056800546049807D80239052906D8DFE801F050
S214005690060605052525FF293AD138BD6267A4F818
S2140056A07830606415B12046FFF79BFD21462846FA
S2140056B0FFF75EFD94F83230032B06D104F1540058
S2140056C003F080FF08B1FFF7F3F82046FFF776FFF8
S2140056D00023238684F83230DFE76267A4F8783048
S2140056E0606415B12046FFF77CFD21462846FFF78B
S2140056F03FFD94F83230072B06D104F1540003F036
S21400570061FF08B1FFF7D4F8002323860423E1E7FE
S214005710BDE83840FFF7CCB8D0E90032934210B568
S2140057200FD01C690021A24215BF6161C3E90412B3
S214005730C3E90412C2E9043116BF136102600460B3
S214005740436010BD70B50446D4E9043590F83300C4
S214005750104A0C219DB953B94143551853502B811B
S2140057606B6001F0B5FA0023C4E9043370BD48430A
S21400577016183189013931815D611350F3E701FB59
S21400578000221189013911812B610BB95560EAE7B6
S2140057905D61E8E7C053002013B5044670B1084BBE
S2140057A01B78012B0AD10023CDE90033054A016F8F
S2140057B00346054803F04AFF044B1C6002B010BDC8
S2140057C0C8560020695A0000B4520020B05200208B
S2140057D0F8B50446A8B1114B1B78012B11D1C56E44
S2140057E00F4E7DB90F4B1F6803F098FF32682B46AB
S2140057F0511E0D461946E7FB0051284615F080F865
S2140058002067F8BD03F08AFF32680023511E0E465B
S2140058101946E5FB00613046F0E700BFC856002099
S214005820A4520020C45600202DE9F7435D4B1B7898
S214005830012B00D0FEE75C4B93F80080B8F1000F18
S21400584040F09680FDF7A7FC584F594C97F800900B
S214005850584D064601F016FA40280346387000F008
S2140058608A800C20DFF858814343B9F1400F58F87E
S2140058700330236003D101F0BBFBAFF30080226846
S2140058802B68DFF840919A4218D1002001F06AFD9B
S214005890012802D0286802F0D9F999F800303BB107
S2140058A02068036F0BB9FFF793FF2068FFF774FFBC
S2140058B0304603B0BDE8F043FDF773BC99F80030FE
